:1000000000800020BD010000750C00002D0C0000D8
:100010002D0C00002D0C00002D0C00002D0C0000FC
:100020002D0C00002D0C00002D0C0000750C0000A4
:10003000750C00002D0C00006123000065240000F9
:10004000750C0000750C0000750C0000750C0000AC
:10005000750C0000750C0000750C0000750C00009C
:10006000750C0000750C0000750C0000750C00008C
:10007000750C0000750C0000750C0000750C00007C
:10008000750C0000750C0000750C0000750C00006C
:10009000750C0000750C0000750C0000750C00005C
:1000A000E9310000F5310000750C0000750C00000E
:1000B000750C0000750C0000750C0000750C00003C
:1000C000750C0000750C0000750C0000750C00002C
:1000D000750C0000750C0000750C0000750C00001C
:1000E000750C0000750C0000750C0000750C00000C
:1000F000750C000081250000750C0000AD26000085
:10010000750C0000D9270000750C0000750C00006C
:10011000750C0000750C0000750C0000750C0000DB
:10012000750C0000750C0000750C0000750C0000CB
:10013000750C0000750C0000750C0000750C0000BB
:10014000750C0000750C0000750C0000750C0000AB
:10015000750C0000750C0000750C0000750C00009B
:10016000750C0000B5120000750C0000750C000045
:10017000750C0000750C0000750C0000750C00007B
:10018000750C0000750C0000750C0000750C00006B
:10019000750C0000750C0000750C0000750C00005B
:1001A000750C0000750C0000750C0000750C00004B
:1001B000750C0000750C0000750C0000564B4CF2DD
:1001C000205210B51A804DF628121A8000BF00BFC9
:1001D00000F054FD514B4FF010621A60504A9A6083
:1001E000504ADA60504A136813F4807304D14F49BF
:1001F0000B604FF4A85313604D4B1A78110703D5C9
:100200001A7842F008021A704A4B4B492A221A7097
:100210004A4A4B4B8B4204D252F8040F43F8040B6A
:10022000F8E7484B484900228B4202D243F8042B9E
:10023000FAE74649464A002352F8230041F82300D2
:1002400001336F2BF8D1434B434A802103F8011B44
:100250009342FBD1414B3D4A1A60414B8A221A70AE
:10026000A3F5805324225A70A0221A709A7992071B
:10027000FCD59A79D406FCD43A4A937903F00C035E
:10028000082B384BF9D105221A7143225A719A79F9
:100290009006FCD5334A9179324B4906FBD5324A58
:1002A0004FF0817111600521516020221A709A79F6
:1002B00002F00C020C2AFAD12C4B2D4A1A602D4B5D
:1002C0002D4A1A6000225A60072243F8042C2B4A58
:1002D000C3F80C2D62B600F0A3FE144B1B68DA07BE
:1002E00005D5274800F02EFE264B274A1A60274BDB
:1002F0001B785B0609D5234C234B22689A4204D114
:100300001F4800F01FFE0023236002F07FFF00F073
:10031000BBFC00F0E9FBFEE70E2005403080044006
:10032000823F04000100002B10D0034014D0034092
:1003300002D0074000E00740EC92FF1F903E000013
:100340002087FF1FF092FF1F4096FF1F0082FF1FB4
:100350000000000000E400E05FE400E008ED00E0E1
:1003600000500640004006404480044004800440A1
:10037000C010050014E000E03F190100000020203B
:10038000DD2CA95D1CE00340A5C3945A00F0074092
:10039000FFFFFFFFFFFFFFFFFFFFFFFFFFFFFFFF6D
:1003A000FFFFFFFFFFFFFFFFFFFFFFFFFFFFFFFF5D
:1003B000FFFFFFFFFFFFFFFFFFFFFFFFFFFFFFFF4D
:1003C000FFFFFFFFFFFFFFFFFFFFFFFFFFFFFFFF3D
:1003D000FFFFFFFFFFFFFFFFFFFFFFFFFFFFFFFF2D
:1003E000FFFFFFFFFFFFFFFFFFFFFFFFFFFFFFFF1D
:1003F000FFFFFFFFFFFFFFFFFFFFFFFFFFFFFFFF0D
:10040000FFFFFFFFFFFFFFFFFFFFFFFFDEF9FFFF23
:1004100010B5054C237833B9044B13B10448AFF33E
:1004200000800123237010BDF092FF1F0000000028
:10043000943E0000084B10B51BB108490848AFF3C3
:1004400000800848036803B910BD074B002BFBD0A0
:10045000BDE81040184700BF00000000F492FF1FE5
:10046000943E0000EC92FF1F0000000038B5314DB3
:100470003148324C342101F0B3FD284600F0DCFA5B
:10048000284600F0D9FA204600F038F9204610211D
:1004900000F000FA2046002100F042FA00231A463C
:1004A0002046012100F042FA20464B2100F058F985
:1004B00000231A462046012100F050FA20464B2125
:1004C00000F054F920460A2100F056F900221146A6
:1004D0000123204600F05AFA2046322100F02AF982
:1004E00020460F2100F02CF92046502100F02EF973
:1004F0002046C82100F02EF92046072100F042F9DD
:1005000020461E2100F044F92046012100F086FA21
:100510002046012100F076FA2046012100F066FA1B
:100520002046012100F056FA20460121BDE838405E
:1005300000F044BAE088FF1F603B00001093FF1FEB
:1005400000B585B003AB02AA01A9054800F07EF909
:100550000199044800F0C0FA05B05DF804FB00BF43
:100560001093FF1FE088FF1F0A21014800F004B824
:100570001093FF1FFFFFFFFF2DE9F84318A7D7E9EE
:100580000067044618A3D3E900230FF26409D9E9F0
:100590000089C0E90267184EA162012500211748B1
:1005A0002063C4E90623617084F82C103046C4E946
:1005B0000489257002F058FA30460C2102F092FAB4
:1005C000294694F8280000F0D5FC94F82800294624
:1005D00000F0CAFC2046BDE8F88300BFAFF30080FE
:1005E0000000006078D56E3F000000409E9C6C3F8C
:1005F000000000007BCD6E3F9C89FF1F404B4C00EC
:1006000070B50E460446002190F82800154600F00B
:10061000ABFC0C4B1B684FF00042DA625E63D96A98
:100620000029FCDA4FF00042996BDA625D63DA6A06
:10063000002AFCDA94F828009B6B0121BDE8704089
:1006400000F092BC9C89FF1F2DE9F041012A194F4F
:10065000D4BF41F0800841F0C0080646002190F860
:1006600028001C46154600F07FFC38684FF0004318
:10067000C362C0F83480C36A002BFCDA002D836BA0
:1006800010DD611923464FF000450024C562446324
:10069000C26A002AFCDA826B03F8012B8B4201D07C
:1006A0003868F3E796F828000121BDE8F04100F032
:1006B0005BBC00BF9C89FF1F70B50B4C1646012523
:1006C000A623204684F83B3084F85E5084F85D50C1
:1006D00002F050FA3146204602F04CFA29462046F4
:1006E000BDE8704002F0E8BBD489FF1F90F82C30C1
:1006F0000BB9FFF785BFFFF7DFBF00BF90F82C30C5
:1007000010B5044613B10A4802F048FA2046002208
:100710002D21FFF7EBFF204610222D21FFF7E6FFEA
:10072000204608222D21BDE81040FFF7DFBF00BFA3
:10073000D489FF1F81F30802D2B21D21FFF7D6BF73
:1007400081F30802D2B22121FFF7D0BFCAB2222121
:10075000FFF7CCBF81F30802D2B22321FFF7C6BF57
:1007600081F30802D2B22421FFF7C0BF81F308024F
:10077000D2B22521FFF7BABF81F30802D2B22621F7
:10078000FFF7B4BF81F30802D2B22821FFF7AEBF52
:1007900081F30802D2B22921FFF7A8BF2DE9F8435F
:1007A000244C4FF001084FF0A60907462046164694
:1007B0001D4684F83B9084F85E8084F85D8002F0EA
:1007C000D9F94146204602F077FBF2B25321434665
:1007D000204684F83B9084F85E8084F85D8002F0C7
:1007E000F5FB94F8391094F83820914220D06B1E14
:1007F0000020A518914202F101028ABF84F8382036
:10080000FF222A7E03F8012F94F8391094F838203B
:10081000914200F10100ECD1864203D00022012375
:100820003A707B7001210348BDE8F84302F044BBF5
:100830000020F1E7D489FF1F10B490F82C4014B9C0
:1008400010BCFFF701BF10BCFFF7A8BFF8B5044606
:100850000F4616461D46062200F120033221FFF7FF
:10086000EBFF94F8212094F8203043EA02231BB2D6
:100870003B6094F8232094F8223043EA02231BB211
:10088000336094F8252094F8243043EA02231BB205
:100890002B60F8BD30B504390C2998BF0D4B83B0DF
:1008A00098BF5D564FF001020DF107034FF0310183
:1008B00088BF00250446FFF7BFFF9DF8072022F000
:1008C00013022A432046D2B23121FFF70FFF03B0B3
:1008D00030BD00BFF43B0000F0B583B016461F46A4
:1008E00001220DF1070304460D46FFF7A5FF012283
:1008F0009DF80730B2404FB923EA0202294620464C
:100900008DF80720FFF7F2FE03B0F0BD1A43D2B214
:10091000294620468DF80720FFF7E8FE03B0F0BD1A
:100920000B4606223121FFF7D7BF00BF70B5044642
:100930001D4616460B4606222721FFF7CDFF3346FC
:10094000204605222721FFF7C7FF2B462046042219
:100950002721BDE87040FFF7BFBF00BF70B5044658
:100960001D4616460B4602222721FFF7B5FF3346E8
:10097000204601222721FFF7AFFF2B462046002209
:100980002721BDE87040FFF7A7BF00BF70B5044640
:100990001D4616460B4602222A21FFF79DFF3346CD
:1009A000204601222A21FFF797FF2B4620460022EE
:1009B0002A21BDE87040FFF78FBF00BF21B90B4669
:1009C00006222E21FFF788BF012306222E21FFF7E2
:1009D00083BF00BF21B90B4605222E21FFF77CBF44
:1009E000012305222E21FFF777BF00BF21B90B4657
:1009F00002222E21FFF770BF012302222E21FFF7D2
:100A00006BBF00BF21B90B4604222E21FFF764BF44
:100A1000012304222E21FFF75FBF00BF21B90B463F
:100A200003222E21FFF758BF012303222E21FFF7B7
:100A300053BF00BF0020704700B5064A0368128804
:100A40005B6883B001A9ADF804200222984703B087
:100A50005DF804FB043C0000F0B507468BB0002AAB
:100A600033D0012A08BF0A2251B3212400E0F4B296
:100A7000B1FBF2F502FB1511C8B2092900F13001F2
:100A800098BFC8B20AA988BF3730214488BFC0B216
:100A900001F8240C661E2946002DE8D133B1013C33
:100AA000E4B20AAB23442D2203F8242C3B6801AAAC
:100AB00011195B683846C4F1220298470BB0F0BDAB
:100AC00030228DF825202124E8E70368C9B21B688D
:100AD00098470BB0F0BD00BF0029BABF49422D2393
:100AE00000230A22FFF7B8BF08B5FFF7BFFCFFF7E6
:100AF00027FD01F079FBFAE7844641EA000313F091
:100B000003036DD1403A41D351F8043B40F8043B14
:100B100051F8043B40F8043B51F8043B40F8043BD7
:100B200051F8043B40F8043B51F8043B40F8043BC7
:100B300051F8043B40F8043B51F8043B40F8043BB7
:100B400051F8043B40F8043B51F8043B40F8043BA7
:100B500051F8043B40F8043B51F8043B40F8043B97
:100B600051F8043B40F8043B51F8043B40F8043B87
:100B700051F8043B40F8043B51F8043B40F8043B77
:100B800051F8043B40F8043B403ABDD2303211D317
:100B900051F8043B40F8043B51F8043B40F8043B57
:100BA00051F8043B40F8043B51F8043B40F8043B47
:100BB000103AEDD20C3205D351F8043B40F8043B17
:100BC000043AF9D2043208D0D2071CBF11F8013B15
:100BD00000F8013B01D30B8803806046704700BFDB
:100BE000082A13D38B078DD010F003038AD0C3F1EA
:100BF0000403D21ADB071CBF11F8013B00F8013BCC
:100C000080D331F8023B20F8023B7BE7043AD9D38A
:100C1000013A11F8013B00F8013BF9D20B7803705F
:100C20004B7843708B7883706046704708B5104CE2
:100C300008E0236859050DD423681A050FD42368EA
:100C4000DB0411D423685803F3D500F033FB236889
:100C50005905F1D501F094FC23681A05EFD501F090
:100C600025FD2368DB04EDD501F0B6FDEAE700BF02
:100C70003480044008B5FFF7D9FF00BF014B1022B4
:100C80001A80704700200540704700BF094908B529
:100C90000B6830B16A461844A2F58052904202D2E5
:100CA0000860184608BD02F0ABFA0C2303604FF051
:100CB000FF3008BDFC87FF1FF0B44D1E2E460024F8
:100CC00000E00134B0FBF2F302FB1300092800F14D
:100CD00030078ABF3730F8B2C0B206F8010F1846A5
:100CE000002BEED10A1953704CB1107815F8016F32
:100CF00028700133E01A834202F80169F5DB0846E7
:100D0000F0BC7047704700BF10B40F4B53F8302051
:100D100092F880422CB1012369B182F8803010BC76
:100D2000704703EBC0035B681A6841B922F0020206
:100D30001A6010BC704782F8003110BC704742F056
:100D400003021A6010BC7047083C00001C4A02EB0A
:100D5000C00301295B6811D004291BD052F8300070
:100D6000002280F8802229B1022920D0032922D034
:100D70001A6070474FF480721A60704752F8300062
:100D80004FF4A27280F880121A601A6822F02002D2
:100D90001A60704752F830104FF4A272012081F8A7
:100DA00080021A601A6842F020021A60704740F20E
:100DB00003121A6070474FF481721A60704700BFC7
:100DC000083C0000212848D8F8B5042A44D8DFE8B8
:100DD00002F0484B4E0345004FF410262B4B03EB1B
:100DE000C0030D465C68216811F4E06148D0284BCF
:100DF000284A2949C3F89C2104F140422748C3F8F6
:100E0000A411A2F59221264FC3F8A0017C29254800
:100E1000C3F8A871C3F8AC012CD9A2F594237C2B9C
:100E20002AD9A2F596237C2B28D9A2F598237C2BCE
:100E300029D9A2F59A227C2A27D81B4872B62368A2
:100E400023F4702343F08072C4F3840116432360BB
:100E500040F82150266062B6F8BD70474FF4302646
:100E6000BCE74FF40026B9E74FF44026B6E74FF44D
:100E70002026B3E70D48E1E70D48DFE70D48DDE741
:100E8000FFF764FFB3E70C48D8E7F8BD083C000063
:100E90000082FF1FD187FF1F7987FF1FA587FF1FD4
:100EA0004D87FF1F2187FF1FD888FF1F0088FF1F66
:100EB0003888FF1F8888FF1FB888FF1F1A4B03EB75
:100EC000C00010B4426802F14043A3F592217C298E
:100ED00023D9A3F594217C290DD9A3F596217C294A
:100EE0001FD9A3F598217C2919D9A3F59A237C2B26
:100EF00011D80E4C00E00E4C72B613680D4823F06A
:100F00008773C2F3840123F4803343F0807313604A
:100F100044F8210062B610BC7047074CECE7074C60
:100F2000EAE7074CE8E700BF083C0000D888FF1F4D
:100F30003888FF1F050D00000088FF1FB888FF1FBD
:100F40008888FF1F30B4054B054D064C0022102148
:100F50001A602A602060196030BC704714D00340CA
:100F600004D0034000D00340212801D8FFF7CCBEB5
:100F7000704700BF212801D8FFF7E8BE704700BFC7
:100F80002DE9F843054672B6214F224B224A1B68D1
:100F90003C68126862B6520102D5322B88BF013418
:100FA000A5B3C3F58C331D4EDFF86890DFF8688079
:100FB00003F23F134FF47A72A6FB031302FB04F40F
:100FC00004EB131472B6D9F800103A68D8F800E0B0
:100FD00062B6C1F58C3303F23F13A6FB03031EF088
:100FE000806FC4EB13134FF47A7002D0322988BF9C
:100FF000013200FB0233B3F57A7F04D3013D05D003
:1010000004F57A74DEE701F0EFF8DBE7BDE8F8837A
:101010004893FF1F18E000E004ED00E0398EE3384C
:10102000F8B52D4B2D49DFF8D0E0DFF8D0C02C4EBD
:101030002C4D2D4C2D4A2E4F4FF4000018604FF0D0
:10104000807018604FF0007018604FF0806018607A
:101050004FF00060186000200860282348F6FF71F8
:10106000CCF80010CEF80030336013602B602360A2
:101070003B60B3629362092245F8242CC4F8D80F70
:1010800005F57F65C7F8D41F07F5FF2707F5FA6751
:10109000C6F8F83F2B6006F5FF26C4F8D42F05F5F7
:1010A000FD2504F5FF24386006F2F476114831601E
:1010B00005F5FF6504F5FD642B602360026001F017
:1010C000DFF91920FFF75CFF00F05CFE40F213101F
:1010D000BDE8F840FFF754BF08E100E0048003409A
:1010E00014800340248003402C8003401C80034074
:1010F0003480034000800B400C8003400880034094
:10110000431E032B14D872B60A4951F8230068B164
:1011100070B4094C058834F81320466841F8236000
:10112000521B24F8132062B670BC704762B6704739
:1011300000207047A493FF1F2896FF1F0138032843
:101140000BD872B6074B53F8203043B100205B68D0
:101150000130002BFBD162B6704700207047184663
:10116000F9E700BFF893FF1F30B472B62B4A13782B
:101170001D0706D52A4B196A002936D0996A00291D
:1011800041D053781C0706D5254B196C00293ED059
:10119000996C002939D09378190705D5204B196E21
:1011A000002936D0996E89B1D3781B0707D51C4B1F
:1011B000D3F880207AB3D3F8882011213AB162B6EF
:1011C000184B00221A7030BC00F07EBE0D21154C69
:1011D000154D227843F8315003EBC1030830013A32
:1011E0005860227062B630BC704704220D4C0F4D1F
:1011F000217843F8325003EBC20308304A1E58608E
:10120000227062B6EFE70521E1E70921DFE7082256
:10121000ECE70C22EAE71022E8E700BF403D0000BF
:101220000080FF1F2194FF1FC8004000880040007D
:10123000431E032B1DD81B4A400140F0100030B460
:10124000104472B6184CE25C032A1BD8DFE802F0A7
:101250000212151703220D88E25410F0080F14BF74
:10126000C823882343EA054308310360416062B61E
:1012700030BC704708300222EDE70522EBE708306A
:101280000422E8E7094A52F8230038B1084A52F824
:101290002300416042F8231062B6E9E742F82310C8
:1012A000034AF7E70080FF1F3094FF1FF893FF1FEA
:1012B0000894FF1F2DE9F04FDFF80CB3DFF80CA303
:1012C00087B044E0AB4F4FEA930807EBC809013EF3
:1012D000D9F8042003F00803F6B2A2F1080003F0E5
:1012E000FF04002B40F0028157F838301B0C99B2F4
:1012F00022F8081C002B00F0F0809F4B22F8064CCF
:1013000042F8044C53F82620002A00F0C5829B4D79
:1013100055F8263058609A4C45F8260034F81630B7
:10132000194424F8161000F0AFFD002800F0AD823B
:10133000944A954B19F0080F00F1080018BF1346A6
:10134000C9F8040047F8383008238BF800309BF8C0
:101350000040E4B261071AD58C4B1B78A3B18C49CD
:101360000A7802F0FF0322B1013BDBB20B7003B934
:1013700000BE88490A7802F0FF032AB1013BDBB2C4
:101380000B70002B00F0578204238BF8003004F020
:10139000080303F0FF02002B00F0CC809AF8003025
:1013A000DBB21E098ED19C08DFF8C89159F83420B1
:1013B00009EBC401C2F38302013A49680C2A00F226
:1013C0008880DFE802F07C7C868686868686478673
:1013D000868607000868704D4A68704F704E286016
:1013E00081B240F28160674B6A604FF0010E0022CB
:1013F000814249F834303A60C9F81020C9F8182001
:1014000086F800E05B4C00F2E380B1F5D06F80F02D
:101410004683B1F5817F00F0FC8200F28D82802945
:1014200000F07783822940F0FA82A98801F07F01D9
:10143000042900F2F4825B485B4C89000844227066
:1014400062700278930740F1588484F800E04FF00E
:10145000020E42E3514F3A6832B3544B504E544956
:10146000188834780D784028864645F0020828BF51
:101470004FF0400E002C84F001043470CEEB0000DD
:101480000CBF8824C82409EBC80680B285F001058A
:1014900044EA0E447260188049F8384072440D7076
:1014A000002800F045813A603B4B1A88B2F5A06FE6
:1014B0000FD100219A7859703E4B1A7009E0364AD4
:1014C000108842F22102904200F037812D4A49F8FB
:1014D0003420394A0123137036E72A4A2A4B19F07F
:1014E000080F18BF134647F838302DE700F0ECFC22
:1014F000324A334952F82630002B00F0D181586827
:101500008C5D42F8260003F10802C9F80420032C80
:1015100005D8DFE804F02C02292602228A551A8811
:1015200019F0080F0CBF8823C82343EA024347F889
:10153000383009E7E00700F18181210600F1F281EE
:10154000A20706D51F4A204913780220DBB2137088
:101550000870E30602D51C4B10221A7007B0BDE8D4
:10156000F08F04228A55DAE705228A55D7E703224D
:101570008A55D4E70080FF1FA493FF1F5093FF1FDD
:101580002896FF1FC8004000880040002C94FF1FD1
:10159000B593FF1F3494FF1F1894FF1F4C93FF1F38
:1015A000B493FF1FC02007402494FF1F6093FF1FC8
:1015B0002094FF1F9820074094200740F893FF1FB6
:1015C0003094FF1F8820074080200740902007406C
:1015D00042F22100814200F02A8100F2D880B1F568
:1015E000086F00F07682B1F5106F40F01882226A21
:1015F000B349A8780870120600F13A83D9F8282078
:10160000B049130600F10C83D9F83020AD49150616
:1016100000F10183D9F83820AA49140600F1F682B6
:10162000D9F84020A749100600F14A83D9F848208C
:10163000A449120600F13F83D9F85020A1491306AE
:1016400000F13483D9F858209E49150600F129830A
:10165000D9F860209B49140600F11E83D9F8682050
:101660009849100600F11383D9F8702095491206A5
:1016700000F10883D9F878209249130600F1FD8221
:10168000D9F880208F49150600F13183D9F88820D8
:101690008C49140600F12583D9F890208949100659
:1016A00000F11983D9F898208649120600F10D83BC
:1016B0008548864A864901908648874D874C04971D
:1016C00000230596029580460F4616461D46039454
:1016D000306828B1446800F0F7FB2046002CF9D1AF
:1016E00000233360029B38681A46002342F82530F5
:1016F00028B1446800F0E8FB2046002CF9D1002214
:101700003A60019A98F800301146002241F8042B03
:10171000039A0191023B4FF0000122F81510032BB0
:1017200000F22B81DFE813F0700125017001250123
:10173000BEF1400F18BF0022B5E6694A0D7848781F
:10174000157050708D78C8789570D07010680D79CC
:10175000157186284D7989795571917100F09B81B9
:101760006049614E0A78307882F00105002842F025
:1017700002020D700CBF8821C82149F8321009EB14
:10178000C20280F001000021307051609EE642F2FA
:101790002120814240F0CB81544B554C5549A878CB
:1017A0001D682560CDF804E0087000200290804696
:1017B000844604464B490D7845F0020E09EBCE03F2
:1017C0000393019B002B039B5C600CBF8824C824FF
:1017D00044EA080385F0010449F83E3032700C7089
:1017E000DFF8E0E0404BDFF8FC80002840F01E818D
:1017F000BCF1400F1BD144F0020C09EBCC03029C5E
:10180000DFF8C0E05C60002A40F02681020442F06C
:1018100088029DF804304EF83C20044433700D706B
:101820002346402803D10020334A3B601080334ACE
:10183000012313704DE600F0B3FCA5E5214B2F48C2
:1018400028491A614FF0020E80F800E02C4F0A7010
:101850002C49196099602C4E2C4D2D4C9A610D210C
:101860003970FF213170DFF8B8E029702270294DFE
:10187000294A8EF800109F27012406F8047C5D6039
:101880000470DA6007B0BDE8F08F244A47F83800EA
:1018900013780133137057E543F826000E4D3AE5EF
:1018A0008B5D032B00F2F08001A252F823F000BF01
:1018B00049130000491300006D190000671900006A
:1018C0002C94FF1F0080FF1F0894FF1FA493FF1F8D
:1018D000F893FF1F3094FF1F5093FF1F2896FF1FA0
:1018E0003096FF1F2094FF1FB493FF1F4893FF1FE4
:1018F0003896FF1F4494FF1F6093FF1F94200740FA
:10190000C020074088004000882007408020074012
:10191000982007406493FF1FB893FF1F2194FF1F77
:101920008C200740C149C24B80220D2008701A70DC
:10193000A2077FF50EAE05E640F20232914240F07A
:10194000EE80A98801F07F01042968D86A88002AFE
:1019500065D1B648CDF804E089000844017841F02B
:101960000201017021E701238B55EDE400238B5523
:10197000EAE44FF0010388F800300135042D06F148
:10198000040607F1040708F101087FF4A1AEA94C91
:10199000A94B2278A94D049F059E002129701A7039
:1019A000130700F105816278A549DFF8A0820A706B
:1019B00010074FF00001C9F83010C9F8381000F1D5
:1019C000E080A049A2780A700021C9F85010C9F837
:1019D00058101107DFF8748200F10181E2789A490A
:1019E0009A4C0A7000211207C9F87010C9F87810D3
:1019F00000F1B08033780193002183F00102C9F82F
:101A00009010C9F89810D0E64FF0000388F8003025
:101A1000B3E7A98801F07F01042940F28D80834A51
:101A20000F2313708A4A0123137052E540287FF672
:101A3000E2AE44F002040EEBC401029E4E60BAB165
:101A40009DF80410834A19703346403888F80050D6
:101A500040334EF83420E7E69DF80430337002043A
:101A6000029B0D7042F0C80203444EF83C20D8E6B9
:101A70009DF804101970029B774A88F8005040388E
:101A800040334EF83420CFE619F0080F0CBF022384
:101A900003238B5558E4714A0F21117060E6704A98
:101AA0005468002CBBD06888B5F804E003E00C3221
:101AB0005468002CB3D013888342F8D153887345FF
:101AC000F5D1000A03280CBF94F800E0B2F808E052
:101AD00003E0644A644C12782270E888704580F014
:101AE0003F8162490D784028844645F0020E28BFA8
:101AF0004FF0400C04EB0C0309EBCE0202930123E0
:101B00005460CCEB00004FEA0C4800220193C8243B
:101B10005EE6554C4FF0020E22706270DDE7B1F5C3
:101B2000A06F7FF47CAF0123002201933DE642F2D7
:101B300021329142F7D072E76A88002A7FF46FAFB2
:101B40003A48CDF804E089000844017821F0020108
:101B500001702AE600F098F9002800F0EF800830C4
:101B60003D4AC4F88400C4F8802000F08DF90028B4
:101B700000F0DE800830374AC9F88C00C9F88820A8
:101B800038E700F081F9002800F0C0800830324AC0
:101B9000C8F84400C8F8402000F076F9002800F0AA
:101BA000AF8008302B4AC9F84C00C9F8482008E734
:101BB00000F06AF9002800F0CD800830264AC9F804
:101BC0002400C9F8202000F05FF9002800F0BC8054
:101BD0000830204AC9F82C00C9F82820E3E600F0B4
:101BE00053F9002800F09E8008301B4AC8F86400B2
:101BF000C8F8602000F048F9002800F08D80083017
:101C0000144AC9F86C00C9F86820E7E6C86B0838C0
:101C100000F05AF904E5486B083800F055F9F9E48A
:101C2000C86A083800F050F9EEE400BFC020074051
:101C300080200740403D0000C42007402194FF1F42
:101C4000C8200740CC200740D02007400080FF1F5D
:101C500094200740C800400088004000B593FF1F53
:101C6000443D00002C94FF1F2494FF1F2094FF1F6D
:101C7000606A083800F028F9C0E4C86F083800F03E
:101C800023F9FDE4486F083800F01EF9F2E4C86E4D
:101C9000083800F019F9E7E4486E083800F014F944
:101CA000DCE4C86D083800F00FF9D1E4486D08385D
:101CB00000F00AF9C6E4C86C083800F005F9BBE486
:101CC000486C083800F000F9B0E4D1F89C000838FE
:101CD00000F0FAF8ECE4D1F89400083800F0F4F8D9
:101CE000E0E4D1F88C00083800F0EEF8D4E4D1F844
:101CF0008400083800F0E8F8C8E44FF0020EECE683
:101D00002A78C9F8480001322A705AE62A78C8F8B9
:101D1000400001322A703FE72A78C9F86800013292
:101D20002A705BE62A78C8F8600001322A7061E701
:101D30002A78C9F8880001322A705BE62A78C4F84C
:101D4000800001322A7010E72A78C9F82800013291
:101D50002A7028E62A78C9F8200001322A7032E772
:101D6000BEF1400FF44628BF4FF0400C04EB0C03CB
:101D700002930123CCEB0E004FEA0C4800220193A2
:101D800018E500BFF8B500F093FD294B29482A4C0F
:101D90002A4F2B4DDFF8BCC0DFF8BCE0294E0022F3
:101DA0001A605A609A60DA601A615A619A61DA615F
:101DB0001A625A629A62DA621A635A639A63DA633F
:101DC0001A645A649A64DA641A655A659A65DA651F
:101DD0001A665A669A66DA661A675A679A67DA67FF
:101DE000C3F880200168C3F8842041F48021016099
:101DF000C3F307212170C3F30740134938701B0E4A
:101E00002B70FF238CF80030104D8EF800301048F6
:101E10000B700123337084F8642070264FF4007433
:101E2000102207F82C3C2E70046081F8F820F8BDD1
:101E30000080FF1F348004409C200740B0200740F2
:101E4000B4200740942007401020074049E400E0F8
:101E500008E100E0802007408820074000F0A4B897
:101E600000F07CB800F056B800F090B800F06CB903
:101E700000F046B90846114600F0B2B8084600F036
:101E800033B900BF704700BF72B60D480268B2FA9E
:101E900082F30B2B10DC4FF00041D94022EA010203
:101EA000026062B6074803EBC303DB00C2180021DF
:101EB000C15010465160704762B60020704700BFA5
:101EC000F088FF1FBC83FF1F0D4B0E4AC31AA2FBF5
:101ED00003231B090B2B0CD80B4A127852B972B68C
:101EE0000A484FF00041026821FA03F31A430260E6
:101EF00062B67047064A1278002AF0D0FFF734B96C
:101F0000BC83FF1F398EE3382194FF1FF088FF1F29
:101F10002C94FF1F38B50F4D286878B1438802888C
:101F2000C118013393420C7A02D24380204638BD57
:101F3000FFF7CAFF002320462B6038BD064B1B78F5
:101F40002BB10320FFF7DCF828600028E6D14FF022
:101F5000FF3038BD4094FF1F2C94FF1F10B5094C73
:101F6000206818B143881844007A10BD064B1B78CE
:101F70002BB10320FFF7C4F820600028F2D14FF006
:101F8000FF3010BD4094FF1F2C94FF1F044B054AE7
:101F90001B6890881BB11A885B88D31A1844704755
:101FA0004094FF1F2896FF1F0B4B1B789BB110B569
:101FB0000A4C206848B1FFF787FF00230320236005
:101FC000FFF79EF830B1FFF77FFF0320FFF798F887
:101FD0000028F8D110BD70472C94FF1F4094FF1FBC
:101FE0002DE9F04FDFF8F89083B0012289F8002046
:101FF000019169B3DFF8EC80364F019E8346D8F833
:102000000000B0B3344D4488C4F14001B14228BF50
:10201000314604EB010E00221FFA8EFE2A70761A5A
:10202000A0F802E000F1080251B1013C22445944F9
:102030001BF8014B02F8014F8B45F9D1B0F802E0D3
:10204000BEF13F0F0BD8254A05211170002ED6D1C5
:102050000198002389F8003003B0BDE8F08F4022DA
:10206000028001460420FFF7E3F80022C8F80020B0
:10207000E9E73A782AB3184D48F601444FF0010ACF
:1020800007E0013C16D02A78A2B900F0ADF83A7802
:10209000BAB10420FFF752F80728F2D889F800A057
:1020A000FFF7F2FEC8F800000028ACD10C4B013C51
:1020B0001870E8D101234FF0FF302B7003B0BDE85A
:1020C000F08F00234FF0FF3089F8003003B0BDE8F7
:1020D000F08F00BF2C94FF1F3C94FF1F3494FF1F10
:1020E0003594FF1F3894FF1F00B583B002AB012168
:1020F00003F8010D1846FFF773FF03B05DF804FB0A
:1021000038B50E4D0E4C28680123237028B1408845
:1021100000232370C0F1400038BD0A4B1B7813B96F
:102120000020207038BD0420FFF708F80728F7D8F2
:10213000FFF7AAFE28600028E9D1F1E73894FF1FD5
:102140003594FF1F2C94FF1FF8B5114B1B788BB1F2
:10215000104E114D346801272F7064B10F4A638807
:1021600000271770214623800420FFF761F83760AD
:1021700000232B70F8BDFFF787FE084B28B10146FE
:1021800004201C70FFF754F8F2E71F70F0E700BF5F
:102190002C94FF1F3894FF1F3594FF1F3494FF1FAA
:1021A00038B50E4B1B7873B90D4C216861B103F043
:1021B000FF054B880B800420FFF73AF8256038BDF7
:1021C000084B01221A7038BDFFF75EFE0028F7D0D9
:1021D0000146BDE838400420FFF72AB83594FF1FB8
:1021E0003894FF1F3494FF1F38B5224C237803B175
:1021F00038BD01232370FFF7C9FE70BB00F0B0F9B2
:1022000040BB00F043FA10BB00F0D6FAE0B900235F
:102210002370EFF30583002BEAD1EFF3108172B640
:10222000154B1868E0B1154C2278CAB945691D6094
:1022300001232370C5B1AA6101B962B600254577B3
:10224000836898472570D3E700F018F9DFE700F0BE
:1022500013F9D9E700F00EF9D3E7FFF713FECDE746
:102260000029C5D162B638BD054B1D600029E5D1F6
:10227000E3E700BF4594FF1F5894FF1F5C94FF1FC6
:102280005494FF1F10B4EFF3108272B6437F33B93A
:10229000017F012907D003290FD00123437702B919
:1022A00062B610BC7047124C2168A1B1114943615C
:1022B0000B68836108605861EFE70F4C216881B1BA
:1022C0000E4943610B688361086058610C4B4FF005
:1022D00080511960E1E7074B41618161206018601E
:1022E000DBE7064B4161816120601860EEE700BFCB
:1022F0005894FF1F5494FF1F4894FF1F4C94FF1FD6
:1023000004ED00E010B4047F4160022CC26002D0F2
:1023100010BCFFF7B7BF836810BC184770B5EFF368
:10232000108272B60C4C206880B10C4E00254369B7
:10233000236073B19D6102B962B64577836898479F
:10234000EFF3108272B620680028F0D102B962B6AD
:1023500070BD3360EFE700BF4894FF1F4C94FF1F30
:10236000FFF7DCBF184A30B41468002C27D003688C
:1023700021688B420ED2CB1A00218460C160236099
:10238000E06010600223037530BC704711688B4217
:10239000144608D3A2685B1A0360002AF6D1826053
:1023A000C460A060EEE7D268C2608460E060C56887
:1023B000CB1A0222A8602360027530BC704784608B
:1023C000C4601060DEE700BF5094FF1FF8B5224ED6
:1023D00034682CB32368002B3AD1204F1D4604E00B
:1023E0003468ECB12368002B32D1A36803B1DD60FF
:1023F00020693360036825751B68BB4221D1037FC8
:102400004560022BC46020D0FFF73CFF6368002BBF
:10241000E6D023602046FFF7A5FF3468002CE1D109
:10242000EFF3108372B60E4A00211068116003B9F1
:1024300062B628B18468FFF795FF20460028F9D1DD
:10244000F8BD224600219847E0E783689847DDE71A
:10245000013B2360E4E700BF5094FF1F0523000009
:102460006094FF1F024A136801331360FFF7AEBF89
:102470004893FF1F704700BF704700BF704700BF01
:1024800030B42948294A2A4B2A4D6024E12104709E
:1024900011701B78284C082B30D00A2B274828496C
:1024A00037D00C2B0CBF15223D2212232A6023604B
:1024B00002600B60234B24491B78244ABBB10123E3
:1024C0000B601360224B23491B78234A012B26D92A
:1024D000042B0FD9082B1ED9102B94BF86238723DA
:1024E0000B6013601D4B01221A7030BC70470B60EB
:1024F0001360E7E784230B601360F3E700F58E2099
:102500000F490830012213232A60236002600B6008
:10251000D0E71922F7E785230B601360E2E78023F9
:102520000B601360DEE700BF00400740014007403A
:10253000F488FF1F08B003400CB0034008B00B4004
:102540000CB00B406594FF1F20B0034020B00B403F
:10255000F588FF1F24B0034024B00B406494FF1F94
:10256000054A064B10781B78C0B2DBB2984238BFE0
:102570004030C01A704700BF6C94FF1F6D94FF1F5E
:10258000F0B4384B1A7912F0300F2CD072B6997D16
:1025900001F0FF0200293DD062B6334F334938784D
:1025A0000D78334E1C46C0B2EDB2431C402BE1798E
:1025B00028BF0023AB4202F1FF32C9B21CBFF15465
:1025C000184612F0FF02F0D12A4B1B68C2B23A70D3
:1025D0004BB1A84236BFC5F14005401B4019272822
:1025E000C4BF01221A701F49CA78D2B2150616D488
:1025F00052060DD51B4B1B795B0609D51E4B1F4997
:102600001B6800220A7003B11A70164B3C22DA7064
:10261000F0BC70474022D9795A7462B6E3E70B796F
:102620001C06E5D5164B174E1C783378E4B2DBB2A6
:102630009C420ED0144D01E0A3420AD00133402B3E
:1026400028BF00230879E85CC0B2C871087D07285C
:10265000F2D9DBB2034933700B79180644BF7C23EF
:10266000CB70C5E700A006406C94FF1F6D94FF1F60
:10267000B094FF1F6894FF1FF494FF1FF094FF1F96
:10268000F894FF1FF194FF1F7094FF1F054A064B3B
:1026900010781B78C0B2DBB2984238BF4030C01A05
:1026A000704700BF6C95FF1F0195FF1FF0B4384BBA
:1026B0001A7912F0300F2CD072B6997D01F0FF021A
:1026C00000293DD062B6334F334938780D78334E08
:1026D0001C46C0B2EDB2431C402BE17928BF002359
:1026E000AB4202F1FF32C9B21CBFF154184612F0DE
:1026F000FF02F0D12A4B1B68C2B23A704BB1A8421C
:1027000036BFC5F14005401B40192728C4BF012230
:102710001A701F49CA78D2B2150616D452060DD5C2
:102720001B4B1B795B0609D51E4B1F491B680022FA
:102730000A7003B11A70164B3C22DA70F0BC704775
:102740004022D9795A7462B6E3E70B791C06E5D5C5
:10275000164B174E1C783378E4B2DBB29C420ED095
:10276000144D01E0A3420AD00133282B28BF0023D7
:102770000879E85CC0B2C871087D0728F2D9DBB2DD
:10278000034933700B79180644BF7C23CB70C5E72F
:1027900000B006406C95FF1F0195FF1F2C95FF1F91
:1027A000FC94FF1F7095FF1F0095FF1F7495FF1F7E
:1027B0006D95FF1F0495FF1F054A064B10781B7887
:1027C000C0B2DBB2984238BF4030C01A704700BF79
:1027D0007C95FF1F7D95FF1F30B42B4B1A79940613
:1027E0001FD52A48DA790378294901333F2B097824
:1027F000C8BF00238B42D2B203D0264CD9B2E254D8
:102800000170254A116861B1244A1278D2B293420C
:1028100036BFC2F140029B1A9B18272BC4BF01236D
:102820000B70194AD378DBB2180611D45A060DD5AD
:10283000154B1B795B0609D5194B1A491B680022F9
:102840000A7003B11A70104B2C22DA7030BC70473A
:1028500011790906EAD5144910480C780178C9B2F3
:102860008C420DD04A1C272A84BF00210A460F4DF6
:10287000054C98BFD1B2AA5CD2B2E2710170D5E723
:102880006C21D170D2E700BF00C006407C95FF1FCD
:102890007D95FF1FA895FF1F7895FF1FE995FF1FE6
:1028A000EC95FF1FE895FF1FF095FF1F8095FF1F18
:1028B00070B584B072B6194B194D1A487022412672
:1028C0000F2480211A702E701A4604701970137824
:1028D0001B06FCD5144B186862B6144B144C984276
:1028E00098BF00EB800001A998BF40000A22FEF7C4
:1028F000E3F901A92046002311F8012B01333AB175
:102900000A2B20F8022FF7D11623237004B070BDD4
:102910005B00DBB2237004B070BD00BF000002405A
:102920000700024006000240080002407F9698001F
:102930008489FF1FF0B4464B464A186BDC6A017964
:102940001170454922790A709A6A00790870002A44
:1029500046D05968C9688A423ED82168CC8B240485
:1029600002F1FF3065D4C0F30E00C883C88B80B27B
:10297000C882196B0968C88B000452D4C2F30E00D8
:10298000C883C88B002480B212F1FF32C88218BFFE
:1029900001229C62D96A2E4809680D6800F124045E
:1029A000A54236D00068C46814F0804F0C680D68EA
:1029B00015BF248824780235013544F000440D60A9
:1029C0004463196B254B09791970214912B1CA6A00
:1029D00012791A70F0BC7047521A9A620122D9E734
:1029E000586B196805681E4C0A63CC62CC682D6868
:1029F0001C4E24F080440327B542CC6083F8257038
:102A00001FD1037F4260022BC2601ED0F0BCFFF7D3
:102A100039BC016890F82400CC6840F0004048635D
:102A2000CFE7CC8BC2F3080004F47E442043C88374
:102A3000A7E7CC8BC0F3080004F47E442043C8838E
:102A400094E72B461146F0BC18478368F0BC184742
:102A50009C89FF1F1F8000401C8000401B8000409D
:102A600000000FFF0523000090E80C00F0B41C6884
:102A700059682568164F174E29432160164D17498E
:102A80001760D66015611160417A154A5C180A31E9
:102A900094F8244053F8215002EBC40149680D60BA
:102AA000017A5C1803EB8101247ECD6902EBC4013D
:102AB00049680D60817A581803EB810390F8300063
:102AC000596B02EBC002F0BC53681960704700BF3D
:102AD00001401F00011000380110007800001F8025
:102AE000083C000043680CCB11680B43136070472F
:102AF00090F8392090F83800101A704790F8383064
:102B000090F839209A4205D95A1C034480F838209D
:102B1000187E70474FF0FF30704700BF90F8383094
:102B200090F839209A4286BF1B18187E4FF0FF306C
:102B3000704700BF704700BF38B50546B0F85E006B
:102B400090B195F85D301446C3F1210294420CD83F
:102B500005F13B0018442246FDF7CEFF95F85D30A5
:102B6000234485F85D30204638BD01201446287185
:102B7000EEE700BFB0F85E306BB190F85D30202B0F
:102B800007D8C218013380F85D30012082F83B106D
:102B90007047012303710020704700BF0023426982
:102BA00080F8383080F8393080F85C3080F85D305B
:102BB00080F85E3080F85F3006CA30B40D68046972
:102BC00043662A4383660A60A370426990F86130C5
:102BD0001649146813441D7A5B7B01EBC5051B0283
:102BE0006D6803F4E06343F064032B6090F8623097
:102BF00013449D7CDB7D01EBC5011B02496803F496
:102C0000E06343F064030B6021685368194205D008
:102C1000036928225A70036903229A7103692022EA
:102C20005A71036980229A7030BC7047083C0000DA
:102C300010B50269D378DBB2D90604463DD5102120
:102C40005806D17038D503F0040303F0FF02002BBF
:102C500051D03D49626E00230B7084F85D30002A2C
:102C60005BD0904794F85D30002B56D02369D0227A
:102C70009A70236994F83B201A712369012284F821
:102C80005C200222DA7010BD304B84F860009C4258
:102C90004AD02F4B9C4252D094F8391013791F29F7
:102CA000DBB207D82848007820B16018013184F8D9
:102CB000391003760223D37010BD5906C3D491781E
:102CC00001F0100101F0FF000029DDD013F0010335
:102CD0001ED194F85C1094F85D00884281BF4B1CB3
:102CE000091984F85C3091F83B3013712369D022C4
:102CF0009A702269DEE7236984F83920C0229A702D
:102D00002369114A1979012111700222DA7010BD6C
:102D1000C023937022691379CCE70122002384F841
:102D20005D2084F83B30A1E7626994F8613009497D
:102D300013440322187AFEF745F82269ACE762696A
:102D400094F861300449F3E7F195FF1FD489FF1F20
:102D5000408AFF1FB92D0000C52D00000369DB78F4
:102D600003F0200373B190F860300133DBB2012B24
:102D700080F860301AD9426990F861301344187AAB
:102D8000FEF79CB870B5426903F0FF0590F861301A
:102D900013440446187AFEF791F8A36E5BB184F8E9
:102DA000385094F83900BDE87040184790F85F300B
:102DB000002BE0D0704770BD0148FFF7CFBF00BFC8
:102DC000D489FF1F0148FFF7C9BF00BF408AFF1F1A
:102DD0002DE9F047364FDFF8DC903B68026982B09E
:102DE00006460093DDF8008000217825D3789B0605
:102DF0005AD53B680193019BC8EB03030F2BF5D910
:102E000049B1102BF2D000209070336980229A7063
:102E100002B0BDE8F087726996F86130134405216D
:102E2000187AFEF7A7F8726996F861301344012109
:102E300093F812A05046FEF79DF809240021504651
:102E4000FEF792F82B46013BFDD101215046FEF7DB
:102E50008BF82B46013BFDD1013CEFD1706996F810
:102E600061100144F0220C7A4B7B09EBC4011B0278
:102E7000496803F4E06343F064030B6096F8623042
:102E80000344997CDB7D09EBC1011B02496803F413
:102E9000E06343F064030B60013AFDD13269D378FB
:102EA0009B064FF00101A4D4012002B0BDE8F087D9
:102EB0004893FF1F083C0000F0B503691222DA7046
:102EC0000269937803F0200385B004460D46002B79
:102ED0005ED0B42393703C4922690B680093009E36
:102EE00005E00B680193019B9B1B042B42D8D37810
:102EF00003F0200303F0FF00002BF2D094F85D30C4
:102F0000002B31D04FF0000E4FF0020C04EB0E03FB
:102F100093F83B3013710B680393039F206907E01C
:102F20009B060DD50B680293029BDB1B052B28D853
:102F3000C378DBB203F0020202F0FF06002AEFD0F2
:102F400080F803C02669F378DBB2DF0632462DD461
:102F50009F062BD5DB0731D40EF1010E94F85D30BE
:102F60005FFA8EFE7345D1D800201DBB002384F884
:102F70005E3004E09070236980229A70042005B0CE
:102F8000F0BD86702369802204209A7005B0F0BDE0
:102F900003F0FF06FFF71CFF10B9042005B0F0BDD9
:102FA000236984F85F60B0229A7094E78023B3703D
:102FB0000420DAE726698023B370D7E7BEF1000F5B
:102FC0000CBF02200320F6E74893FF1F2DE9F041D4
:102FD00006690025122780F8385080F83950F770BC
:102FE000D0F810C09CF802E00EF0200E88B0044625
:102FF000884615461E46BEF1000F49D0B4238CF812
:103000000230784B21691A680092DDF800E006E092
:103010001A6801920198CEEB0000042830D8C878D5
:1030200000F0200000F0FF070028F1D04FEA48022E
:1030300042F00102D2B20A711A680292DDF808E089
:10304000206906E01A6803920399CEEB0101052975
:103050002AD8C17801F0020101F0FF070029F1D060
:103060004FF0020C80F803C02269D17811F01107EB
:1030700022D12DBB002E0CBFA0238023937003E030
:103080008F70236980229A70384608B0BDE8F081BD
:103090000EF0FF07FFF79CFE0028F5D0236984F8A7
:1030A0005F70B0229A70ACE787702369802238463F
:1030B0009A7008B0BDE8F081802393700027E3E7A1
:1030C000012D75D0A021917021690A79BE4667460D
:1030D0004FF0A80C1A680492049805E01A6805924B
:1030E000059A121A052A4AD8CA7802F0020202F09A
:1030F000FF08002AF2D0CF702169CA78D2B212F04C
:10310000100F08465AD1920658D5013DEDB2012D57
:1031100049D0BEF11F0F3BD90A79012DDAD11A68C7
:103120000692069D05E01A680792079A521B052A27
:1031300046D8C27802F0020202F0FF01002AF2D063
:103140000223C3702269D378DBB2D9063AD49B0636
:1031500034D5B023BEF11F0F93703FD8226904EB22
:103160000E0312791A760EF1010E5FFA8EFE16B179
:10317000236980229A7084F839E0774684E781F8E1
:103180000280236980229A70774684F839E07BE7D1
:1031900004EB0E0291F8048082F818800EF1010E03
:1031A0005FFA8EFEB9E781F802C021690846B0E7F0
:1031B000A82191702069BE460279B0E7774663E79F
:1031C0008170DEE710217823D170013BFDD12269A7
:1031D000937803F0F7037746937055E723691B79DB
:1031E000C5E700BF4893FF1F0148FFF721BD00BF9F
:1031F000D489FF1F0148FFF71BBD00BF408AFF1F96
:10320000014B1868704700BFD88EFF1F70B50F4E76
:103210000F4D761BB61018BF002405D0013455F8A9
:10322000043B9847A642F9D10A4E0B4D761B00F09D
:1032300023FEB61018BF002406D0013455F8043B15
:103240009847A642F9D170BD70BD00BF843E000012
:10325000843E0000903E0000843E0000024B014688
:10326000186800F003B800BFD88EFF1F2DE9F04F9B
:1032700001F10B05162D83B0064640F29F8035F014
:10328000070500F1BF80A94200F2BC8000F0A6FA59
:10329000B5F5FC7FC0F09C826B0A00F0BA80042B6D
:1032A00000F28381A80900F1390E4FEA4E0338304D
:1032B000C44F07EB8303A3F108015C68A14207D167
:1032C000ACE0002A80F2AC80E468A14200F0A68065
:1032D000636823F003035A1B0F2AF2DDB9493C69E6
:1032E00001F1080E744500F0B381636823F0030315
:1032F0005A1B0F2A00F39981002AC1F814E0C1F883
:1033000010E080F29E80B3F5007F80F06781DB08DB
:1033100003F1010C01229B1002FA03F34A6851F8F1
:103320003C80C4F8088001EBCC091A43A9F10803DA
:10333000E3604A6041F83C40C8F80C408310012427
:103340009C40944200F28A80144206D120F003008F
:103350006400144200F10400FAD007EBC009CC4627
:103360008046DCF80C108C4507D173E1002A80F20E
:103370008181C9688C4500F06D814B6823F003039F
:103380005A1B0F2AF2DD0C46D1F80CC054F8088FF6
:103390004B1945F001054D6042F00101C8F80CC021
:1033A0003046CCF808807B613B61C3F80CE0C3F881
:1033B00008E059609A5000F013FA1FE0102921D854
:1033C00000F00CFA1025062302207E4F07EB830342
:1033D000A3F108025C68944200F045816368E168EB
:1033E000A56823F00303234430465A68E96042F09D
:1033F00001028D605A6000F0F3F90834204603B0F2
:10340000BDE8F08F00240C232046336003B0BDE8F4
:10341000F08F80234FF0400E3F2049E770465DE774
:103420002344E1685A68A56842F00102E960304629
:103430008D605A6000F0D4F90834204603B0BDE82E
:10344000F08F234430465A6842F001025A6000F07F
:10345000C7F90834204603B0BDE8F08FBC68636844
:1034600023F00308A84504D3C5EB08030F2B00F392
:103470008C80554BDFF860911A68D9F80030013321
:103480002A4404EB080A00F0608102F580520F32F2
:1034900022F47F6222F00F0211463046019200F0C2
:1034A000A1F9B0F1FF3F8346019A00F058818245AF
:1034B00000F2FC80454B1968DA451144196000F0B0
:1034C0005381D9F80000DFF810E101301BBFCAEBCF
:1034D0000B0A5144CEF800B019601BF0070100F050
:1034E0001781C1F10800C1F58051834408315A4465
:1034F000C2F30B02C2EB010949463046019300F0CA
:1035000071F9431C019B00F03F81CBEB00024A4460
:1035100042F001021968C7F808B04944BC42CBF830
:1035200004201960DFF8A49016D0B8F10F0F40F214
:10353000FD806268A8F10C0323F00703E01802F095
:1035400001024FF0050E1A430F2B6260C0F804E031
:10355000C0F808E000F21C811D4BBC681A6891425B
:1035600088BF19601B4B1A689142626888BF196056
:1035700022F003029542A2EB050301D80F2B04DCD5
:10358000304600F02DF9002438E7621943F00103BA
:1035900045F0010565603046BA60536000F020F9DF
:1035A0000834204603B0BDE8F08F142B71D9542B9A
:1035B00000F2A480280B00F16F0E4FEA4E036E302C
:1035C00076E600BFDC8EFF1FFC95FF1F0096FF1FF5
:1035D000F895FF1FF495FF1FE892FF1F5A0A042A6F
:1035E0005ED9142A00F2B38002F15C0149005B321B
:1035F00007EB810C57F82110DFF8DC81ACF1080CE7
:103600008C4500F088804A6822F00302934202D27F
:1036100089688C45F7D1D1F80CC07A68C4F80CC021
:10362000A160CCF80840CC6088E6631942F001073D
:1036300045F00105656030464B610B61C3F80CE055
:10364000C3F808E05F609A50083400F0C9F8D5E686
:103650004A6873E608F1010818F0030F0CF1080C32
:103660007FF47FAE30E0DC68A34208BF02303FF455
:1036700035AEB3E60B440C465A68C96854F8085F87
:1036800042F001025A603046E9608D6000F0A8F80F
:10369000B4E603F15C0E03F15B004FEA4E0307E66C
:1036A0009A0902F1390149003832A1E7BC424A4B7C
:1036B0003FF400AF9C68626822F003025AE759F8B1
:1036C0000839994540F0828010F0030F00F1FF3077
:1036D000F5D17B6823EA04037B6064009C423FF6DB
:1036E000BDAE002C3FF4BAAE1C4240467FF435AE6E
:1036F00064001C4200F10400FAD02EE6B3F5AA7F64
:1037000018D8E80B00F1780E4FEA4E037730CFE57A
:103710004FF48051EBE60121D8F80430921001FA01
:1037200002F21A43C8F80420614677E70123CBF878
:10373000043025E740F25452934220D8A80C00F1FF
:103740007D0E4FEA4E037C30B2E51032A4E6542AD7
:1037500026D81A0B02F16F0149006E3248E7BC68A7
:10376000626822F0030205E7CAF30B0000287FF429
:10377000A8AE4244BB6842F001025A60ECE6FE2368
:103780004FF07F0E7E2093E501224FF00009C1E645
:1037900004F10801304600F0A9F8D9F80010DBE682
:1037A000B2F5AA7F05D8DA0B02F178014900773229
:1037B0001EE740F254518A4205D89A0C02F17D016D
:1037C00049007C3214E7FE217E2211E77B6884E702
:1037D000E808431C5B00F8E5DC8EFF1F704700BF64
:1037E000704700BF38B5074C0023054608462360E4
:1037F000FDF74CFA431C00D038BD2368002BFBD0EA
:103800002B6038BD3C96FF1F024B13B1024800F0FD
:1038100005B8704700000000293800000023014669
:103820001A46184600F04AB938B5074D074C2C1B0C
:10383000A41005D0013C55F8043D9847002CF9D15F
:10384000BDE8384000F024BB00000000000000008C
:10385000F8B5234F0C460646FFF7C0FFBB685D680E
:1038600025F00305291B01F6EF7121F47F6121F09A
:103870000F01A1F58054B4F5805F07DB00213046CD
:10388000FFF7B0FFBB682B44984204D03046FFF7E7
:10389000A7FF0020F8BD61423046FFF7A3FF0130CB
:1038A0000DD0104BBA6819682D1B45F00105304644
:1038B000091B55601960FFF793FF0120F8BD002137
:1038C0003046FFF78FFFBA68831A0F2BDEDD064CF8
:1038D0000449246843F00103001B53600860D5E7E6
:1038E000DC8EFF1F0096FF1FE892FF1F002945D0C6
:1038F0002DE9F0410D468046FFF770FF55F8047C36
:103900006A4927F00103A5F10804E2188E6850689F
:10391000B24220F0030062D0FE0750600BD455F88D
:10392000087CE41B01F1080EA56875453B446FD087
:10393000E768EF60BD6015186D68ED0742D543F08C
:1039400001026260E350B3F5007F18D2DB085A1C15
:103950004D6851F83270A76001209B1000FA03F304
:1039600001EBC2001D430838E0604D6041F8324071
:10397000FC604046BDE8F041FFF732BF70475A0A8D
:10398000042A53D89A0902F139077F0002F1380559
:1039900001EB870051F827204449083890424DD068
:1039A000516821F003018B4202D292689042F7D114
:1039B000D068E060A2608460D4604046BDE8F04119
:1039C000FFF70EBF95683A4FBD4203443FD0D06821
:1039D000E86043F0010285606260E350B3E7FF07EF
:1039E000034407D455F8082CA41A1344A068E268CD
:1039F000C26090602F4A126843F0010093426060F9
:103A00008C60B6D32C4B40461968FFF721FFB0E716
:103A100011184968C90744D49168D268CA60034440
:103A200043F0010091606060E350A2E7142A17D8C8
:103A300002F15C077F0002F15B05A9E7AA104B6861
:103A4000012505FA02F213434B600246B1E743F049
:103A500001024C610C61E560A5606260E35088E79B
:103A6000542A06D81A0B02F16F077F0002F16E0587
:103A70008EE7B2F5AA7F06D8DA0B02F178077F004D
:103A800002F1770584E740F25450824206D89A0C3E
:103A900002F17D077F0002F17C0579E7FE277E2594
:103AA00076E743F001026260E35062E7DC8EFF1FBD
:103AB000E48EFF1FE492FF1FFC95FF1F2DE9F047E6
:103AC000254C2568D5F848410646884692469946D1
:103AD000C4B360681F2817DC431C76B104EB800573
:103AE0000122C5F888A0D4F8881182401143022E23
:103AF000C4F88811C5F808911ED00230636044F8FC
:103B000020800020BDE8F087144B03B34FF4C87049
:103B1000FFF7A4FB0446D0B1D5F84831002780E870
:103B20008800C5F8484138460123C4F88871C4F8B4
:103B30008C71002EE1D0D1E7D4F88C110A43C4F87F
:103B40008C21DAE705F5A674C5F84841C1E74FF0C6
:103B5000FF30BDE8F08700BF743E00005D3200001A
:103B6000537061726B46756E204144584C33343546
:103B700020416363656C65726F6D65746572204882
:103B80006F6F6B20557020477569646520457861BB
:103B90006D706C65000000002A2A2A2046524545B7
:103BA0002046414C4C202A2A2A0000002A2A2A209A
:103BB000494E4143544956495459202A2A2A000063
:103BC0002A2A2A204143544956495459202A2A2A4C
:103BD000000000002A2A2A20444F55424C45205418
:103BE0004150202A2A2A00002A2A2A205441502003
:103BF0002A2A2A0001000000020000000000000044
:103C000003FFFFFF0D0AFFFF4008FE4340A00440F2
:103C10004408FE4344A004400018FE4300C0044092
:103C20003000FE43309004403400FE4334900440A2
:103C30001C18FE431CC004401018FE4310C0044072
:103C40000818FE4308C004400C18FE430CC0044092
:103C50000C10FE430CB004401010FE4310B00440A2
:103C60001810FE4318B004401C10FE431CB0044062
:103C70001410FE4314B004400418FE4304C0044072
:103C80000010FE4300B004400008FE4300A00440C2
:103C90000408FE4304A004400C08FE430CA00440AA
:103CA0000808FE4308A004401418FE4314C0044052
:103CB0001818FE4318C004400410FE4304B004402A
:103CC0000810FE4308B004401400FE431490044062
:103CD0004C08FE434CA004400420FE4304D00440A2
:103CE0002410FE4324B004402010FE4320B00440C2
:103CF0002810FE4328B004402C10FE432CB0044092
:103D00000020FE4300D004404808FE4348A0044081
:103D10001000FE431090044000000000000000006E
:103D20007D1E0000751E0000711E00006D1E00004B
:103D3000691E0000651E0000611E00005D1E00007F
:103D40000015191500010000F888FF1F120000007F
:103D5000000200002489FF1F430000000003000050
:103D60008089FF1F00000000010309040C89FF1F68
:103D700000000000020309046889FF1F0000000022
:103D8000030309048489FF1F0000000000000000F5
:103D900000000000000000003C8004400010000013
:103DA000041A0000FF7F00001110000035290000F8
:103DB0000C08000000020000000200000B070000D9
:103DC00040020000000200000D0E00004002000052
:103DD000000200000A020906141715160F00000061
:103DE00000020000000200000002000000020000CB
:103DF00000020000000200000002000000020000BB
:103E00000002000001010202040408081000000082
:103E100034800440400000001211FFFFFF02020046
:103E200000001310FFFFFF02020000001800000056
:103E300034800440800000001EFFFFFFFF020000EE
:103E400000001DFFFFFFFF0200000000190000003E
:103E50000000000000000000752B0000392B00005E
:103E6000350A0000352B0000F12A0000FD2A000071
:103E70001D2B0000B08AFF1FF8B500BFF8BC08BCBE
:103E80009E467047093800003504000069050000AF
:043E9000F8B500BFC2
:103E940038B5084B1C681C6054B1074D94FAA4F360
:103EA400B3FA83F355F823309847631E1C40F5D1C9
:103EB40038BD00BFA0D00440D888FF1F38B5084BD8
:103EC4001C681C6054B1074D94FAA4F3B3FA83F34D
:103ED40055F823309847631E1C40F5D138BD00BF08
:103EE400A0C00440B888FF1F38B5084B1C681C608C
:103EF40054B1074D94FAA4F3B3FA83F355F823307D
:103F04009847631E1C40F5D138BD00BFA0B00440E3
:103F14008888FF1F38B5084B1C681C6054B1074DD6
:103F240094FAA4F3B3FA83F355F823309847631E45
:103F34001C40F5D138BD00BFA0A004403888FF1F45
:103F440038B5084B1C681C6054B1074D94FAA4F3AF
:103F5400B3FA83F355F823309847631E1C40F5D118
:103F640038BD00BFA09004400088FF1F4096FF1F8B
:103F7400050D0000050D0000050D0000050D0000F5
:103F8400050D0000050D0000050D0000050D0000E5
:103F9400050D0000050D0000050D0000050D0000D5
:103FA400050D0000050D0000050D0000050D0000C5
:103FB400050D0000050D0000050D0000050D0000B5
:103FC400050D0000050D0000050D0000050D0000A5
:103FD400050D0000050D0000050D0000050D000095
:103FE400050D0000050D0000050D0000050D000085
:103FF400050D0000050D0000050D0000050D000075
:10400400050D0000050D0000050D0000050D000064
:10401400050D0000050D0000050D0000050D000054
:10402400050D0000050D0000050D0000050D000044
:10403400050D0000050D0000050D0000050D000034
:10404400050D0000050D0000050D0000050D000024
:10405400203D000000000000E80300000000000014
:10406400FFFFFFFF0A0400001201100102000040DC
:10407400C0168304750201020301000018035400F2
:10408400650065006E0073007900640075006900C6
:104094006E006F0009024300020100C032090400EF
:1040A40000010202010005240010010524010101A0
:1040B40004240206052406000107058203100040BB
:1040C40009040100020A0000000705030240000081
:1040D4000705840240000000160355005300420007
:1040E4002000530065007200690061006C0000004C
:1040F400040309040C030000000000000000000099
:1041040000000000000000000000000000C00240A9
:10411400983D0000000000000000000000000000C6
:10412400000000000000000000000000000000008B
:10413400000000000000000000000000000000007B
:1041440000000000583E000000000000E8030000EA
:104154000000000000600640103E00000000000067
:10416400000000000000000000000000000000004B
:10417400000000000000000000000000000000003B
:10418400000000000000000000000000000000002B
:10419400000000000000000000000000000000001B
:1041A400000000000000000000000000000000000B
:1041B400583E000000000000E8030000000000007A
:1041C40000700640303E00000000000000000000C7
:1041D40000000000000000000000000000000000DB
:1041E40000000000000000000000000000000000CB
:1041F40000000000000000000000000000000000BB
:1042040000000000000000000000000000000000AA
:10421400000000000000000000000000000000009A
:10422400000000009C8DFF1F048EFF1F6C8EFF1F7B
:10423400000000000000000000000000000000007A
:10424400000000000000000000000000000000006A
:10425400000000000000000000000000000000005A
:10426400000000000000000000000000000000004A
:10427400000000000000000000000000000000003A
:10428400000000000000000000000000000000002A
:10429400000000000000000000000000000000001A
:1042A400000000000000000000000000000000000A
:1042B40000000000000000000000000000000000FA
:1042C40000000000000000000100000000000000E9
:1042D4000E33CDAB34126DE6ECDE05000B000000AE
:1042E40000000000000000000000000000000000CA
:1042F40000000000000000000000000000000000BA
:1043040000000000000000000000000000000000A9
:104314000000000000000000000000000000000099
:104644000000000000000000B08AFF1F000000000E
:1046540000000000DC8EFF1FDC8EFF1FE48EFF1FB6
:10466400E48EFF1FEC8EFF1FEC8EFF1FF48EFF1FE6
:10467400F48EFF1FFC8EFF1FFC8EFF1F048FFF1F95
:10468400048FFF1F0C8FFF1F0C8FFF1F148FFF1F42
:10469400148FFF1F1C8FFF1F1C8FFF1F248FFF1FF2
:1046A400248FFF1F2C8FFF1F2C8FFF1F348FFF1FA2
:1046B400348FFF1F3C8FFF1F3C8FFF1F448FFF1F52
:1046C400448FFF1F4C8FFF1F4C8FFF1F548FFF1F02
:1046D400548FFF1F5C8FFF1F5C8FFF1F648FFF1FB2
:1046E400648FFF1F6C8FFF1F6C8FFF1F748FFF1F62
:1046F400748FFF1F7C8FFF1F7C8FFF1F848FFF1F12
:10470400848FFF1F8C8FFF1F8C8FFF1F948FFF1FC1
:10471400948FFF1F9C8FFF1F9C8FFF1FA48FFF1F71
:10472400A48FFF1FAC8FFF1FAC8FFF1FB48FFF1F21
:10473400B48FFF1FBC8FFF1FBC8FFF1FC48FFF1FD1
:10474400C48FFF1FCC8FFF1FCC8FFF1FD48FFF1F81
:10475400D48FFF1FDC8FFF1FDC8FFF1FE48FFF1F31
:10476400E48FFF1FEC8FFF1FEC8FFF1FF48FFF1FE1
:10477400F48FFF1FFC8FFF1FFC8FFF1F0490FF1F90
:104784000490FF1F0C90FF1F0C90FF1F1490FF1F3D
:104794001490FF1F1C90FF1F1C90FF1F2490FF1FED
:1047A4002490FF1F2C90FF1F2C90FF1F3490FF1F9D
:1047B4003490FF1F3C90FF1F3C90FF1F4490FF1F4D
:1047C4004490FF1F4C90FF1F4C90FF1F5490FF1FFD
:1047D4005490FF1F5C90FF1F5C90FF1F6490FF1FAD
:1047E4006490FF1F6C90FF1F6C90FF1F7490FF1F5D
:1047F4007490FF1F7C90FF1F7C90FF1F8490FF1F0D
:104804008490FF1F8C90FF1F8C90FF1F9490FF1FBC
:104814009490FF1F9C90FF1F9C90FF1FA490FF1F6C
:10482400A490FF1FAC90FF1FAC90FF1FB490FF1F1C
:10483400B490FF1FBC90FF1FBC90FF1FC490FF1FCC
:10484400C490FF1FCC90FF1FCC90FF1FD490FF1F7C
:10485400D490FF1FDC90FF1FDC90FF1FE490FF1F2C
:10486400E490FF1FEC90FF1FEC90FF1FF490FF1FDC
:10487400F490FF1FFC90FF1FFC90FF1F0491FF1F8B
:104884000491FF1F0C91FF1F0C91FF1F1491FF1F38
:104894001491FF1F1C91FF1F1C91FF1F2491FF1FE8
:1048A4002491FF1F2C91FF1F2C91FF1F3491FF1F98
:1048B4003491FF1F3C91FF1F3C91FF1F4491FF1F48
:1048C4004491FF1F4C91FF1F4C91FF1F5491FF1FF8
:1048D4005491FF1F5C91FF1F5C91FF1F6491FF1FA8
:1048E4006491FF1F6C91FF1F6C91FF1F7491FF1F58
:1048F4007491FF1F7C91FF1F7C91FF1F8491FF1F08
:104904008491FF1F8C91FF1F8C91FF1F9491FF1FB7
:104914009491FF1F9C91FF1F9C91FF1FA491FF1F67
:10492400A491FF1FAC91FF1FAC91FF1FB491FF1F17
:10493400B491FF1FBC91FF1FBC91FF1FC491FF1FC7
:10494400C491FF1FCC91FF1FCC91FF1FD491FF1F77
:10495400D491FF1FDC91FF1FDC91FF1FE491FF1F27
:10496400E491FF1FEC91FF1FEC91FF1FF491FF1FD7
:10497400F491FF1FFC91FF1FFC91FF1F0492FF1F86
:104984000492FF1F0C92FF1F0C92FF1F1492FF1F33
:104994001492FF1F1C92FF1F1C92FF1F2492FF1FE3
:1049A4002492FF1F2C92FF1F2C92FF1F3492FF1F93
:1049B4003492FF1F3C92FF1F3C92FF1F4492FF1F43
:1049C4004492FF1F4C92FF1F4C92FF1F5492FF1FF3
:1049D4005492FF1F5C92FF1F5C92FF1F6492FF1FA3
:1049E4006492FF1F6C92FF1F6C92FF1F7492FF1F53
:1049F4007492FF1F7C92FF1F7C92FF1F8492FF1F03
:104A04008492FF1F8C92FF1F8C92FF1F9492FF1FB2
:104A14009492FF1F9C92FF1F9C92FF1FA492FF1F62
:104A2400A492FF1FAC92FF1FAC92FF1FB492FF1F12
:104A3400B492FF1FBC92FF1FBC92FF1FC492FF1FC2
:104A4400C492FF1FCC92FF1FCC92FF1FD492FF1F72
:0C4A5400D492FF1F00000200FFFFFFFFD4
:00000001FF
