:1000000000800020BD010000E52E00009D2E0000B4
:100010009D2E00009D2E00009D2E00009D2E0000B4
:100020009D2E00009D2E00009D2E0000E52E00005C
:10003000E52E00009D2E0000394600003D470000DF
:10004000E52E0000E52E0000E52E0000E52E000064
:10005000E52E0000E52E0000E52E0000E52E000054
:10006000E52E0000E52E0000E52E0000E52E000044
:10007000E52E0000E52E0000E52E0000E52E000034
:10008000E52E0000E52E0000E52E0000E52E000024
:10009000E52E0000E52E0000E52E0000E52E000014
:1000A000F913000005140000E52E0000E52E000005
:1000B000E52E0000E52E0000E52E0000E52E0000F4
:1000C000E52E0000E52E0000E52E0000E52E0000E4
:1000D000E52E0000E52E0000E52E0000E52E0000D4
:1000E000E52E0000E52E0000E52E0000E52E0000C4
:1000F000E52E000059480000E52E0000854900006B
:10010000E52E0000B14A0000E52E0000E52E0000BB
:10011000E52E0000E52E0000E52E0000E52E000093
:10012000E52E0000E52E0000E52E0000E52E000083
:10013000E52E0000E52E0000E52E0000E52E000073
:10014000E52E0000E52E0000E52E0000E52E000063
:10015000E52E0000E52E0000E52E0000E52E000053
:10016000E52E00008D350000E52E0000E52E000094
:10017000E52E0000E52E0000E52E0000E52E000033
:10018000E52E0000E52E0000E52E0000E52E000023
:10019000E52E0000E52E0000E52E0000E52E000013
:1001A000E52E0000E52E0000E52E0000E52E000003
:1001B000E52E0000E52E0000E52E0000564B4CF227
:1001C000205210B51A804DF628121A8000BF00BFC9
:1001D00002F08CFE514B4FF010621A60504A9A6048
:1001E000504ADA60504A136813F4807304D14F49BF
:1001F0000B604FF4A85313604D4B1A78110703D5C9
:100200001A7842F008021A704A4B4B492A221A7097
:100210004A4A4B4B8B4204D252F8040F43F8040B6A
:10022000F8E7484B484900228B4202D243F8042B9E
:10023000FAE74649464A002352F8230041F82300D2
:1002400001336F2BF8D1434B434A802103F8011B44
:100250009342FBD1414B3D4A1A60414B8A221A70AE
:10026000A3F5805324225A70A0221A709A7992071B
:10027000FCD59A79D406FCD43A4A937903F00C035E
:10028000082B384BF9D105221A7143225A719A79F9
:100290009006FCD5334A9179324B4906FBD5324A58
:1002A0004FF0817111600521516020221A709A79F6
:1002B00002F00C020C2AFAD12C4B2D4A1A602D4B5D
:1002C0002D4A1A6000225A60072243F8042C2B4A58
:1002D000C3F80C2D62B603F00FF8144B1B68DA0755
:1002E00005D5274802F068FF264B274A1A60274B9E
:1002F0001B785B0609D5234C234B22689A4204D114
:100300001F4802F059FF0023236006F045FD02F06C
:10031000F3FD02F021FDFEE70E2005403080044091
:10032000823F04000100002B10D0034014D0034092
:1003300002D0074000E00740CC92FF1F1080000071
:100340002087FF1FCC92FF1FD896FF1F0082FF1F40
:100350000000000000E400E05FE400E008ED00E0E1
:1003600000500640004006404480044004800440A1
:10037000C010050014E000E03F190100000020203B
:10038000CA09B05D1CE00340A5C3945A00F00740C1
:10039000FFFFFFFFFFFFFFFFFFFFFFFFFFFFFFFF6D
:1003A000FFFFFFFFFFFFFFFFFFFFFFFFFFFFFFFF5D
:1003B000FFFFFFFFFFFFFFFFFFFFFFFFFFFFFFFF4D
:1003C000FFFFFFFFFFFFFFFFFFFFFFFFFFFFFFFF3D
:1003D000FFFFFFFFFFFFFFFFFFFFFFFFFFFFFFFF2D
:1003E000FFFFFFFFFFFFFFFFFFFFFFFFFFFFFFFF1D
:1003F000FFFFFFFFFFFFFFFFFFFFFFFFFFFFFFFF0D
:10040000FFFFFFFFFFFFFFFFFFFFFFFFDEF9FFFF23
:1004100010B5054C237833B9044B13B10448AFF33E
:1004200000800123237010BDCC92FF1F000000004C
:1004300014800000084B10B51BB108490848AFF301
:1004400000800848036803B910BD074B002BFBD0A0
:10045000BDE81040184700BF00000000D092FF1F09
:1004600014800000CC92FF1F0000000038B5044645
:1004700008460D4606F0A4FF2368024629465B683D
:10048000204698470546204602F03CFB284438BDEC
:1004900070B5CC48CC4DCD4C82B000F06BFCCC4A52
:1004A000CC491378002BFCD00B78DB07F9D52B68EF
:1004B00020681B1A0E2BF4D9C74EC84D3078C84C93
:1004C000002102F09FFE3078002102F087FE28789C
:1004D000012102F097FE2878012102F07FFE7522AB
:1004E0006821204601F086F90F210546BD4803F03A
:1004F000E3FE002310222946BB4802F013FB0F2124
:10050000BA4803F0D9FE002310227121B64802F048
:1005100009FBB54802F0F6FA712D40F0DB81142199
:10052000B34803F0C9FEB04802F0ECFA04F1D00180
:10053000204601F0C9FD2D21AE4803F0BDFED4F8E0
:10054000D00005F0DBFD012502460B460095A648CC
:1005500002F02AFB1221A84803F0AEFEA24802F0E6
:10056000D1FA2D21A54803F0A7FED4F8D40005F058
:10057000C5FD009502460B469B4802F015FB122173
:100580009D4803F099FE984802F0BCFA2D219C4842
:1005900003F092FED4F8D80005F0B0FD00950246B5
:1005A0000B46914802F000FB1221934803F084FEB1
:1005B0008D4802F0A7FA2921924803F07DFED4F875
:1005C000DC0005F09BFD009502460B46864802F0D4
:1005D000EBFA1221884803F06FFE834802F092FA8A
:1005E0002921894803F068FED4F8E00005F086FD73
:1005F000009502460B467C4802F0D6FA12217E484E
:1006000003F05AFE784802F07DFA29217F4803F072
:1006100053FED4F8E40005F071FD00950B46024648
:10062000714802F0C1FA1221734803F045FE6E488A
:1006300002F068FA04F1AC0204F1A001204601F0D6
:1006400037FB204601F0EAF82C21714803F034FE14
:10065000654802F057FA00220C21204601F0CAF842
:10066000072105466B4803F027FE07216A4803F07F
:1006700023FE0023102229465B4802F053FA0F2183
:100680005A4803F019FE002310224821564802F070
:1006900049FA554802F036FA482D40F0298104F114
:1006A0008801204601F09CFA2B215C4803F004FEEF
:1006B0004D4802F027FA2C21594803F0FDFDD4F8EB
:1006C000880005F01BFD022502460B4600954648B2
:1006D00002F06AFA444802F015FA2C21514803F05E
:1006E000EBFDD4F88C0005F009FD009502460B46A1
:1006F0003D4802F059FA3C4802F004FA2C214A48DD
:1007000003F0DAFDD4F8900005F0F8FC00950246FD
:100710000B46354802F048FA334802F0F3F9204618
:1007200000F0EAFE204600F0CBFE204600F0B8FEC6
:1007300016213E4803F0C0FD2B4802F0E3F9D4F83F
:10074000B80005F0DBFC009502460B46264802F097
:100750002BFA254802F0D6F9D4F8BC0005F0CEFCFF
:10076000009502460B46204802F01EFA1E4802F091
:10077000C9F9D4F8C00005F0C1FC009502460B464B
:10078000194802F011FA184802F0BCF9152128485E
:1007900003F092FD144802F0B5F9D4F8C40005F056
:1007A000ADFC009502460B460F4802F0FDF90E48DD
:1007B00002F0A8F9D4F8C80005F0A0FC00950246A4
:1007C0000B4637E00488FF1FE093FF1FD096FF1F02
:1007D000C494FF1FDC94FF1F0088FF1FFC87FF1FCE
:1007E000E892FF1F347B0000D089FF1F6C79000066
:1007F000F47700000C7800003C780000507800008E
:1008000080780000B0780000DC78000008790000F3
:1008100034790000647900003C7B00009C79000082
:10082000C8790000F8790000287A0000587A0000A2
:10083000707A0000324802F0B7F9314802F062F9EC
:10084000D4F8CC0005F05AFC009502460B462C4823
:1008500002F0AAF92A4802F055F90D21294803F0BF
:100860002BFD274802F04EF92421274803F024FDF0
:10087000D4F8880005F042FC009502460B4620485B
:1008800002F092F91E4802F03DF924211F4803F0BE
:1008900013FDD4F88C0005F031FC009502460B46A0
:1008A000174802F081F9164802F02CF92421184863
:1008B00003F002FDD4F8900005F020FC00950246FC
:1008C0000B460F4802F070F90D4802B0BDE87040C9
:1008D00002F018B920220F49094803F037FC2946D5
:1008E00000231022064802F01DF9054802F00AF91B
:1008F00009490348FFF7BAFD03F092FD02F014FB2B
:10090000D089FF1F887A0000987A0000C07A000022
:10091000E87A0000107B00007C7900002DE9F047A8
:100920008F4C88B03A222046682100F063FFC3074D
:1009300000F146818A4D8B4E284600F0F5FD206F70
:10094000894906F05DF8A16BE26FD4F880308246E9
:10095000D4F8840004900591A06F83490392029318
:1009600006F04EF80190606F7F49D4F86C90D4F88F
:10097000688006F045F8676E009053464A46414647
:10098000384601F0D1FD33680693069B226B9B1A13
:10099000B3F5FA7FE36240F2E0801021734803F080
:1009A0008BFC686E724906F02BF805F0A7FB022459
:1009B00002460B4600946F4802F0F6F804216E4898
:1009C00003F07AFC10216D4803F076FCA86E6849AC
:1009D00006F016F805F092FB009402460B466548B7
:1009E00002F0E2F80421644803F066FC1021644838
:1009F00003F062FCE86E5E4906F002F805F07EFB4B
:100A0000009402460B465B4802F0CEF804215A4897
:100A100003F052FC574802F075F80D21594803F0D5
:100A20004BFC286F05F06AFB032702460B46009734
:100A3000504802F0B9F80D21534803F03DFC0D2158
:100A4000524803F039FC686F05F058FB00970246E6
:100A50000B46484802F0A8F80D214B4803F02CFC47
:100A60000D214B4803F028FCA86F05F047FB0097C9
:100A700002460B463F4802F097F80C21454803F028
:100A80001BFC3C4802F03EF80D21434803F014FCE7
:100A9000E86F05F033FB009402460B46354802F040
:100AA00083F804213D4803F007FC0D213C4803F086
:100AB00003FCD5F8800005F021FB009402460B46AC
:100AC0002C4802F071F80421344803F0F5FB0D21A5
:100AD000344803F0F1FBD5F8840005F00FFB0094D7
:100AE00002460B46234802F05FF839462E4803F0D1
:100AF000E3FB204802F006F8284601F05DF828855F
:100B000005F02AFF294906F02FF8294905F070FE63
:100B10000F216862274803F0CFFB686A05F0EEFA00
:100B2000012402460B460094124802F03DF80A21C7
:100B3000214803F0C1FB0F4801F0E4FF1F4A33686E
:100B400014780793079B2B63204602F04DFBB0FA05
:100B500080F14909204602F041FB08B0BDE8F0876A
:100B6000E892FF1FE093FF1F35FA8E3C447B0000A4
:100B700000007A44D089FF1F587B0000607B000092
:100B8000747B0000887B0000987B0000A87B00003D
:100B9000B87B0000C87B0000D87B0000E87B000029
:100BA000F07B0000007C0000107C00005CEFA6439E
:100BB0000000A841147C0000247C0000FC87FF1F7B
:100BC00004F1E801204600F083FFA56DB4F9E800C8
:100BD00005F0C2FE294605F013FF6066B4F9EA008D
:100BE00005F0BAFE294605F00BFFA066B4F9EC004B
:100BF00005F0B2FE294605F003FF04F14C01E06662
:100C0000204600F087FFE56DB4F94C0005F0A4FE26
:100C1000294605F0F5FE2067B4F94E0005F09CFE6C
:100C2000294605F0EDFE6067B4F9500005F094FE2A
:100C3000294605F0E5FE04F15201A067204600F0C8
:100C40008BFF256EB4F9520005F086FE294605F0AB
:100C5000D7FED4F8881005F0D3FED4F8B81005F00C
:100C6000C5FDE067B4F9540005F076FE294605F0AD
:100C7000C7FED4F88C1005F0C3FED4F8BC1005F004
:100C8000B5FDC4F88000B4F9560005F065FE2946AC
:100C900005F0B6FED4F8901005F0B2FED4F8C010FE
:100CA00005F0A4FDC4F8840044E600BF024B034AEB
:100CB0000348682100F0ACBB801A06000488FF1FBF
:100CC000E892FF1F0020704790F8392090F8380014
:100CD000101A704790F8383090F839209A4205D9A8
:100CE0005A1C034480F83820187E70474FF0FF30BC
:100CF000704700BF90F8383090F839209A4286BF8C
:100D00001B18187E4FF0FF30704700BF704700BFC0
:100D100038B50546B0F85E0090B195F85D301446E0
:100D2000C3F1210294420CD805F13B00184422463D
:100D300002F01AF895F85D30234485F85D302046BE
:100D400038BD012014462871EEE700BFB0F85E30D0
:100D50006BB190F85D30202B07D8C218013380F8B2
:100D60005D30012082F83B107047012303710020A1
:100D7000704700BF0023426980F8383080F839306E
:100D800080F85C3080F85D3080F85E3080F85F304D
:100D900006CA30B40D68046943662A4383660A6054
:100DA000A370426990F861301649146813441D7AA3
:100DB0005B7B01EBC5051B026D6803F4E06343F048
:100DC00064032B6090F8623013449D7CDB7D01EB63
:100DD000C5011B02496803F4E06343F064030B6040
:100DE00021685368194205D0036928225A700369A3
:100DF00003229A71036920225A71036980229A7032
:100E000030BC7047B47D000043690CCB12681A42B5
:100E10000CD0094B99420AD9084B9942036994BFF7
:100E200019220A225A70036903229A7170470369D2
:100E300028225A70F7E700BF7F1A06003F420F00D2
:100E400010B50269D378DBB2D90604463DD510212E
:100E50005806D17038D503F0040303F0FF02002BCD
:100E600051D03D49626E00230B7084F85D30002A3A
:100E70005BD0904794F85D30002B56D02369D02288
:100E80009A70236994F83B201A712369012284F82F
:100E90005C200222DA7010BD304B84F860009C4266
:100EA0004AD02F4B9C4252D094F8391013791F2905
:100EB000DBB207D82848007820B16018013184F8E7
:100EC000391003760223D37010BD5906C3D491782C
:100ED00001F0100101F0FF000029DDD013F0010343
:100EE0001ED194F85C1094F85D00884281BF4B1CC1
:100EF000091984F85C3091F83B3013712369D022D2
:100F00009A702269DEE7236984F83920C0229A703A
:100F10002369114A1979012111700222DA7010BD7A
:100F2000C023937022691379CCE70122002384F84F
:100F30005D2084F83B30A1E7626994F8613009498B
:100F400013440322187A02F077F82269ACE7626949
:100F500094F861300449F3E7D893FF1F0488FF1F1A
:100F60007088FF1FC90F0000D50F00000369DB78F0
:100F700003F0200373B190F860300133DBB2012B32
:100F800080F860301AD9426990F861301344187AB9
:100F900002F0CEB870B5426903F0FF0590F86130F9
:100FA00013440446187A02F0C3F8A36E5BB184F8C8
:100FB000385094F83900BDE87040184790F85F3019
:100FC000002BE0D0704770BD0148FFF7CFBF00BFD6
:100FD0000488FF1F0148FFF7C9BF00BF7088FF1FCB
:100FE0002DE9F047364FDFF8DC903B68026982B0AC
:100FF00006460093DDF8008000217825D3789B0613
:101000005AD53B680193019BC8EB03030F2BF5D91D
:1010100049B1102BF2D000209070336980229A7071
:1010200002B0BDE8F087726996F86130134405217B
:10103000187A02F0E7F8726996F8613013440121DA
:1010400093F812A0504602F0DDF809240021504622
:1010500002F0C4F82B46013BFDD10121504602F0BD
:10106000BDF82B46013BFDD1013CEFD1706996F8EC
:1010700061100144F0220C7A4B7B09EBC4011B0286
:10108000496803F4E06343F064030B6096F8623050
:101090000344997CDB7D09EBC1011B02496803F421
:1010A000E06343F064030B60013AFDD13269D37809
:1010B0009B064FF00101A4D4012002B0BDE8F087E7
:1010C000E093FF1FB47D0000F0B503691222DA70CF
:1010D0000269937803F0200385B004460D46002B87
:1010E0005ED0B42393703C4922690B680093009E44
:1010F00005E00B680193019B9B1B042B42D8D3781E
:1011000003F0200303F0FF00002BF2D094F85D30D1
:10111000002B31D04FF0000E4FF0020C04EB0E0309
:1011200093F83B3013710B680393039F206907E02A
:101130009B060DD50B680293029BDB1B052B28D861
:10114000C378DBB203F0020202F0FF06002AEFD000
:1011500080F803C02669F378DBB2DF0632462DD46F
:101160009F062BD5DB0731D40EF1010E94F85D30CC
:101170005FFA8EFE7345D1D800201DBB002384F892
:101180005E3004E09070236980229A70042005B0DC
:10119000F0BD86702369802204209A7005B0F0BDEE
:1011A00003F0FF06FFF71CFF10B9042005B0F0BDE7
:1011B000236984F85F60B0229A7094E78023B3704B
:1011C0000420DAE726698023B370D7E7BEF1000F69
:1011D0000CBF02200320F6E7E093FF1F2DE9F0414A
:1011E00006690025122780F8385080F83950F770CA
:1011F000D0F810C09CF802E00EF0200E88B0044633
:10120000884615461E46BEF1000F49D0B4238CF81F
:101210000230784B21691A680092DDF800E006E0A0
:101220001A6801920198CEEB0000042830D8C878E3
:1012300000F0200000F0FF070028F1D04FEA48023C
:1012400042F00102D2B20A711A680292DDF808E097
:10125000206906E01A6803920399CEEB0101052983
:101260002AD8C17801F0020101F0FF070029F1D06E
:101270004FF0020C80F803C02269D17811F01107F9
:1012800022D12DBB002E0CBFA0238023937003E03E
:101290008F70236980229A70384608B0BDE8F081CB
:1012A0000EF0FF07FFF79CFE0028F5D0236984F8B5
:1012B0005F70B0229A70ACE787702369802238464D
:1012C0009A7008B0BDE8F081802393700027E3E7AF
:1012D000012D75D0A021917021690A79BE4667461B
:1012E0004FF0A80C1A680492049805E01A68059259
:1012F000059A121A052A4AD8CA7802F0020202F0A8
:10130000FF08002AF2D0CF702169CA78D2B212F059
:10131000100F08465AD1920658D5013DEDB2012D65
:1013200049D0BEF11F0F3BD90A79012DDAD11A68D5
:101330000692069D05E01A680792079A521B052A35
:1013400046D8C27802F0020202F0FF01002AF2D071
:101350000223C3702269D378DBB2D9063AD49B0644
:1013600034D5B023BEF11F0F93703FD8226904EB30
:101370000E0312791A760EF1010E5FFA8EFE16B187
:10138000236980229A7084F839E0774684E781F8EF
:101390000280236980229A70774684F839E07BE7DF
:1013A00004EB0E0291F8048082F818800EF1010E11
:1013B0005FFA8EFEB9E781F802C021690846B0E7FE
:1013C000A82191702069BE460279B0E7774663E7AD
:1013D0008170DEE710217823D170013BFDD12269B5
:1013E000937803F0F7037746937055E723691B79E9
:1013F000C5E700BFE093FF1F0148FFF721BD00BF15
:101400000488FF1F0148FFF71BBD00BF7088FF1F46
:10141000F8B504460171002500264FF0010EFF21AA
:1014200002270260104684F816E0E7752675667597
:10143000E6622663666326646664A664A563E56364
:10144000C4F88850C4F88C50C4F89050C4F8945034
:10145000C4F89850C4F89C50C4F8A050C4F8A450E4
:10146000C4F8A850C4F8AC50C4F8B050C4F8B45094
:10147000C4F8B850C4F8BC50C4F8C050C4F8C45044
:10148000C4F8C850C4F8CC5023612173A660FFF79C
:1014900071FC20682169FFF7B7FC2046F8BD00BF4A
:1014A000837D2BB1012B02D1034B0366704770473C
:1014B000024B0366704700BFFFEBBF3FFFEBBF402F
:1014C000037D032B05D8DFE803F00B080502064B6C
:1014D000C3657047054BC3657047054BC3657047CF
:1014E000044BC365704700BF00007A3D0000FA3C22
:1014F00000007A3C0000FA3B437D032B06D8DFE86E
:1015000003F00E0A06024FF06853836570474FF0F0
:101510006653836570474FF06453836570474FF09F
:1015200062538365704700BF38B5044601F070FE12
:101530000546206CA564281A05F00AFA064905F04C
:1015400013FB25640146A063E06B05F051F9636B62
:10155000E0630133636338BD00247449F8B5D0F803
:1015600010C03E4FDFF81CE10E4615460446826867
:10157000002102E0172808D0014637F8023F9EFB01
:10158000F3F39C4501F10100F4D3354BD07A53F8C5
:10159000211021F47043090943F0785301F470617C
:1015A0000B43B0B172B6D17ACF0706D52D48D168BA
:1015B0000768394091610160D17A880706D52A48C9
:1015C000116907683940D1610160D17A4F073DD474
:1015D00062B61268D168994207D024481060244945
:1015E000D36043F08040106111600021207B01F046
:1015F000F5FDA3681B684FF00042DA625E63D96AAA
:101600000029FCDA4FF00042996BDA625D63DA6A16
:10161000002AFCDA207B9D6B012101F0DFFDA2682E
:10162000D37AEDB283B1D80703D5124B9169196013
:10163000D37A990703D5104BD1691960D37A5B0728
:1016400002D50E4B126A1A602846F8BD0C48516943
:101650000768394011620160BAE700BF427F0000AD
:10166000747F000080E100E084E100E001403F0081
:1016700000003F8000E100E004E100E008E100E05C
:1016800088E100E00051250210B58C22044631218A
:10169000FFF764FF204600223421FFF75FFF20465A
:1016A00080222421BDE81040FFF758BFF8B504465A
:1016B0000D460068216917461E46FFF7A5FB206806
:1016C0006900012580F83B1080F85E5080F85D507D
:1016D0002068036839461B689847206802683146CD
:1016E0001368984729462068FFF7EEFC0020F8BDF4
:1016F00070B490F90C40013405D0154629461A46BD
:1017000070BCFFF72BBF70BCFFF7D0BF70B50546AC
:101710000C46FFF7B9FF8C2231212846FFF71EFF48
:10172000224632212846FFF719FFC02234212846DD
:10173000FFF714FFFF222846B621FFF70FFF4206EE
:101740000CD40F4E0124FF22B6212846FFF706FFD6
:1017500043060AD542F210739C4209D82846FF225C
:10176000B521BDE87040FFF7F9BE0134B442EAD1BB
:101770000921044802F0A0FD034801F0C3F9EDE798
:10178000A1860100947C0000D089FF1F036870B51A
:1017900001250E46490083F83B1083F85E5083F81C
:1017A0005D5004460068036811461B689847002195
:1017B0002068FFF789FC2B462A4631462068FFF750
:1017C0000DFD20680A4A03685B6993420BD190F8CB
:1017D000383090F839209A4208D95A19034480F8D1
:1017E0003820187E70BD9847C0B270BDFF2070BD14
:1017F000D50C000090F90C3001330CD00C2930B41A
:1018000005D042F0800130BCFF22FFF7A7BE114691
:1018100030BCFFF77BBFFFF7B9BF00BF10B5002397
:10182000044601796B22FFF763FF642001F014FD89
:10183000217901236B222046FFF75AFFC82001F0CF
:101840000BFD217903231A222046FFF751FF0423C1
:10185000217919222046FFF74BFF21791B222046D0
:10186000FFF7C8FF237D217920F01A0040EAC30367
:1018700003F0FD031B222046FFF73AFF21791C22CB
:101880002046FFF7B7FF637D217920F0180040EA7A
:10189000C303DBB21C222046FFF72AFF21791D2259
:1018A0002046FFF7A7FF00F0F00343F00303217980
:1018B0001D222046FFF71CFF2179222337222046D4
:1018C000FFF716FF0123217938222046FFF710FF8A
:1018D000642001F0C1FC94F90C30013304D020469F
:1018E000BDE81040FFF7D0BE10BD00BF2DE9F047A6
:1018F00089460168089F274D04464FF001084FEACA
:10190000490081F85E8081F85D8081F83B002068A5
:10191000066811463268204E9A469047002120689A
:10192000FFF7D2FB4346524649462068FFF756FC74
:101930004FF00008206803681B69AB425FFA88F922
:101940001CD190F8393090F83800181AC8B12068C6
:1019500003685B69B34217D190F8383090F83920AA
:101960009A4203F1010E00EB030110D980F838E030
:10197000087E07F8090008F10108DBE7984700280E
:10198000E5D14846BDE8F0879847C0B2F1E7FF20AF
:10199000EFE700BFC90C0000D50C0000F8B50F46FA
:1019A00081680546C87A16461C46E0B172B6CB7A05
:1019B000D80706D5334ACB68106803408B611360A3
:1019C000CB7A9A0706D5304A0B6910680340CB6181
:1019D0001360CB7A5B0705D52C4A4B69106803402E
:1019E0000B62136062B60B68294AD968914206D02F
:1019F0002849196028482949DA60186119600021CE
:101A0000287B01F0EBFBAA68116847F080074FF0D4
:101A10000043CB624F63CB6A002BFCDA8B6BA6B121
:101A2000721E54FA82F2601E4FF000470024CF620B
:101A30004C63CB6A002BFCDA8B6B00F8013F8242CF
:101A400002D0AB681968F2E7AA68D37A83B1D807E5
:101A500003D5134B91691960D37A990703D5114BBC
:101A6000D1691960D37A5B0702D50F4B126A1A60ED
:101A7000287B012101F0B2FB4FF49663013BFDD1BD
:101A80003046F8BD80E100E084E100E088E100E05C
:101A90000302023E01403F000302027E00003F803D
:101AA00000E100E004E100E008E100E0F0B490F9BA
:101AB0000C40049D013407D016461F463A462B467B
:101AC0003146F0BCFFF76ABFF0BCFFF70FBF00BFA5
:101AD00070B584B0037902AA0C46009219463B22E5
:101AE0000623FFF7E3FF9DF808609DF809109DF8B5
:101AF0000A509DF80B209DF80C009DF80D3041EA2E
:101B0000062142EA052243EA002321806280A38065
:101B100004B070BD70B584B0037902AA0C4600927F
:101B2000194643220623FFF7C1FF9DF808609DF880
:101B300009109DF80A509DF80B209DF80C009DF8A7
:101B40000D3041EA062142EA052243EA00232180C2
:101B50006280A38004B070BD70B5022284B00C46D0
:101B60000C210546FFF746FEC20701D404B070BD44
:101B700002AB00932846072303220C21FFF796FFB0
:101B80009DF80E301B07F1D49DF809609DF80810F0
:101B90009DF80B509DF80A209DF80D009DF80C3023
:101BA00041EA062142EA052243EA002321806280BD
:101BB000A38004B070BD00BF00B585B003AB017950
:101BC000009341220223FFF771FF9DF80C009DF85E
:101BD0000D3043EA002000B205B05DF804FB00BF01
:101BE00030B5002385B00D460A220C210446FFF7CC
:101BF0007FFD0A2001F030FB0F230A220C21204632
:101C0000FFF776FD0A2001F027FB03AB10220C2121
:101C1000009320460323FFF749FF9DF80C0080380E
:101C200004F09AFE4FF06E5104F0EAFE4FF07E5140
:101C300004F0DEFD9DF80D302860A3F1800004F073
:101C40008BFE4FF06E5104F0DBFE4FF07E5104F03E
:101C5000CFFD9DF80E306860A3F1800004F07CFE9B
:101C60004FF06E5104F0CCFE4FF07E5104F0C0FDF9
:101C700000230A220C21A8602046FFF739FD0A2024
:101C800001F0EAFAA27DE37D43EA0213DBB20A2205
:101C90000C212046FFF72CFD0A2001F0DDFA94F913
:101CA0000C30013302D02046FFF7EEFC05B030BD0A
:101CB0002DE9F04F91B004468023069107920179F7
:101CC0006B22FFF715FD642001F0C6FA217901238C
:101CD0006B222046FFF70CFD217900236C22204661
:101CE000FFF706FDC82001F0B7FA2179002338225A
:101CF0002046FFF7FDFC2179002323222046FFF731
:101D0000F7FC217900236B222046FFF7F1FC2179B3
:101D1000002324222046FFF7EBFC217900236A22CE
:101D20002046FFF7E5FC21790C236A222046FFF7C5
:101D3000DFFC0F2001F090FA217901231A222046BE
:101D4000FFF7D6FC2179002319222046FFF7D0FCAB
:101D5000217900231B222046FFF7CAFC21790023AA
:101D60001C222046FFF7C4FC217940236A2220462A
:101D7000FFF7BEFC2179782323222046FFF7B8FC29
:101D8000282001F069FA2179002323222046FFF759
:101D9000AFFC0AAB21790093722202232046FFF7A1
:101DA00085FE9DF828709DF82930C54A43EA07232F
:101DB000A2FB0337FB08059300F079810025A946B3
:101DC000A8462F460395AA4604950AAB21790093AD
:101DD00074220C232046FFF769FE9DF829109DF818
:101DE0002B209DF82D309DF828C09DF82AE09DF805
:101DF0002C009DF82EB0039E42EA0E2E41EA0C2CD8
:101E000043EA00209DF82F109DF831309DF83020D6
:101E100041EA0B2143EA02229DF832B09DF83330AB
:101E200006FA8CF643EA0B230135039607FA83F78B
:101E3000049E059B0AFA8EFA1FFA85FE06FA80F0C8
:101E40007345049009FA81F908FA82F8BDD8039B1A
:101E5000059A90FBF2F6002E19469AFBF2FA91FBD6
:101E6000F2F599FBF2F998FBF2F897FBF2F740F3E1
:101E70002481A6F58046B9F1000F4A46B8BF09F1A2
:101E8000030292105242B8F1000FC2F307238DF8FB
:101E900029204246B8BF08F10302002F38464FEA16
:101EA000A202B8BFF81C52428010111240424FEA01
:101EB000202E8DF82B208DF82A10132221798DF8F1
:101EC0002D0020468DF82CE08DF82830FFF710FC0F
:101ED0009DF82930217914222046FFF709FC9DF84E
:101EE0002A30217915222046FFF702FC9DF82B307D
:101EF000217916222046FFF7FBFB9DF82C30217933
:101F000017222046FFF7F4FB18229DF82D30217987
:101F10002046FFF7EDFB484604F01EFD694904F03A
:101F200023FE069B1860404604F016FD654904F048
:101F30001BFE069A5060384604F00EFD614904F01D
:101F400013FE069A0AAB9060217900937722022350
:101F50002046FFF7ABFDBDF8287021790AAB7FBAA8
:101F60000093BFB202237A2220460D97FFF79EFD11
:101F7000BDF8288021790AAB98FA98F800937D2261
:101F800002231FFA88F82046CDF83880FFF78EFD2F
:101F9000BDF828305BBA9AB2002339460F928DF80B
:101FA00024308DF825308DF826300120C90744BF34
:101FB00009A9C8540133032B03D00DA951F82310EC
:101FC000F4E7002D2B46B8BFEB1DBAF1000FA7EBCD
:101FD000E3075346B8BF0AF10703002E3046B8BFE7
:101FE000F01D9DF826E09DF82410A8EBE308A2EB75
:101FF000E0039DF825001A128DF82C204EEA030309
:1020000041EA070240EA0800C7F307278DF82D30A0
:102010008DF829203B4621798DF82B004FEA28289E
:10202000772220468DF828708DF82A80FFF760FB14
:102030009DF82930217978222046FFF759FB9DF839
:102040002A3021797A222046FFF752FB9DF82B3067
:1020500021797B222046FFF74BFB9DF82C3021791C
:102060007D222046FFF744FB9DF82D3021797E220A
:102070002046FFF73DFB284604F06EFC4FF062510E
:1020800004F0BEFC079C2060504604F065FC4FF055
:10209000625104F0B5FC6060304604F05DFC4FF026
:1020A000625104F0ADFCA06011B0BDE8F08F059D59
:1020B000AA462E46A946A8462F4606F58046DAE6E9
:1020C000ABAAAAAA000003432DE9F04F99B000265D
:1020D000044604AD039133460179AE80192204967B
:1020E000069609960C960F96079608960A960B96F2
:1020F0000D960E9610961196FFF7FAFA21790223A3
:102100001A222046FFF7F4FA334621791B22204693
:10211000FFF7EEFA217902231D222046FFF7E8FAA5
:102120003346217920461C22FFF7E2FAC823B04645
:10213000B3463746B246B14602932179009506234D
:102140003B222046FFF7B2FC9DF810C09DF812100C
:102150009DF814E09DF811009DF813209DF81530AE
:10216000009540EA0C2043EA0E2342EA012206FAD7
:1021700080F62179099607FA82F70AFA83FA432250
:10218000062320460A97CDF82CA0FFF78FFC9DF878
:1021900014009DF815309DF810C09DF811109DF8A1
:1021A00012E09DF8132043EA002308FA83F8029B0B
:1021B000CDF8208041EA0C2142EA0E2209FA81F989
:1021C0000BFA82FB013BCDF81890CDF81CB00293BE
:1021D000B3D1D3494F4681FB062081FB07E2FF17AD
:1021E000C7EBA217F61709AAC6EBA01642F82360A0
:1021F00006AA42F823700133032B06D009AA52F82D
:10220000236006AA52F82370E5E7E0231C22217917
:102210002046FFF76DFAE0231B2221792046FFF7C5
:1022200067FA19204FF0000801F016F8C823C346DA
:102230004746C246C1464646029321790095062389
:102240003B222046FFF732FC9DF810C09DF812108B
:102250009DF814E09DF811009DF813209DF81530AD
:10226000009540EA0C2043EA0E2342EA012206FAD6
:1022700080F621790C9607FA82F70AFA83FA43224C
:10228000062320460D97CDF838A0FFF70FFC9DF8E8
:1022900014009DF815309DF810C09DF811109DF8A0
:1022A00012E09DF8132043EA002308FA83F8029B0A
:1022B000CDF8448041EA0C2142EA0E2209FA81F964
:1022C0000BFA82FB013BCDF83C90CDF840B0029375
:1022D000B3D193494F4681FB062081FB0752FF177C
:1022E000C7EBA217F6170CAAC6EBA01642F823609C
:1022F0000FAA42F823700133032B06D00CAA52F820
:1023000023600FAA52F82370E5E7217900231C22ED
:102310002046FFF7EDF9002321791B222046FFF725
:10232000E7F9192000F098FF21790D222046FFF7E8
:1023300061FA217906460E222046FFF75BFA2179E1
:1023400081460F222046FFF755FA21798046002268
:102350002046FFF74FFA2179074601222046FFF772
:1023600049FA0222217905462046FFF743FA04463E
:10237000304604F0EDFA4FF07E5104F037FA03F0E6
:10238000BDFE02460B4662A1D1E9000102F03EFC0F
:1023900061A3D3E9002303F005FF04F0D3F9064657
:1023A0004846129604F0D4FA4FF07E5104F01EFA1B
:1023B00003F0A4FE02460B4655A1D1E9000102F04C
:1023C00025FC55A3D3E9002303F0ECFE04F0BAF991
:1023D0001390404604F0BCFA4FF07E5104F006FA28
:1023E00003F08CFE02460B4649A1D1E9000102F040
:1023F0000DFC49A3D3E9002303F0D4FE04F0A2F9B5
:102400001490384604F0A4FA4FF07E5104F0EEF92F
:1024100003F074FE02460B463DA1D1E9000102F033
:10242000F5FB3DA3D3E9002303F0BCFE04F08AF9D9
:1024300007462846159704F08BFA4FF07E5104F0BA
:10244000D5F903F05BFE02460B4631A1D1E900014C
:1024500002F0DCFB30A3D3E9002303F0A3FE04F079
:1024600071F91690204604F073FA4FF07E5104F093
:10247000BDF903F043FE02460B4625A1D1E9000158
:1024800002F0C4FB24A3D3E9002303F08BFE04F085
:1024900059F9039A1790151F02F108090DF1540814
:1024A00000240CAB53F8240009AB53F82430C01AB5
:1024B00004F052FA1B4904F0A3FA314604F054FB2D
:1024C000184904F093F90FAB45F8040F53F8242092
:1024D00006AB53F82430D01A04F03EFA114904F048
:1024E0008FFA394604F040FB0E4904F07FF90134BD
:1024F000032C49F8040F05D012AB58F8047F53F8A9
:102500002460CEE719B0BDE8F08F00BFAFF30080C4
:10251000000000C0F528F03F000000000078A44053
:102520001F85EB510000C8422DE9F04F99B00E46CF
:10253000014615460393814604F062FA3146074688
:10254000304604F05DFA29468046284604F058FAE1
:1025500041460446384604F04BF921460B4C04F042
:1025600047F923680293E368019303F0C7FDD4F8A9
:102570000480A76802F0C2FC04F0E4F8002182465F
:1025800004F0D2FB20B119B0BDE8F08FDC88FF1F4A
:102590002499084604F034FA25990590084604F079
:1025A0002FFA26990490084604F02AFA049A059B0B
:1025B00011468346184604F01BF9594604F018F9F1
:1025C00003F09CFD02F09AFC04F0BCF80021834665
:1025D00004F0AAFB0028D6D14146029804F010FA74
:1025E00039460690029804F00BFA01990790029878
:1025F00004F006FA41460890404604F001FA3946D4
:102600000990404604F0FCF901990A90404604F014
:10261000F7F939460C90384604F0F2F90199049024
:10262000384604F0EDF9019B0D901946184604F068
:10263000E7F9514605904FF07E5004F095FA824636
:102640000146484604F0DCF951460E90304604F04D
:10265000D7F951460F90284604F0D2F95946109008
:102660004FF07E5004F080FA05460146249804F0AD
:10267000C7F929460646259804F0C2F9294682463C
:10268000269804F0BDF9314683463046119604F091
:10269000AFF8049981464FF07C5004F0A7F80599F3
:1026A00004F0A4F8514605465046CDF848A004F081
:1026B0009FF8089906460A9804F098F8594614902D
:1026C000584604F095F80C998246079804F090F863
:1026D000294616904846179504F092F914991396D6
:1026E0000546304604F08CF90146284604F080F88F
:1026F0001699CDF854A00546504604F081F90146DC
:10270000284604F075F8099905464FF07C5004F00E
:102710006DF80A998246089804F06AF8494604F070
:102720006FF905990646504604F060F8139904F0D5
:1027300067F90146304604F05BF8069906460D98A5
:1027400004F054F8159904F05BF90146304604F0A2
:102750004FF829460646284604F052F93146054608
:10276000304604F04DF90146284604F041F803F0E4
:10277000C5FC02F0C3FB0B46024607990C98CDE955
:102780000A2304F033F80D990646069804F030F851
:1027900004990546504604F029F831460690304623
:1027A00004F026F829460790284604F021F8029AFA
:1027B00008901146104604F023F9099904F016F820
:1027C000049904F013F8059904F012F8DDE90A23DE
:1027D00004901946104603F0B5FF014604F008F8CE
:1027E00031468246484604F00BF929468146139843
:1027F00004F006F90146484603F0FAFF06998146BF
:10280000159804F0FDF80146484603F0F1FF014633
:1028100003F0EEFF51468146179804F0F1F849465F
:102820000590304604F0ECF8059B0146184603F08D
:10283000DFFF51460590149804F0E2F84946064639
:10284000284604F0DDF80146304603F0D1FF51463A
:102850000546169804F0D4F849460646069804F052
:10286000CFF80146304603F0C3FF049906460F989F
:1028700004F0C6F808998146109804F0C1F80146A2
:10288000484603F0B3FF31468146129804F0B8F889
:1028900029468246584604F0B3F80146504603F0F4
:1028A000A5FF0146484603F0A3FF914904F0A8F8AC
:1028B000039903F09DFF002103F09AFF07998146D9
:1028C000109804F09DF8049982460E9804F098F848
:1028D0000146504603F08AFF05998246584604F0A7
:1028E0008FF831468346119804F08AF8014658461D
:1028F00003F07CFF0146504603F07AFF7C4904F068
:102900007FF8229903F074FF002103F071FF08990A
:1029100082460E9804F074F8079906460F9804F062
:102920006FF80146304603F061FF294606461198CC
:1029300004F066F805990546129804F061F801461E
:10294000284603F053FF0146304603F051FF684923
:1029500004F056F8239903F04BFF002103F048FFE1
:102960004FF07C518346279804F04AF849460646C2
:1029700008F1004004F044F851460546384604F09A
:102980003FF80146284603F031FF594605460198B5
:1029900004F036F80146284603F028FF314604F0DB
:1029A0002FF8029903F024FF05460146484604F03B
:1029B00027F859460290384604F022F8029B014657
:1029C000184603F015FF51460290019804F018F8DC
:1029D000029B0146184603F009FF314604F010F847
:1029E000414603F005FF29460490504604F008F8DC
:1029F00059460290404604F003F8029B01461846EF
:102A000003F0F4FE49460290019803F0F9FF029B9F
:102A10000146184603F0ECFE314603F0F1FF39465B
:102A200003F0E6FE29460390584603F0E9FF5146BD
:102A30008346404603F0E4FF0146584603F0D8FEC3
:102A400049468046384603F0DBFF0146404603F026
:102A5000CDFE314603F0D4FF019903F0C9FE2946AB
:102A60000746284603F0CCFF049A0292114681469D
:102A7000104603F0C5FF039B019319468246184692
:102A800003F0BEFF39468046384603F0B9FF514691
:102A90000646484603F0ACFE414603F0A9FE314627
:102AA00003F0A6FE03F02AFB02F028FA03F04AFE28
:102AB00001464FF07E5004F057F80646014628467E
:102AC00003F09EFF029A20603146104603F098FF03
:102AD000019B60603146184603F092FF3146A060CA
:102AE000384603F08DFFE06019B0BDE8F08F00BFFD
:102AF00000002041014B024A1A607047DC93FF1F1F
:102B00000EC71A3F00B5064A036812885B6883B097
:102B100001A9ADF804200222984703B05DF804FB38
:102B2000A47D0000F0B507468BB0002A33D0012AFF
:102B300008BF0A2251B3212400E0F4B2B1FBF2F540
:102B400002FB1511C8B2092900F1300198BFC8B2C3
:102B50000AA988BF3730214488BFC0B201F8240CCD
:102B6000661E2946002DE8D133B1013CE4B20AAB20
:102B700023442D2203F8242C3B6801AA11195B6819
:102B80003846C4F1220298470BB0F0BD30228DF8D0
:102B900025202124E8E70368C9B21B6898470BB0D9
:102BA000F0BD00BFFFFFFFFF2DE9F04385B0804679
:102BB0001946104616461F469DF8305003F08CFD0E
:102BC000002840F0B18027F00044304621464FF005
:102BD000FF32594B03F080FD98B9304621464FF043
:102BE000FF32554B03F05AFD58B9D8F8003053491D
:102BF0005B684046032298478146484605B0BDE8D9
:102C0000F083304639464FF060424D4B03F05AFD99
:102C1000002870D1304639464FF06042494B03F0EE
:102C200033FD002867D1304639460022002303F0E7
:102C30002BFD002863D18146002D65D0424B002436
:102C40000022104619463AA3D3E9002303F0AAFA5A
:102C500001340B46E1B28D420246F2D83046394685
:102C600003F0EEF80F46064603F04CFD044603F071
:102C700023FA02460B463046394603F0DFF84B464E
:102C800006460F460A2221464046FFF74BFF0F2D0E
:102C900028BF0F2501352E238146EDB28DF8003077
:102CA00001240022294B3046394603F07BFA0F46B7
:102CB000064603F027FD04AB2344C0B200F1300206
:102CC00003F8102C03F008FA02460B46304639464A
:102CD00003F0B4F80134E4B2AC4206460F46E0D14A
:102CE000D8F8003022465B68404669469847484617
:102CF00005B0BDE8F083D8F80030154978E707F152
:102D000000474FF0010997E700220F4B3046394644
:102D100003F096F803F0F6FC4B4601460A224046C3
:102D2000FFF700FF814668E7D8F8003009495FE700
:102D3000000000A09999B93FFFFFEF7FB07D000030
:102D4000FFFFEF41FFFFEFC10000E03F0000244024
:102D5000AC7D0000A87D000008B5FDF799FBFDF7EC
:102D6000DDFD01F0ADFBFAE7844641EA000313F014
:102D700003036DD1403A41D351F8043B40F8043B82
:102D800051F8043B40F8043B51F8043B40F8043B45
:102D900051F8043B40F8043B51F8043B40F8043B35
:102DA00051F8043B40F8043B51F8043B40F8043B25
:102DB00051F8043B40F8043B51F8043B40F8043B15
:102DC00051F8043B40F8043B51F8043B40F8043B05
:102DD00051F8043B40F8043B51F8043B40F8043BF5
:102DE00051F8043B40F8043B51F8043B40F8043BE5
:102DF00051F8043B40F8043B403ABDD2303211D385
:102E000051F8043B40F8043B51F8043B40F8043BC4
:102E100051F8043B40F8043B51F8043B40F8043BB4
:102E2000103AEDD20C3205D351F8043B40F8043B84
:102E3000043AF9D2043208D0D2071CBF11F8013B82
:102E400000F8013B01D30B8803806046704700BF48
:102E5000082A13D38B078DD010F003038AD0C3F157
:102E60000403D21ADB071CBF11F8013B00F8013B39
:102E700080D331F8023B20F8023B7BE7043AD9D3F8
:102E8000013A11F8013B00F8013BF9D20B780370CD
:102E90004B7843708B7883706046704708B5104C50
:102EA00008E0236859050DD423681A050FD4236858
:102EB000DB0411D423685803F3D500F067FB2368C3
:102EC0005905F1D501F0C8FC23681A05EFD501F0CA
:102ED00059FD2368DB04EDD501F0EAFDEAE700BF08
:102EE0003480044008B5FFF7D9FF00BF014B102222
:102EF0001A80704700200540704700BF094908B597
:102F00000B6830B16A461844A2F58052904202D252
:102F10000860184608BD03F039FF0C2303604FF02A
:102F2000FF3008BDEC88FF1FFEE700BFF0B44D1E68
:102F30002E46002400E00134B0FBF2F302FB130044
:102F4000092800F130078ABF3730F8B2C0B206F85E
:102F5000010F1846002BEED10A1953704CB11078AE
:102F600015F8016F28700133E01A834202F80169F5
:102F7000F5DB0846F0BC7047704700BF10B40F4B3C
:102F800053F8302092F880422CB1012369B182F8C5
:102F9000803010BC704703EBC0035B681A6841B90E
:102FA00022F002021A6010BC704782F8003110BC97
:102FB000704742F003021A6010BC7047B47D0000F5
:102FC0001C4A02EBC00301295B6811D004291BD005
:102FD00052F83000002280F8802229B1022920D046
:102FE000032922D01A6070474FF480721A6070472C
:102FF00052F830004FF4A27280F880121A601A68FA
:1030000022F020021A60704752F830104FF4A2727A
:10301000012081F880021A601A6842F020021A60CA
:10302000704740F203121A6070474FF481721A60C1
:10303000704700BFB47D0000212848D8F8B5042AA5
:1030400044D8DFE802F0484B4E0345004FF4102609
:103050002B4B03EBC0030D465C68216811F4E06163
:1030600048D0284B284A2949C3F89C2104F1404202
:103070002748C3F8A411A2F59221264FC3F8A00156
:103080007C292548C3F8A871C3F8AC012CD9A2F556
:1030900094237C2B2AD9A2F596237C2B28D9A2F540
:1030A00098237C2B29D9A2F59A227C2A27D81B4861
:1030B00072B6236823F4702343F08072C4F3840152
:1030C0001643236040F82150266062B6F8BD704771
:1030D0004FF43026BCE74FF40026B9E74FF4402602
:1030E000B6E74FF42026B3E70D48E1E70D48DFE7E8
:1030F0000D48DDE7FFF764FFB3E70C48D8E7F8BDFC
:10310000B47D00000082FF1FD187FF1F7987FF1F5A
:10311000A587FF1F4D87FF1F2187FF1FC889FF1F3E
:10312000F088FF1F2889FF1F7889FF1FA889FF1FCC
:103130001A4B03EBC00010B4426802F14043A3F500
:1031400092217C2923D9A3F594217C290DD9A3F5BB
:1031500096217C291FD9A3F598217C2919D9A3F59B
:103160009A237C2B11D80E4C00E00E4C72B61368DB
:103170000D4823F08773C2F3840123F4803343F0B6
:103180008073136044F8210062B610BC7047074C8E
:10319000ECE7074CEAE7074CE8E700BFB47D000026
:1031A000C889FF1F2889FF1F792F0000F088FF1FA3
:1031B000A889FF1F7889FF1F30B4054B054D064CC9
:1031C000002210211A602A602060196030BC70470C
:1031D00014D0034004D0034000D00340212801D87C
:1031E000FFF7CCBE704700BF212806D8044B53F828
:1031F000303093F80002C0B270470020704700BF23
:10320000B47D0000212801D8FFF7DABE704700BF67
:1032100072B60D490D4B0E4A1B680868126862B6FB
:10322000520102D5322B88BF01300A49C3F58C33D5
:103230004FF47A7203F23F13A1FB031302FB00F079
:1032400000EB1310704700BFE093FF1F18E000E091
:1032500004ED00E0398EE3382DE9F843054672B6F7
:10326000214F224B224A1B683C68126862B6520109
:1032700002D5322B88BF0134A5B3C3F58C331D4E64
:10328000DFF86890DFF8688003F23F134FF47A723A
:10329000A6FB031302FB04F404EB131472B6D9F873
:1032A00000103A68D8F800E062B6C1F58C3303F23A
:1032B0003F13A6FB03031EF0806FC4EB13134FF400
:1032C0007A7002D0322988BF013200FB0233B3F595
:1032D0007A7F04D3013D05D004F57A74DEE701F06E
:1032E000EFF8DBE7BDE8F883E093FF1F18E000E0AC
:1032F00004ED00E0398EE338F8B52D4B2D49DFF8A9
:10330000D0E0DFF8D0C02C4E2C4D2D4C2D4A2E4F46
:103310004FF4000018604FF0807018604FF000709C
:1033200018604FF0806018604FF000601860002057
:103330000860282348F6FF71CCF80010CEF8003062
:10334000336013602B6023603B60B3629362092299
:1033500045F8242CC4F8D80F05F57F65C7F8D41FAD
:1033600007F5FF2707F5FA67C6F8F83F2B6006F563
:10337000FF26C4F8D42F05F5FD2504F5FF24386099
:1033800006F2F4761148316005F5FF6504F5FD6439
:103390002B602360026001F0DFF91920FFF75CFF6A
:1033A00000F05CFE40F21310BDE8F840FFF754BF98
:1033B00008E100E0048003401480034024800340BF
:1033C0002C8003401C8003403480034000800B406D
:1033D0000C80034008800340431E032B14D872B6B0
:1033E0000A4951F8230068B170B4094C058834F8D3
:1033F0001320466841F82360521B24F8132062B65C
:1034000070BC704762B67047002070473C94FF1F45
:10341000C096FF1F013803280BD872B6074B53F82C
:10342000203043B100205B680130002BFBD162B635
:103430007047002070471846F9E700BF9094FF1FBF
:1034400030B472B62B4A13781D0706D52A4B196A79
:10345000002936D0996A002941D053781C0706D537
:10346000254B196C00293ED0996C002939D09378EE
:10347000190705D5204B196E002936D0996E89B1F0
:10348000D3781B0707D51C4BD3F880207AB3D3F829
:10349000882011213AB162B6184B00221A7030BC54
:1034A00000F07EBE0D21154C154D227843F83150A9
:1034B00003EBC1030830013A5860227062B630BC99
:1034C000704704220D4C0F4D217843F8325003EB26
:1034D000C20308304A1E5860227062B6EFE7052129
:1034E000E1E70921DFE70822ECE70C22EAE71022F6
:1034F000E8E700BFEC7E00000080FF1FB994FF1FCB
:10350000C800400088004000431E032B1DD81B4A02
:10351000400140F0100030B4104472B6184CE25C28
:10352000032A1BD8DFE802F00212151703220D88C8
:10353000E25410F0080F14BFC823882343EA054360
:1035400008310360416062B630BC70470830022227
:10355000EDE70522EBE708300422E8E7094A52F8D4
:10356000230038B1084A52F82300416042F8231082
:1035700062B6E9E742F82310034AF7E70080FF1F2D
:10358000C894FF1F9094FF1FA094FF1F2DE9F04FD8
:10359000DFF80CB3DFF80CA387B044E0AB4F4FEA81
:1035A000930807EBC809013ED9F8042003F008038B
:1035B000F6B2A2F1080003F0FF04002B40F00281F4
:1035C00057F838301B0C99B222F8081C002B00F079
:1035D000F0809F4B22F8064C42F8044C53F826200A
:1035E000002A00F0C5829B4D55F8263058609A4C51
:1035F00045F8260034F81630194424F8161000F067
:10360000AFFD002800F0AD82944A954B19F0080FE9
:1036100000F1080018BF1346C9F8040047F8383015
:1036200008238BF800309BF80040E4B261071AD5FC
:103630008C4B1B78A3B18C490A7802F0FF0322B1AE
:10364000013BDBB20B7003B900BE88490A7802F077
:10365000FF032AB1013BDBB20B70002B00F0578255
:1036600004238BF8003004F0080303F0FF02002B62
:1036700000F0CC809AF80030DBB21E098ED19C0895
:10368000DFF8C89159F8342009EBC401C2F3830272
:10369000013A49680C2A00F28880DFE802F07C7C5D
:1036A0008686868686864786868607000868704DE9
:1036B0004A68704F704E286081B240F28160674B5B
:1036C0006A604FF0010E0022814249F834303A60BE
:1036D000C9F81020C9F8182086F800E05B4C00F209
:1036E000E380B1F5D06F80F04683B1F5817F00F0C3
:1036F000FC8200F28D82802900F07783822940F0DD
:10370000FA82A98801F07F01042900F2F4825B4863
:103710005B4C89000844227062700278930740F184
:10372000588484F800E04FF0020E42E3514F3A68AB
:1037300032B3544B504E5449188834780D78402891
:10374000864645F0020828BF4FF0400E002C84F05A
:1037500001043470CEEB00000CBF8824C82409EBB0
:10376000C80680B285F0010544EA0E4472601880F4
:1037700049F8384072440D70002800F045813A60E5
:103780003B4B1A88B2F5A06F0FD100219A7859707F
:103790003E4B1A7009E0364A108842F221029042EC
:1037A00000F037812D4A49F83420394A012313703B
:1037B00036E72A4A2A4B19F0080F18BF134647F874
:1037C00038302DE700F0ECFC324A334952F826300D
:1037D000002B00F0D18158688C5D42F8260003F17F
:1037E0000802C9F80420032C05D8DFE804F02C02F5
:1037F000292602228A551A8819F0080F0CBF88233F
:10380000C82343EA024347F8383009E7E00700F1EC
:103810008181210600F1F281A20706D51F4A2049C5
:1038200013780220DBB213700870E30602D51C4B3C
:1038300010221A7007B0BDE8F08F04228A55DAE72B
:1038400005228A55D7E703228A55D4E70080FF1F57
:103850003C94FF1FE893FF1FC096FF1FC800400065
:1038600088004000C494FF1F4D94FF1FCC94FF1F9D
:10387000B094FF1FE493FF1F4C94FF1FC02007402C
:10388000BC94FF1FF893FF1FB894FF1F98200740B8
:10389000942007409094FF1FC894FF1F8820074082
:1038A000802007409020074042F22100814200F032
:1038B0002A8100F2D880B1F5086F00F07682B1F568
:1038C000106F40F01882226AB349A8780870120677
:1038D00000F13A83D9F82820B049130600F10C838F
:1038E000D9F83020AD49150600F10183D9F8382008
:1038F000AA49140600F1F682D9F84020A74910061B
:1039000000F14A83D9F84820A449120600F13F8308
:10391000D9F85020A149130600F13483D9F8582072
:103920009E49150600F12983D9F860209B491406A9
:1039300000F11E83D9F868209849100600F113831E
:10394000D9F870209549120600F10883D9F878203B
:103950009249130600F1FD82D9F880208F4915069F
:1039600000F13183D9F888208C49140600F12583B1
:10397000D9F890208949100600F11983D9F89820C8
:103980008649120600F10D838548864A86490190D2
:103990008648874D874C04970023059602958046FC
:1039A0000F4616461D460394306828B1446800F05F
:1039B000F7FB2046002CF9D100233360029B3868C6
:1039C0001A46002342F8253028B1446800F0E8FB8D
:1039D0002046002CF9D100223A60019A98F8003074
:1039E0001146002241F8042B039A0191023B4FF04B
:1039F000000122F81510032B00F22B81DFE813F0F1
:103A00007001250170012501BEF1400F18BF002291
:103A1000B5E6694A0D784878157050708D78C87889
:103A20009570D07010680D79157186284D79897957
:103A30005571917100F09B816049614E0A78307830
:103A400082F00105002842F002020D700CBF8821AF
:103A5000C82149F8321009EBC20280F001000021B0
:103A6000307051609EE642F22120814240F0CB81CD
:103A7000544B554C5549A8781D682560CDF804E095
:103A80000870002002908046844604464B490D7819
:103A900045F0020E09EBCE030393019B002B039B21
:103AA0005C600CBF8824C82444EA080385F0010444
:103AB00049F83E3032700C70DFF8E0E0404BDFF840
:103AC000FC80002840F01E81BCF1400F1BD144F067
:103AD000020C09EBCC03029CDFF8C0E05C60002A1A
:103AE00040F02681020442F088029DF804304EF82E
:103AF0003C20044433700D702346402803D100203D
:103B0000334A3B601080334A012313704DE600F0C6
:103B1000B3FCA5E5214B2F4828491A614FF0020E4E
:103B200080F800E02C4F0A702C49196099602C4EE7
:103B30002C4D2D4C9A610D213970FF213170DFF829
:103B4000B8E029702270294D294A8EF800109F276D
:103B5000012406F8047C5D600470DA6007B0BDE8FB
:103B6000F08F244A47F8380013780133137057E573
:103B700043F826000E4D3AE58B5D032B00F2F080F2
:103B800001A252F823F000BF2136000021360000C8
:103B9000453C00003F3C0000C494FF1F0080FF1F15
:103BA000A094FF1F3C94FF1F9094FF1FC894FF1F19
:103BB000E893FF1FC096FF1FC896FF1FB894FF1F12
:103BC0004C94FF1FE093FF1FD096FF1FDC94FF1F54
:103BD000F893FF1F94200740C02007408800400052
:103BE000882007408020074098200740FC93FF1F53
:103BF0005094FF1FB994FF1F8C200740C149C24B4E
:103C000080220D2008701A70A2077FF50EAE05E61F
:103C100040F20232914240F0EE80A98801F07F012B
:103C2000042968D86A88002A65D1B648CDF804E02E
:103C300089000844017841F00201017021E7012365
:103C40008B55EDE400238B55EAE44FF0010388F82F
:103C500000300135042D06F1040607F1040708F1D0
:103C600001087FF4A1AEA94CA94B2278A94D049F6D
:103C7000059E002129701A70130700F105816278F2
:103C8000A549DFF8A0820A7010074FF00001C9F8BB
:103C90003010C9F8381000F1E080A049A2780A700D
:103CA0000021C9F85010C9F858101107DFF87482C4
:103CB00000F10181E2789A499A4C0A7000211207BA
:103CC000C9F87010C9F8781000F1B080337801930A
:103CD000002183F00102C9F89010C9F89810D0E6CD
:103CE0004FF0000388F80030B3E7A98801F07F01A6
:103CF000042940F28D80834A0F2313708A4A0123DE
:103D0000137052E540287FF6E2AE44F002040EEB59
:103D1000C401029E4E60BAB19DF80410834A197026
:103D20003346403888F8005040334EF83420E7E6F8
:103D30009DF8043033700204029B0D7042F0C802FB
:103D400003444EF83C20D8E69DF804101970029BFD
:103D5000774A88F80050403840334EF83420CFE698
:103D600019F0080F0CBF022303238B5558E4714A46
:103D70000F21117060E6704A5468002CBBD068882F
:103D8000B5F804E003E00C325468002CB3D013887B
:103D90008342F8D153887345F5D1000A03280CBF3C
:103DA00094F800E0B2F808E003E0644A644C12784A
:103DB0002270E888704580F03F8162490D78402884
:103DC000844645F0020E28BF4FF0400C04EB0C0374
:103DD00009EBCE02029301235460CCEB00004FEAC2
:103DE0000C4800220193C8245EE6554C4FF0020EA9
:103DF00022706270DDE7B1F5A06F7FF47CAF012324
:103E0000002201933DE642F221329142F7D072E75F
:103E10006A88002A7FF46FAF3A48CDF804E0890041
:103E20000844017821F0020101702AE600F098F9B7
:103E3000002800F0EF8008303D4AC4F88400C4F840
:103E4000802000F08DF9002800F0DE800830374A2D
:103E5000C9F88C00C9F8882038E700F081F90028FB
:103E600000F0C0800830324AC8F84400C8F840204A
:103E700000F076F9002800F0AF8008302B4AC9F82E
:103E80004C00C9F8482008E700F06AF9002800F063
:103E9000CD800830264AC9F82400C9F8202000F057
:103EA0005FF9002800F0BC800830204AC9F82C00D7
:103EB000C9F82820E3E600F053F9002800F09E80BE
:103EC00008301B4AC8F86400C8F8602000F048F9C0
:103ED000002800F08D800830144AC9F86C00C9F839
:103EE0006820E7E6C86B083800F05AF904E5486B2B
:103EF000083800F055F9F9E4C86A083800F050F9BC
:103F0000EEE400BFC020074080200740EC7E0000A8
:103F1000C4200740B994FF1FC8200740CC200740A9
:103F2000D02007400080FF1F94200740C8004000B9
:103F3000880040004D94FF1FF07E0000C494FF1FD6
:103F4000BC94FF1FB894FF1F606A083800F028F97E
:103F5000C0E4C86F083800F023F9FDE4486F083862
:103F600000F01EF9F2E4C86E083800F019F9E7E431
:103F7000486E083800F014F9DCE4C86D083800F029
:103F80000FF9D1E4486D083800F00AF9C6E4C86CAE
:103F9000083800F005F9BBE4486C083800F000F977
:103FA000B0E4D1F89C00083800F0FAF8ECE4D1F85D
:103FB0009400083800F0F4F8E0E4D1F88C000838F8
:103FC00000F0EEF8D4E4D1F88400083800F0E8F806
:103FD000C8E44FF0020EECE62A78C9F84800013236
:103FE0002A705AE62A78C8F8400001322A703FE762
:103FF0002A78C9F8680001322A705BE62A78C8F886
:10400000600001322A7061E72A78C9F8880001321D
:104010002A705BE62A78C4F8800001322A7010E723
:104020002A78C9F8280001322A7028E62A78C9F8C7
:10403000200001322A7032E7BEF1400FF44628BF5B
:104040004FF0400C04EB0C0302930123CCEB0E0069
:104050004FEA0C480022019318E500BFF8B500F0C4
:1040600093FD294B29482A4C2A4F2B4DDFF8BCC021
:10407000DFF8BCE0294E00221A605A609A60DA60CC
:104080001A615A619A61DA611A625A629A62DA6254
:104090001A635A639A63DA631A645A649A64DA6434
:1040A0001A655A659A65DA651A665A669A66DA6614
:1040B0001A675A679A67DA67C3F880200168C3F8FD
:1040C000842041F480210160C3F307212170C3F3F0
:1040D0000740134938701B0E2B70FF238CF80030FB
:1040E000104D8EF8003010480B700123337084F8A7
:1040F000642070264FF40074102207F82C3C2E70B8
:10410000046081F8F820F8BD0080FF1F348004406F
:104110009C200740B0200740B4200740942007406F
:104120001020074049E400E008E100E0802007405B
:104130008820074000F0A4B800F07CB800F056B822
:1041400000F090B800F06CB900F046B9084611468E
:1041500000F0B2B8084600F033B900BF704700BFA6
:1041600072B60D480268B2FA82F30B2B10DC4FF0E6
:104170000041D94022EA0102026062B6074803EB1F
:10418000C303DB00C2180021C150104651607047C4
:1041900062B60020704700BFE089FF1FBC83FF1F8D
:1041A0000D4B0E4AC31AA2FB03231B090B2B0CD881
:1041B0000B4A127852B972B60A484FF000410268B1
:1041C00021FA03F31A43026062B67047064A127876
:1041D000002AF0D0FFF734B9BC83FF1F398EE338D3
:1041E000B994FF1FE089FF1FC494FF1F38B50F4D1E
:1041F000286878B143880288C118013393420C7A49
:1042000002D24380204638BDFFF7CAFF0023204674
:104210002B6038BD064B1B782BB10320FFF7DCF871
:1042200028600028E6D14FF0FF3038BDD894FF1F3A
:10423000C494FF1F10B5094C206818B14388184476
:10424000007A10BD064B1B782BB10320FFF7C4F892
:1042500020600028F2D14FF0FF3010BDD894FF1F2E
:10426000C494FF1F044B054A1B6890881BB11A8831
:104270005B88D31A18447047D894FF1FC096FF1F5D
:104280000B4B1B789BB110B50A4C206848B1FFF767
:1042900087FF002303202360FFF79EF830B1FFF76C
:1042A0007FFF0320FFF798F80028F8D110BD704772
:1042B000C494FF1FD894FF1F2DE9F04FDFF8F8904A
:1042C00083B0012289F80020019169B3DFF8EC8006
:1042D000364F019E8346D8F80000B0B3344D448871
:1042E000C4F14001B14228BF314604EB010E002267
:1042F0001FFA8EFE2A70761AA0F802E000F108027A
:1043000051B1013C224459441BF8014B02F8014FC2
:104310008B45F9D1B0F802E0BEF13F0F0BD8254A2A
:1043200005211170002ED6D10198002389F80030A4
:1043300003B0BDE8F08F4022028001460420FFF761
:10434000E3F80022C8F80020E9E73A782AB3184DCC
:1043500048F601444FF0010A07E0013C16D02A78E4
:10436000A2B900F0ADF83A78BAB10420FFF752F8DC
:104370000728F2D889F800A0FFF7F2FEC8F800007D
:104380000028ACD10C4B013C1870E8D101234FF050
:10439000FF302B7003B0BDE8F08F00234FF0FF30EB
:1043A00089F8003003B0BDE8F08F00BFC494FF1F50
:1043B000D494FF1FCC94FF1FCD94FF1FD094FF1FF8
:1043C00000B583B002AB012103F8010D1846FFF7D9
:1043D00073FF03B05DF804FB38B50E4D0E4C286832
:1043E0000123237028B1408800232370C0F14000CE
:1043F00038BD0A4B1B7813B90020207038BD04204B
:10440000FFF708F80728F7D8FFF7AAFE286000286A
:10441000E9D1F1E7D094FF1FCD94FF1FC494FF1F93
:10442000F8B5114B1B788BB1104E114D3468012734
:104430002F7064B10F4A63880027177021462380CC
:104440000420FFF761F8376000232B70F8BDFFF7F9
:1044500087FE084B28B1014604201C70FFF754F872
:10446000F2E71F70F0E700BFC494FF1FD094FF1F56
:10447000CD94FF1FCC94FF1F38B50E4B1B7873B93A
:104480000D4C216861B103F0FF054B880B800420BF
:10449000FFF73AF8256038BD084B01221A7038BD85
:1044A000FFF75EFE0028F7D00146BDE83840042043
:1044B000FFF72AB8CD94FF1FD094FF1FCC94FF1FA5
:1044C00038B5224C237803B138BD01232370FFF7A0
:1044D000C9FE70BB00F0B0F940BB00F043FA10BB5E
:1044E00000F0D6FAE0B900232370EFF30583002B28
:1044F000EAD1EFF3108172B6154B1868E0B1154C94
:104500002278CAB945691D6001232370C5B1AA612B
:1045100001B962B600254577836898472570D3E7CF
:1045200000F018F9DFE700F013F9D9E700F00EF911
:10453000D3E7FFF713FECDE70029C5D162B638BD3A
:10454000054B1D600029E5D1E3E700BFDD94FF1FA7
:10455000F094FF1FF494FF1FEC94FF1F10B4EFF3CF
:10456000108272B6437F33B9017F012907D0032936
:104570000FD00123437702B962B610BC7047124CCA
:104580002168A1B1114943610B68836108605861DA
:10459000EFE70F4C216881B10E4943610B688361DD
:1045A000086058610C4B4FF080511960E1E7074BF0
:1045B0004161816120601860DBE7064B41618161E8
:1045C00020601860EEE700BFF094FF1FEC94FF1F1F
:1045D000E094FF1FE494FF1F04ED00E010B4047F9B
:1045E0004160022CC26002D010BCFFF7B7BF8368E5
:1045F00010BC184770B5EFF3108272B60C4C2068EF
:1046000080B10C4E00254369236073B19D6102B9EE
:1046100062B6457783689847EFF3108272B62068D8
:104620000028F0D102B962B670BD3360EFE700BF79
:10463000E094FF1FE494FF1FFFF7DCBF184A30B47B
:104640001468002C27D0036821688B420ED2CB1A45
:1046500000218460C1602360E06010600223037564
:1046600030BC704711688B42144608D3A2685B1AAD
:104670000360002AF6D18260C460A060EEE7D268D1
:10468000C2608460E060C568CB1A0222A860236023
:10469000027530BC70478460C4601060DEE700BF04
:1046A000E894FF1FF8B5224E34682CB32368002B22
:1046B0003AD1204F1D4604E03468ECB12368002B4A
:1046C00032D1A36803B1DD602069336003682575CA
:1046D0001B68BB4221D1037F4560022BC46020D000
:1046E000FFF73CFF6368002BE6D023602046FFF70E
:1046F000A5FF3468002CE1D1EFF3108372B60E4AA7
:1047000000211068116003B962B628B18468FFF710
:1047100095FF20460028F9D1F8BD22460021984790
:10472000E0E783689847DDE7013B2360E4E700BFEB
:10473000E894FF1FDD450000F894FF1F024A13684C
:1047400001331360FFF7AEBFE093FF1F704700BF58
:10475000704700BF704700BF30B42948294A2A4B30
:104760002A4D6024E121047011701B78284C082B1D
:1047700030D00A2B2748284937D00C2B0CBF1522E4
:104780003D2212232A60236002600B60234B2449E0
:104790001B78244ABBB101230B601360224B2349D1
:1047A0001B78234A012B26D9042B0FD9082B1ED99D
:1047B000102B94BF862387230B6013601D4B0122AF
:1047C0001A7030BC70470B601360E7E784230B60FE
:1047D0001360F3E700F58E200F4908300122132300
:1047E0002A60236002600B60D0E71922F7E7852377
:1047F0000B601360E2E780230B601360DEE700BF0D
:104800000040074001400740E489FF1F08B0034013
:104810000CB0034008B00B400CB00B40FD94FF1FE0
:1048200020B0034020B00B40E589FF1F24B00340B7
:1048300024B00B40FC94FF1F054A064B10781B78F0
:10484000C0B2DBB2984238BF4030C01A704700BFD8
:104850000495FF1F0595FF1FF0B4384B1A7912F02D
:10486000300F2CD072B6997D01F0FF0200293DD0A7
:1048700062B6334F334938780D78334E1C46C0B298
:10488000EDB2431C402BE17928BF0023AB4202F17B
:10489000FF32C9B21CBFF154184612F0FF02F0D12A
:1048A0002A4B1B68C2B23A704BB1A84236BFC5F161
:1048B0004005401B40192728C4BF01221A701F4918
:1048C000CA78D2B2150616D452060DD51B4B1B79E9
:1048D0005B0609D51E4B1F491B6800220A7003B1F5
:1048E0001A70164B3C22DA70F0BC70474022D9791E
:1048F0005A7462B6E3E70B791C06E5D5164B174EE2
:104900001C783378E4B2DBB29C420ED0144D01E047
:10491000A3420AD00133402B28BF00230879E85C6A
:10492000C0B2C871087D0728F2D9DBB203493370E1
:104930000B79180644BF7C23CB70C5E700A0064066
:104940000495FF1F0595FF1F4895FF1F0095FF1F4A
:104950008C95FF1F8895FF1F9095FF1F8995FF1F5E
:104960000895FF1F054A064B10781B78C0B2DBB2D2
:10497000984238BF4030C01A704700BF0496FF1FEE
:104980009995FF1FF0B4384B1A7912F0300F2CD0E4
:1049900072B6997D01F0FF0200293DD062B6334F17
:1049A000334938780D78334E1C46C0B2EDB2431C03
:1049B000402BE17928BF0023AB4202F1FF32C9B29C
:1049C0001CBFF154184612F0FF02F0D12A4B1B68AD
:1049D000C2B23A704BB1A84236BFC5F14005401B88
:1049E00040192728C4BF01221A701F49CA78D2B2C1
:1049F000150616D452060DD51B4B1B795B0609D53F
:104A00001E4B1F491B6800220A7003B11A70164B17
:104A10003C22DA70F0BC70474022D9795A7462B6F1
:104A2000E3E70B791C06E5D5164B174E1C78337857
:104A3000E4B2DBB29C420ED0144D01E0A3420AD096
:104A40000133282B28BF00230879E85CC0B2C87165
:104A5000087D0728F2D9DBB2034933700B791806B9
:104A600044BF7C23CB70C5E700B006400496FF1F0F
:104A70009995FF1FC495FF1F9495FF1F0896FF1F70
:104A80009895FF1F0C96FF1F0596FF1F9C95FF1F13
:104A9000054A064B10781B78C0B2DBB2984238BF8B
:104AA0004030C01A704700BF1496FF1F1596FF1FB5
:104AB00030B42B4B1A7994061FD52A48DA7903783B
:104AC000294901333F2B0978C8BF00238B42D2B25A
:104AD00003D0264CD9B2E2540170254A116861B165
:104AE000244A1278D2B2934236BFC2F140029B1AD6
:104AF0009B18272BC4BF01230B70194AD378DBB254
:104B0000180611D45A060DD5154B1B795B0609D52D
:104B1000194B1A491B6800220A7003B11A70104B16
:104B20002C22DA7030BC704711790906EAD5144995
:104B300010480C780178C9B28C420DD04A1C272A43
:104B400084BF00210A460F4D054C98BFD1B2AA5C24
:104B5000D2B2E2710170D5E76C21D170D2E700BF0B
:104B600000C006401496FF1F1596FF1F4096FF1FBA
:104B70001096FF1F8196FF1F8496FF1F8096FF1FD0
:104B80008896FF1F1896FF1F70B584B072B6194B38
:104B9000194D1A48702241260F2480211A702E7058
:104BA0001A460470197013781B06FCD5144B18684C
:104BB00062B6144B144C984298BF00EB800001A9D8
:104BC00098BF40000A22FEF7B1F901A92046002350
:104BD00011F8012B01333AB10A2B20F8022FF7D13B
:104BE0001623237004B070BD5B00DBB2237004B0E9
:104BF00070BD00BF000002400700024006000240F6
:104C0000080002407F969800748AFF1F2DE9F04F3C
:104C1000DFF8E4928DB006460F4614461D4600F0BC
:104C2000CBF999F90080B8F1FF3FCDE9000146D0FA
:104C300022462B462046294601F04EFD8346002899
:104C40003DD132463B463046394601F045FD002213
:104C500082460023002840F084803046394601F027
:104C600009FD002830D0002200232046294601F00B
:104C700001FD8346A8B10122984B02920021002237
:104C8000CDF828A0CDE90467CDE90645CDE90812A5
:104C90000393B8F1000F53D0914900200DB0BDE847
:104CA000F08F2046294600F0A5FF40B100220023E6
:104CB0002046294601F0E8FC002840F0B780DDE9F5
:104CC00000010DB0BDE8F08FDDE9000100F092FFBA
:104CD000804600285DD04FF0000A4FF0000B52468E
:104CE0005B46DDE9000101F0C5FC0028E7D0304655
:104CF000394600F07FFF0028E1D02046294600F029
:104D000079FF0028DBD099F90030744A039204211E
:104D10000022022BCDE90467CDE90645CDE908ABB9
:104D200002910A9203D002A800F06AFF70B902F063
:104D30002DF82223036009E000230024CDE9083484
:104D400002A800F05DFF002800F086800A9B1BB1DE
:104D500002F01CF80A9B0360DDE908010DB0BDE814
:104D6000F08F2046294601F085FC0028A7D05C4939
:104D70005A4BCDF828B001220020B8F1020FCDE93E
:104D80000467CDE9064502920393CDE90801D7D126
:104D900097E73046394600F02DFF00289BD020468B
:104DA000294600F027FF002895D0DDE900231046B2
:104DB000194601F091FC002873D1032399F9008072
:104DC0000293464B0A900393CDE90467CDE906456B
:104DD0000022002330463946B8F1000F41D1414F3F
:104DE0004FF06046CDE9086701F04EFC00289AD0EC
:104DF00000223D4B2046294601F0D4F904460D46D9
:104E000000F006FF02460B462046294601F032FC20
:104E1000002843D1354B99F900804FF06042CDE92D
:104E20000823B8F1020F7FF47EAF80E799F90030D4
:104E30002A4ACDF828B00121CDE90467CDE906451D
:104E400002910392002B3FF477AF29490020022BF7
:104E5000CDE908017FF474AF01F098FF21230360CE
:104E600074E7244F0026CDE9086701F00DFC002807
:104E7000D7D000221C4B2046294601F093F9044666
:104E80000D4600F0C5FE02460B462046294601F0BD
:104E9000F1FB18B9164B0022CDE9082399F90080DF
:104EA000BFE799F900900D4BCDF828800122CDE99C
:104EB0000467CDE9064502920393B9F1000F3FF470
:104EC0003BAF002200231046194601F095FAB9F1D4
:104ED000020FCDE90801BFD032E700BFD07F00004C
:104EE0000000F03FFFFFEF470000E03FFFFFEFC78C
:104EF0000000F0FF0000F07F8A8AFF1F2DE9F04FCD
:104F00008BB004460D4600F0B1FD284B93F900A08C
:104F1000BAF1FF3F06460F4612D022462B462046E6
:104F2000294601F0D9FB834650B94FF000084FF0F5
:104F3000000942464B462046294601F0A5FB20B910
:104F4000304639460BB0BDE8F08F194BCDF820B094
:104F50000122CDE90445CDE902458DE80C00BAF106
:104F6000000F15D042464B464046494601F044FAF0
:104F7000BAF1020FCDE906010CD101F007FF2123A0
:104F80000360089B63B9DDE906010BB0BDE8F08F53
:104F9000CDE90689684600F033FE0028F1D1ECE740
:104FA00001F0F4FE089B0360EDE700BF8A8AFF1F53
:104FB000D47F0000FFFFFFFF2DE9F04F23F00048F2
:104FC00058EA020993B03CD0714C21F00046A64249
:104FD00083460D460CDD06F1404606F5801656EA7E
:104FE0000B0038D16B498346584613B0BDE8F08FAB
:104FF0009A4696462BD0A045EDDC654CA04578D06E
:10500000002D0F468146CDE9002376DB0024BEF15A
:10501000000F27D15E4B984500F08B805D4B984583
:1050200052D0BAF1804F00F0C2835B4B9A4519D140
:10503000002D17DB4846394613B0BDE8F04F00F0AD
:1050400015BDCB465349584613B0BDE8F08F002834
:10505000C1D1B045D1DD514813B0BDE8F04F00F0EB
:10506000D1BD00244846394600F0C0FDBBF1000F19
:105070001CD0ED0F013D54EA050370D0484B984514
:1050800040F3948003F10473984540F30584454B45
:105090009E4270DDBAF1000F70DD3BA3D3E900231F
:1050A0001046194601F07EF883469DE726B1394B3C
:1050B00025F040429A42DCD1BAF1000FC0F2B08331
:1050C000002D08DB83468FE7BAF1000FC0F256844B
:1050D000CB46394688E706F1404606F5801656EA83
:1050E000040300F07B84012CECD1834601F10041E4
:1050F0007AE7BEF1000F83D06DE72B4B98452CDC8F
:10510000A3F15473984581DD4FEA2853A3F2FF338E
:10511000142B40F34B84C3F134032EFA03F202FA4A
:1051200003F39E457FF472AF02F00102C2F1020464
:105130006DE706F1404303F5801353EA0B0300F0DB
:105140003383184B9E4240F36083BAF1000F15DBA6
:10515000DDE900349B46214646E7022457E74A46EC
:1051600048463B46394600F069FE02460B4601F0D0
:1051700043F9834638E7BAF1000F8EDB4FF0000B9E
:10518000594631E7AFF300809C7500883CE4377ED8
:105190000000F07F0000F03F0000E03F547B000083
:1051A0000000E041FFFFEF3FFFFF3F43B6F5801FE8
:1051B0004FF0000205DAD44B00F0F4FF6FF0340238
:1051C0000E463315D14FC6F31306A3F2FF33134433
:1051D00046F07F5ABE421A460D934AF4401A40F3F5
:1051E000C183CB4B9E4240F3FD83134601330D93A5
:1051F000C84B0022CDE9062300270026CDE9086729
:10520000CDE90E67AAF5801A00270246534651469B
:10521000CDE90A23DDE9062300F010FEDDE90623CF
:1052200080468946DDE90A0100F00AFE02460B4687
:105230000020B84901F0E0F80A460146CDE9101215
:10524000134649460246404600F0ACFF4FEA6A0367
:1052500043F000538C46834603F50023CDE904BC9C
:10526000DA468B46D9190023CDE902AB0293DDE97A
:1052700002AB002006460F4602460B4650465946F2
:1052800000F090FF02460B464046494600F0D6FD2E
:10529000DDE90623804689463046394600F0CEFDDA
:1052A00002460B46DDE90A0100F0C8FD52465B46A6
:1052B00000F078FF02460B464046494600F0BEFD2E
:1052C000DDE9102300F06EFFDDE90467CDE906019A
:1052D00032463B463046394600F064FF78A3D3E9B6
:1052E000002306460F4600F05DFF77A3D3E90023B5
:1052F00000F0A6FD32463B4600F054FF74A3D3E90C
:10530000002300F09DFD32463B4600F04BFF72A3A8
:10531000D3E9002300F094FD32463B4600F042FF03
:105320006FA3D3E9002300F08BFD32463B4600F02B
:1053300039FF6DA3D3E9002300F082FD3246804699
:1053400089463B463046394600F02CFF02460B4664
:105350004046494600F026FF524606460F465B4649
:10536000DDE9040100F06CFDDDE9062300F01AFF21
:1053700032463B4600F064FD5246804689465B4615
:105380005046594600F00EFF0022634BCDE90A015A
:1053900000F056FD42464B4600F052FD02980F4683
:1053A000064632463B465046594600F0FBFE002278
:1053B00082468B46584B3046394600F03FFDDDE9CA
:1053C0000A2300F03BFD02460B464046494600F0EA
:1053D00035FDDDE9042300F0E5FE324680468946CE
:1053E0003B46DDE9060100F0DDFE02460B46404685
:1053F000494600F025FD8046894602460B46504648
:105400005946CDE904AB00F01BFDDDE902AB38A342
:10541000D3E9002350460F4600F0C4FEDDE9042323
:10542000CDE902013946504600F008FD02460B4620
:105430004046494600F002FD2FA3D3E9002300F0C7
:10544000B1FE2FA3D3E90023804689465046394652
:1054500000F0A8FE02460B464046494600F0F0FC2C
:10546000DDE90E2300F0ECFC80460D98894600F043
:1054700033FE424606460F464B46DDE9020100F088
:10548000DFFCDDE9082300F0DBFC32463B4600F0A0
:10549000D7FC32463B4650468B4600F0CFFCDDE958
:1054A000082300F0CBFCDDE9022300F0C7FC024634
:1054B0000B464046494600F0C1FC80462EE000BF46
:1054C000EF4E454A287ECA3F65DBC9934A86CD3FE9
:1054D00001411DA96074D13F4D268F515555D53FCF
:1054E000FFAB6FDBB66DDB3F033333333333E33F67
:1054F000000000E009C7EE3FFD033ADC09C7EE3FBC
:10550000F5015B14E02F3EBE000040438E9803007F
:1055100079B60B000000F03F000008408946013CCE
:1055200054EA0503DDE9000114BFD54CD54C002336
:10553000CDE9043403460C46CDE90234002302933E
:10554000DDE9024522462B4600F078FC52465B46D8
:1055500000F028FEDDE9002306460F464046494696
:1055600000F020FE02460B463046394600F068FC4B
:10557000224606460F462B4650465946CDE900675F
:1055800000F010FE0B4602468046894630463946FA
:1055900000F056FCBC4B994206460D460C4640F3C3
:1055A0000E8101F13F4303F5E003034340F0EF8137
:1055B0009FA3D3E90023DDE9000100F041FC42464E
:1055C00082468B464B463046294600F037FC024661
:1055D0000B465046594601F075F8002840F0D78137
:1055E0002F463B154FF48012A3F2FE3342FA03F329
:1055F0002344C3F30A52A54EA2F2FF321641C3F36D
:10560000130B0020C2F1140523EA06014BF4801BA2
:1056100002460B46002C4BFA05FB40464946B8BFF4
:10562000CBF1000B00F00AFC02460B46804689468F
:10563000DDE9000100F004FC4FEA0B5A00247EA3D0
:10564000D3E9002320460D4600F0ACFD4246064655
:105650000F464B462046294600F0F0FB02460B461B
:10566000DDE9000100F0EAFB75A3D3E9002300F0B7
:1056700099FD75A3D3E90023804689462046294633
:1056800000F090FD02460B464046494600F0D8FB2C
:105690008046894602460B463046394600F0D0FB2C
:1056A00032463B4604460D4600F0C8FB02460B4618
:1056B0004046494600F0C2FB2246804689462B46BA
:1056C0002046294600F06EFD61A3D3E9002306467B
:1056D0000F4600F067FD60A3D3E9002300F0AEFBA6
:1056E00032463B4600F05EFD5DA3D3E9002300F0A7
:1056F000A7FB32463B4600F055FD5BA3D3E90023F0
:1057000000F09CFB32463B4600F04CFD58A3D3E929
:10571000002300F095FB32463B4600F043FD024675
:105720000B462046294600F089FB06460F460246F6
:105730000B462046294600F035FD0022CDE9000148
:105740004FF080433046394600F078FB02460B4666
:10575000DDE9000100F050FE424606460F464B468A
:105760002046294600F01EFD42464B4600F068FBED
:1057700002460B463046394600F060FB22462B4677
:1057800000F05CFB02460B4600203D4900F056FB52
:105790008A44BAF5801FC0F236815146DDE9042300
:1057A00000F000FD83461FE4F34635491CE44A46F9
:1057B00048463B46394600F0F5FC834614E4344B3A
:1057C00021F000479F4240F30081324B0B440343DA
:1057D0000CD142464B4600F031FB02460B46DDE958
:1057E000000100F05BFF00283FF4FBAE22A3D3E9E9
:1057F0000023DDE9040100F0D5FC1FA3D3E9002359
:1058000000F0D0FC8346FFF7EFBBBAF1000FBFF604
:10581000B5ACDDE900349B4604F10041FFF7E4BB81
:1058200002460B460020164900F0E6FD48E400BFA2
:10583000FE822B654715973C00000000432EE63F93
:10584000EF39FAFE422EE63F396CA80C615C20BEAF
:10585000D0A4BE726937663EF16BD2C541BDBB3E76
:105860002CDE25AF6A56113F93BDBE166CC1663F54
:105870003E5555555555C53F59F3F8C21F6EA50104
:105880000000F03F0000F0BFFFFF8F40FFFF0F0060
:10589000FFCB904000346F3F6F4B9E427FF76BAC65
:1058A0006E4B9E423FF7F6AB00226C4B00F0C6FAFF
:1058B0005BA3D3E9002306460F4600F073FC5AA30E
:1058C000D3E90023804689463046394600F06AFC19
:1058D000002282468B46624B3046394600F062FC1D
:1058E00002460B4652A1D1E9000100F0A7FA324668
:1058F0003B4600F057FC02460B460020594900F099
:105900009DFA3246CDE902013B463046394600F069
:1059100049FC02460B46DDE9020100F043FC46A3C8
:10592000D3E9002300F03EFC02460B4650465946A0
:1059300000F084FA02460B4606460F4640464946AA
:1059400000F07EFA42464B46002082468B4600F02D
:1059500075FA02460B463046394600F06FFA80462B
:105960008946DCE500220023CDE90823CDE90E239A
:105970003A4B00220027CDE9062346E44A463B463F
:105980000020364900F038FD8346FFF72DBB2CA3DD
:10599000D3E90023DDE9040100F004FC28A3D3E9E6
:1059A000002300F0FFFB8346FFF71EBBBEF1000F94
:1059B0007FF457ABC3F1140348FA03F202FA03F37E
:1059C000984524D07446FFF729BB264B9F423FF7EA
:1059D00008AEDDE902349A469B462FE602460B46A6
:1059E000FFF7C1BB18A3D3E90023CDE9082318A30F
:1059F000D3E90023CDE90E231B4B00224FF480276F
:105A0000CDE9062301E45A4600F08EF9C6E602F01D
:105A10000102C2F10204FFF701BB00BFAFF3008037
:105A2000000000604715F73F44DF5DF80BAE543EC1
:105A3000555555555555D53FFE822B654715F73FB2
:105A40009C7500883CE4377E0000004003B8E23FCC
:105A500006D0CF43EBFD4C3EFEFFEF3F0000F03F92
:105A60000000D03F0000E03F0000F83F2DE9F84380
:105A70005D4EB6460E4076450C46054600F09580D4
:105A800000290B46024673DD0F157ED0A7F2FF37C3
:105A9000C3F31303F80743F4801364D403EBD27108
:105AA00000260B447F105200B64616204FF400111A
:105AB0000EEB01049C424FEAD2754FEA420203DC2E
:105AC0001B1B04EB010E0E44013805EB43034FEAA8
:105AD0005101EDD1844620244FF0004109E020D04F
