:1000000000800020BD010000B51F00006D1F000032
:100010006D1F00006D1F00006D1F00006D1F0000B0
:100020006D1F00006D1F00006D1F0000B51F000058
:10003000B51F00006D1F0000DD360000E137000035
:10004000B51F0000B51F0000B51F0000B51F000060
:10005000B51F0000B51F0000B51F0000B51F000050
:10006000B51F0000B51F0000B51F0000B51F000040
:10007000B51F0000B51F0000B51F0000B51F000030
:10008000B51F0000B51F0000B51F0000B51F000020
:10009000B51F0000B51F0000B51F0000B51F000010
:1000A0002519000031190000B51F0000B51F000020
:1000B000B51F0000B51F0000B51F0000B51F0000F0
:1000C000B51F0000B51F0000B51F0000B51F0000E0
:1000D000B51F0000B51F0000B51F0000B51F0000D0
:1000E000B51F0000B51F0000B51F0000B51F0000C0
:1000F000B51F0000FD380000B51F0000293A0000C0
:10010000B51F0000553B0000B51F0000B51F0000E3
:10011000B51F0000B51F0000B51F0000B51F00008F
:10012000B51F0000B51F0000B51F0000B51F00007F
:10013000B51F0000B51F0000B51F0000B51F00006F
:10014000B51F0000B51F0000B51F0000B51F00005F
:10015000B51F0000B51F0000B51F0000B51F00004F
:10016000B51F000031260000B51F0000B51F0000BC
:10017000B51F0000B51F0000B51F0000B51F00002F
:10018000B51F0000B51F0000B51F0000B51F00001F
:10019000B51F0000B51F0000B51F0000B51F00000F
:1001A000B51F0000B51F0000B51F0000B51F0000FF
:1001B000B51F0000B51F0000B51F0000564B4CF2E4
:1001C000205210B51A804DF628121A8000BF00BFC9
:1001D00001F0F4FE514B4FF010621A60504A9A60E1
:1001E000504ADA60504A136813F4807304D14F49BF
:1001F0000B604FF4A85313604D4B1A78110703D5C9
:100200001A7842F008021A704A4B4B492A221A7097
:100210004A4A4B4B8B4204D252F8040F43F8040B6A
:10022000F8E7484B484900228B4202D243F8042B9E
:10023000FAE74649464A002352F8230041F82300D2
:1002400001336F2BF8D1434B434A802103F8011B44
:100250009342FBD1414B3D4A1A60414B8A221A70AE
:10026000A3F5805324225A70A0221A709A7992071B
:10027000FCD59A79D406FCD43A4A937903F00C035E
:10028000082B384BF9D105221A7143225A719A79F9
:100290009006FCD5334A9179324B4906FBD5324A58
:1002A0004FF0817111600521516020221A709A79F6
:1002B00002F00C020C2AFAD12C4B2D4A1A602D4B5D
:1002C0002D4A1A6000225A60072243F8042C2B4A58
:1002D000C3F80C2D62B602F061F8144B1B68DA0704
:1002E00005D5274801F0CEFF264B274A1A60274B39
:1002F0001B785B0609D5234C234B22689A4204D114
:100300001F4801F0BFFF0023236003F0E3FC01F06E
:100310005BFE01F089FDFEE70E20054030800440C1
:10032000823F04000100002B10D0034014D0034092
:1003300002D0074000E007401497FF1F5C4900000F
:100340002087FF1F1497FF1F809AFF1F0082FF1F47
:100350000000000000E400E05FE400E008ED00E0E1
:1003600000500640004006404480044004800440A1
:10037000C010050014E000E03F190100000020203B
:10038000FA79A95D1CE00340A5C3945A00F0074028
:10039000FFFFFFFFFFFFFFFFFFFFFFFFFFFFFFFF6D
:1003A000FFFFFFFFFFFFFFFFFFFFFFFFFFFFFFFF5D
:1003B000FFFFFFFFFFFFFFFFFFFFFFFFFFFFFFFF4D
:1003C000FFFFFFFFFFFFFFFFFFFFFFFFFFFFFFFF3D
:1003D000FFFFFFFFFFFFFFFFFFFFFFFFFFFFFFFF2D
:1003E000FFFFFFFFFFFFFFFFFFFFFFFFFFFFFFFF1D
:1003F000FFFFFFFFFFFFFFFFFFFFFFFFFFFFFFFF0D
:10040000FFFFFFFFFFFFFFFFFFFFFFFFDEF9FFFF23
:1004100010B5054C237833B9044B13B10448AFF33E
:1004200000800123237010BD1497FF1F00000000FF
:1004300058490000084B10B51BB108490848AFF3F4
:1004400000800848036803B910BD074B002BFBD0A0
:10045000BDE81040184700BF000000001897FF1FBC
:10046000584900001497FF1F0000000000B5134B0F
:10047000134A597B186987B0002304920122039321
:1004800002930193009305921A4600F0C1FA4FF4CB
:100490007A7001F033FF68210A4801F0E1FB122174
:1004A000094802F05BFF0521084802F057FF0848A1
:1004B00007B05DF804EB01F05FBC00BF7097FF1F51
:1004C000A08601003097FF1F384600004C46000010
:1004D0001C8EFF1F70B5174E174D20E0174801F016
:1004E00065FB0321164802F039FF2168154801F029
:1004F00093FC0421144802F031FF2968114801F0EF
:100500008BFC0421114802F029FF31680D4801F0ED
:1005100083FC0C4801F030FC142001F0EFFE07488A
:100520000B4C01F037FB034B034A21460028D5D181
:1005300070BD00BF5897FF1F5497FF1F3097FF1FD4
:10054000544600001C8EFF1F584600006046000005
:100550005097FF1F014801F05FBA00BF3097FF1F9F
:10056000002070470369D3F83801D3F83431C01A3A
:10057000704700BF0369D3F83411D3F83821914292
:1005800008D2D3F83421511C1A44C3F8341192F81C
:10059000300070474FF0FF30704700BF0369D3F859
:1005A0003411D3F8382191423DBFD3F834219B1840
:1005B00093F830004FF0FF30704700BF704700BF26
:1005C0000369D3F84422B2F5817F03D90123037173
:1005D00000207047D3F8442210B49C180132C3F8AD
:1005E000442284F83C11012010BC704738B50369DF
:1005F0000A4A026093F84822022A044601D02046A3
:1006000038BDD3F87452002DF9D0284601F09AFB7A
:100610002846082101F010FD204638BD7046000034
:1006200038B503690546D3F84402B0F5817F1AD87E
:100630001446D3F84422D3F84402C2F58172013241
:1006400003F59E73A242184402D2012314462B7173
:10065000224601F0F1FB2A69D2F844322344C2F861
:100660004432204638BD01232B71002038BD00BF25
:100670002DE9F0471E46044617469DF820909DF848
:1006800024309DF828A00D4659B301290FD090F8C9
:100690004A329A424FF0000800D14DB3012D0ED0DE
:1006A00094F84B329E4212D00020BDE8F0871D2FF7
:1006B0004FD01A2F77D094F84A324FF000081E2EF0
:1006C0001AD01F2E6DD094F84B329E42ECD1BAF165
:1006D000000FE9D00025B8F1000FE5D0002DE3D0E0
:1006E00031E0102A35D0132A33D090F84A328846A8
:1006F000A6F11103012BE6D8022594F84B329E4255
:1007000057D0BAF1000F09D094F84C3294F84B024C
:10071000002B14BF0221002101F0C6FD2B02B9F10C
:10072000000F13D143F06403264A02EBC6020121F5
:100730005268136084F84B6284F84C9284F89912E2
:10074000B8F1000FB0D00120BDE8F08743F00303FB
:10075000EAE74FF0020894F84A22974226D04BB1BC
:1007600094F84C3294F84A02002B14BF0221002165
:1007700001F09AFD4FEA0822B9F1000F0ED142F0C4
:100780006402104B03EBC703596801230A6084F825
:100790004A7284F84C9284F898327EE742F0030261
:1007A000EFE70625A9E74FF00608D4E7002BE1D0D4
:1007B00073E7BAF1000FB1D0B8F1000F3FF474AF96
:1007C0008CE700BFA4470000F8B5C3681B789B0600
:1007D00010D483680D4680211970C36812211970E6
:1007E00090F84932012B044606D08AB980F8482295
:1007F0000120F8BD0020F8BD1A4675B9474B4FF0EF
:1008000080711960022A0FD0012084F84802F8BDD7
:10081000531E012BF1D90120F8BD012DF2D13F4B20
:100820004FF000711960EDE7D4F87462002E6AD0C1
:100830003379102B30D0002D3CD132683849938B5E
:10084000384F9BB243F0080393833279531102F17E
:1008500010009B0041F8207003F1604303F56143F1
:10086000012102F01F0201FA02F231681A608B8B3B
:100870009BB243F002038B83337903F1804303F58A
:10088000043396221D701A700022022384F85E221F
:1008900084F848320120F8BD304601F053FA304662
:1008A000082101F0C9FB00230120C4F8743284F848
:1008B0004802F8BD012DE7D132681949938B1A4FD0
:1008C0009BB243F0080393833279531102F1100075
:1008D0009B0041F8207003F1604303F5614302F08F
:1008E0001F02954032681D60938B9BB243F0020358
:1008F0009383337903F1804303F504330021972276
:1009000019701A70C0E7082001F094FB31460746C1
:100910003E4601F0B3F9C4F8747289E700E100E0E3
:100920000082FF1F2519000031190000F0B5284E84
:10093000DFF8ACE0A6FB0143A6FB02429E093702AA
:100940007546960914240023B7FBF6F604E001333C
:10095000372B1BD055F8044F22029642F7DA83BB9F
:1009600014241C4A4568B1FBF4F491422B70C0F882
:10097000504207D8184B8269A3FB0131C1F30751DC
:100980001170F0BD836904221A70F0BD0024224664
:100990004FF470274FF470654FF0360CB21AF71B06
:1009A000002A87EAE776A6EBE776B8BF524296427E
:1009B00002DD0A4AD35CD4E7084B2C4613F80C300E
:1009C000CFE703F1FF3C5EF82C502F02E6E700BFB3
:1009D000D34D6210FF6BDC02819F5E1668470000FA
:1009E0008C460000F0B49DF814409DF810609DF80E
:1009F00018503CB135B1C7683F78BF0602D500201A
:100A0000F0BC7047069505940496F0BCFFF730BE25
:100A10002DE9F04184B0044694469DF828609DF885
:100A20002C209DF830009DF834E09DF83C700D4678
:100A300000294BD1DFF8E080D8F8001041F04001E8
:100A4000C8F80010002184F849C284F85512BCF19E
:100A5000000F2AD163692021197012B994F84A2233
:100A6000D2B210B994F84B02C0B294F8981294F82C
:100A7000996202960346CDF800E00191204629468E
:100A8000FFF7B0FF0E9A23492046FFF74FFF3A4683
:100A900029462046FFF798FE94F8493263B3A368CD
:100AA000C0221A7004B0BDE8F0816169CEB14FF088
:100AB000280C81F800C09E42216823D95B00DBB27C
:100AC0000B707600E369F6B21E70C6E70129B9D152
:100AD000DFF84480D8F8001041F08001C8F8001019
:100AE000B0E74FF0200C81F800C021685B00DBB25A
:100AF0000B70E3691E70B0E7A36880221A7004B01F
:100B0000BDE8F0817600F6B20E705E00E369F6B2E1
:100B10001E70A2E700512502348004402DE9F04107
:100B2000154682B004460F46984601F0C3FB0DB946
:100B3000D4F8785201F0BEFBA3681A7892060646F4
:100B400009D5B4221A70304B1B78002B35D0012008
:100B500002B0BDE8F08155BBE3681B7803F02003C9
:100B600003F0FF02002BF6D1A36884F84922B022DB
:100B70001A70A3681B7803F0200303F0FF00002B1A
:100B8000E1D1062384F85532D4F89032013304D0F1
:100B9000D4F890320133C4F89032D4F87032002B7C
:100BA000D6D001909847019802B0BDE8F08101F0DD
:100BB00081FB801B8542CFD8DBE794F84832013BAC
:100BC000012BC4D801F018FA8FB1012F0FD10F4BB0
:100BD0001B788342BBDB0F2812DD5FB1012F09D1E7
:100BE000A0F11003094ADBB238461370B0E7084B96
:100BF0001B78EEE7A0F11003054ADBB21370A6E7FD
:100C0000012088F80000A3E78497FF1F19E400E0A3
:100C100018E400E00369490083F83C1103690022ED
:100C20000121C3F84412027183F85522704700BFB6
:100C30002DE9F043054683B0D0F8440200248DF836
:100C4000074070B190461C460BB9D5F87842EB6866
:100C500012221A7028460DF107032246FFF75EFFA5
:100C600010B903B0BDE8F08395F84832BBB19DF8E8
:100C70000720A2B9591E0129F3D80821022B85F8B3
:100C8000551285F85482C5F8402200F0A180AB6867
:100C9000F0221A702B6995F83C211A70E1E701F0F7
:100CA00009FB082385F85532D5F8447285F854823B
:100CB00006465FB305F23B1800274FF00209002CEF
:100CC00044D12B6918F8012F1A70EA681378980735
:100CD00037D4002CFAD001F0EDFA801B8442F4D80E
:100CE000EB6883F8009001F0E5FA801B84420BD991
:100CF000EA681378DBB2D9063AD4DB074AD4D5F8D0
:100D000044320137BB42DAD895F85482AB68B8F167
:100D1000010F0CBF8022B0221A70D5F84432BB42BA
:100D20001AD9012385F85532D5F88032013304D021
:100D3000D5F880320133C5F88032D5F870329BB9CE
:100D40008FE782F80090002CD2D0CCE701F0B2FA05
:100D5000801B8442B5D8D7E7D5F86032002285F8E9
:100D60005522002B3FF47DAF984703B0BDE8F083D8
:100D70001023042185F855121370AB6880221A7075
:100D8000D5F88C320133D8D0D5F88C320133C5F880
:100D90008C32D2E77FB9022385F85532D5F88432F8
:100DA000013304D0D5F884320133C5F88432AB68FE
:100DB00080221A70C1E7032385F85532D5F88832AE
:100DC0000133F4D0D5F888320133C5F88832EEE724
:100DD000D5F84432042B7FF65AAFD5F874120120AF
:100DE0000C6885F85E02D5F84432E2710E68A08086
:100DF00005F59F772760B0600C68033B98B2E083ED
:100E000009685B42E360C882D5F8741228690B68F0
:100E1000B0F1804F9A7118619A820B6801D39A6879
:100E200012B901229A600B6800229A612FE700BF75
:100E30002DE9F04182B000258DF807509DF8207013
:100E4000099E2BB1B3F5827F05D3052380F8553277
:100E500002B0BDE8F081C0F83451C0F85832C0F893
:100E600038510EB9D0F87862C368904612221A70D1
:100E70000DF1070332460446FFF750FE0028E7D085
:100E800094F848321BB19DF80720002A51D001F098
:100E900011FA4FEA480343F00103226984F85472BF
:100EA000DBB2092184F8551205461370E268137805
:100EB0009B071ED4002EFAD001F0FCF9401B86429D
:100EC000F4D8E36802221A7001F0F4F9401B86425C
:100ED00013D8A26801238021117084F85532D4F808
:100EE000803201331FD0D4F880320133C4F880320D
:100EF00019E002231370002EE6D1E2681378DBB20A
:100F0000D9062CD4DF073CD5A3680221802284F8BF
:100F100055121A70D4F88432013304D0D4F88432D4
:100F20000133C4F88432D4F87032002B90D0984743
:100F30008EE7591E01298BD80921022B84F854729F
:100F400084F8551200F0E080A268F02111704FEA99
:100F5000480343F001032269DBB2137078E71023E2
:100F6000042184F855121370A36880221A70D4F8F3
:100F70008C320133D7D0D4F88C320133C4F88C32A0
:100F8000D1E7D4F858320A22012BA36884F85522FD
:100F90000CBFA822A0221A7023691B784FF000080A
:100FA000B027D4F85832D4F838219A42BFF450AF61
:100FB00094F855320A2B7FF44BAFE2681378980708
:100FC0003CD4002EFAD001F075F9401B8642F4D8CB
:100FD000E36802221A7001F06DF9D4F83821D4F8D0
:100FE0005832401B911C86428CBF0022012299423C
:100FF00006D086422FD894F85D22002A4CD10122D7
:10100000A368A8211970D4F83811D4F858320131E6
:10101000994226D2002A5AD094F85D32002B3DD155
:10102000D4F838312269591CC4F838112344127895
:1010300083F83020012384F85D32B2E70223137075
:10104000002EC8D1D4F83821D4F8583202329A424E
:1010500001D13246D4E7D4F838210132934236D850
:101060000022A36884F85D821F7023691878D4F881
:101070003831E1180133C4F8383181F8300094F880
:101080005432012B1CD06ABBD4F8643284F8552248
:10109000002B86D0984784E7D4F83821A36884F8D9
:1010A0005D821F7023691978D4F83831E218013352
:1010B000C4F8383182F8301094F85422012A11D142
:1010C0001823013BFDD1A36880211970DBE7D4F818
:1010D00038212169501CC4F838012244097882F86B
:1010E000301060E7012384F85532D4F880320133A0
:1010F00004D0D4F880320133C4F88032D4F870328E
:10110000002B97D0984795E7D4F85832042B7FF6F8
:101110001BAFD4F8743220691968012584F85E5237
:10112000B0F1804FCA718A8008601A6801D3916853
:1011300011B9012191601A68D4F87412D4F85832A8
:1011400008680025D56085710E6804F1300201251C
:1011500002618582B5600868013B9AB2C283096862
:101160005B428361CA82EFE6036993F85532013B23
:10117000052B0CD8DFE803F003070903050304205F
:1011800070470120704702207047032070470079A4
:10119000003018BF0120704770B51546044601F0B5
:1011A00089F80DB9D4F8785201F084F8064694F81D
:1011B0005532072B1AD9002DF9D001F07BF8801B8E
:1011C0008542F4D801F076F8801B854210D894F857
:1011D0004832022B0CD194F85E324BB194F8553260
:1011E000072BFBD8012384F8553201E0002DE9D10B
:1011F00094F85532072B02D9012384F85532602325
:10120000013BFDD194F85502B0FA80F0400970BD61
:10121000F8B5069E0C46154607461A46294620464E
:101220003346FFF705FD324629462046FFF7B4FF57
:101230003846BDE8F840FFF797BF00BFF0B583B070
:101240009DF8206013B9002003B0F0BD099F04464B
:101250000D468DE8C000FFF7EBFD099A29462046B0
:10126000FFF79AFF0028EED0D4F8380103B0F0BDA4
:10127000D0F83421D0F838319A4208D2D0F834313D
:101280005A1C0344C0F8342193F8300070474FF0E3
:10129000FF3070472DE9F041C04E337804460133EA
:1012A000DBB2C068A768337005783B78DBB203F027
:1012B000200282B0EDB23AB313F0100F94F85E3210
:1012C0007AD0022B00F0D88094F85E32032B00F025
:1012D000D38094F85532082B00F0298294F85532C7
:1012E000092B00F0648294F85532012B00F0D38171
:1012F00080233B70E36802221A703378013BDBB233
:10130000337002B0BDE8F08102F0FF08EA0624D491
:1013100005F0400202F0FF0E1ABB03F0100303F0C9
:10132000FF02002B00F0838015F0010540F0A8813A
:10133000D4F84022D4F844329A4207D2D4F840324A
:101340005A1C2344C4F8402293F83C5123691D7071
:10135000A368D0221A70E0686EE01023037068065C
:10136000C8D594F855320C2B00F0098105F004051E
:1013700005F0FF07002D64D0A3680021D0220B20C8
:1013800084F85502C4F844121A702269D4F86C1219
:1013900013785B0884F8563209B188472269D4F87B
:1013A0004432002B00F0748194F83C8182F8008074
:1013B0000123C4F840329DE7022B00F0A68094F888
:1013C0005E32032B00F0A180D4F83831D4F85822D3
:1013D0000233934200F04F8194F85532012B00F014
:1013E0004581D4F838310133934280F0198194F863
:1013F0005532012B00F00F81D4F838312269591C85
:10140000C4F838112344127883F83020E3680222AC
:101410001A7094F85532DBB2012B7FF46EAF94F85A
:101420005D22002A7FF469AF84F85D3265E794F8A5
:1014300055320C2B00F09C810223037002B0BDE8F2
:10144000F081574B574A94F84B0284F85C7200299C
:1014500014BF11461946032200F054FEA3680C2164
:10146000C02284F85512C4F838711A7023691B78A9
:101470005B0884F856323DE7D4F8742213689B8BDE
:10148000190604D594F85E32022B00F0B88094F867
:101490005E32032B00F08E80434B127919680123D2
:1014A00093400B423FF429AF4049414B0A70D4F8B6
:1014B0007412097919700022072384F85E2284F8D7
:1014C0005532D4F89432013304D0D4F89432013335
:1014D000C4F89432EA0611D5042384F85532D4F8BE
:1014E0008C32013304D0D4F88C320133C4F88C32FE
:1014F000E268102100231170C4F84032A3688022F2
:101500001A70E36802221A7032E0D4F874321A6852
:10151000928B120603D594F85E22022A63D094F8C7
:101520005E22032A00F0DA801F491A790968012334
:1015300093400B423FF4E1AE1C491D4B0A70D4F8B6
:10154000742212791A70A36880220020072184F87F
:101550005E0284F855121A70E36802221A70D4F8F9
:101560009432013304D0D4F894320133C4F8943265
:10157000D4F87032002B3FF4C0AE9847BDE6D4F8E3
:101580006832002B3FF4F2AE0022C4F83421D4F8C4
:101590003801019198470199E8E600BF8497FF1F41
:1015A00095190000A11900002C8000401E80004009
:1015B0001F80004003781906FCD5C14B12791A70C0
:1015C000002384F85E32D4F844322169013BC4F828
:1015D0004032D4F840322344022293F83C310B705D
:1015E000E3681A7089E6B7491B790B70A368E82194
:1015F0001970E368032184F85E121A707DE6B14920
:1016000012790A70A268F0211170E268032184F84F
:101610005E12137071E694F85D32002B3FF4ECAE6D
:10162000A3680021B02284F85D121A70D4F8383112
:101630002269591CC4F838112344127883F83020E9
:1016400094F85432012B00F0C480E36802221A702F
:1016500094F85532012B33D0D4F86432002284F848
:101660005522002B3FF4D5AE9847D2E694F85D3270
:10167000002B7FF4B6AEE8233B70D4F85822B0E6D6
:10168000C0233B702369E0681B7884F855E2D3E6F9
:1016900084F83C318AE694F85432012B0CBF802345
:1016A000B0233B70E36802221A70D4F88032013311
:1016B0003FF45EAFD4F880320133C4F8803257E78C
:1016C000D4F88032013304D0D4F880320133C4F826
:1016D0008032D4F87032002BC6D19AE6784A1B7952
:1016E0001370A3680021B02284F85E121A70D4F837
:1016F00058322269013BC4F83831D4F83831591CCA
:10170000C4F838112344127883F8302094F8543206
:10171000012B00F0C180E36802221A70D4F8643211
:10172000002284F85522002B7FF427AFE5E505F071
:10173000100303F0FF02002B52D0002304211022DB
:1017400084F85E3284F855120270A268802111700C
:10175000E268C4F8403202231370D4F88C320133AB
:101760003FF406AFD4F88C320133C4F88C32FFE674
:10177000554B564D84F85C22002914BF2946194662
:10178000032294F84B0200F0BDFC23691B78D4F8C7
:101790003821B2F5817FDBB207D8D4F83821A118FF
:1017A0000132C4F8382181F83030E06844E6EB06B5
:1017B0002ED50422102384F855220370A3688022BA
:1017C0001A70E36802221A70D4F88C320133C9D13E
:1017D000CEE61823013BFDD1A36880221A7034E7BE
:1017E00015F0010528D084F85E22D4F84032002B91
:1017F00059D1022384F85532D4F88432013304D00D
:10180000D4F884320133C4F8843280233B7078E604
:10181000E9072CD50223802284F855323A70E26819
:101820001370D4F8843201333FF4A2AED4F884327A
:101830000133C4F884329BE6D4F840320133C4F853
:101840004032D4F84422934242D394F8543284F87C
:101850005552012B0CBF8023B0233B70E36802225A
:101860001A70D4F86032002B7FF487AE45E594F807
:101870005E32012B34D0D4F85832012B4FF00A02DB
:101880000CBFE823E02384F855223B702269E3680B
:10189000127802221A7030E51823013BFDD1A368AB
:1018A00080221A7037E7032384F85532D4F888323F
:1018B0000133AAD0D4F888320133C4F88832A4E7BF
:1018C0001C8000401F80004095190000A1190000F5
:1018D00094F85E32012B12D0D4F8403221697AE6B6
:1018E0000223E12284F85E323A70D4F874120C4A72
:1018F000097911702169E26809781370FDE4022307
:10190000F12284F85E323A70D4F87412044A0979EC
:101910001170226994F83D111170E2681370ECE4C3
:101920001B80004000210148FFF7B4BC0088FF1F66
:1019300001210148FFF7AEBC9C8AFF1FC3681B78DA
:1019400003F020035BB190F85C320133DBB2012B72
:1019500080F85C3217D990F84B0200F04FBC70B59C
:1019600003F0FF05044680F8555290F84B0200F052
:1019700045FCD4F868325BB1C4F83451D4F838016E
:10198000BDE87040184790F84932012BE3D1704709
:1019900070BD00BF00210148FFF7D0BF0088FF1FC6
:1019A00001210148FFF7CABF9C8AFF1F2DE9F843B8
:1019B000134BDFF85C90DFF85C80124E124D1E6016
:1019C00000244FF47A774A4641461C711C739F608D
:1019D00018465C731D6102F06BF90C4B4FF0010E61
:1019E00005F527751C711C7383F80DE04A464146C6
:1019F00018461D619F601E60BDE8F84302F058B9AB
:101A00007097FF1F704600000088FF1F5C97FF1F44
:101A1000FC87FF1FED0500000021044AC160016141
:101A20004161026042608260704700BF0000664111
:101A300070B50D4C82B00E46017E20461546FFF76C
:101A4000E9F831462046FEF7BBFD29462046FEF761
:101A5000B7FD00230093627B216920460123FFF735
:101A6000D7FB02B070BD00BF7097FF1F2DE9F0419A
:101A70001D4D074682B00C462846397E90461E46CC
:101A8000FFF7C8F8214628460024FEF799FD6A7B37
:101A90002969009401232846FFF7BAFB397E2846BE
:101AA000FFF7B8F83A7E697B28690194012743461D
:101AB0000097FFF7C3FB05E00846FFF7D9FBE3B249
:101AC0000134F0542969D1F83821D1F834319A42DF
:101AD000F2D1002300936A7B03480123FFF798FBB0
:101AE00002B0BDE8F08100BF7097FF1F38B5044613
:101AF0000D4600F1190301221621FFF7B7FF627EA0
:101B000022F0180242EAC5022046D2B21621BDE8F0
:101B10003840FFF78DBF00BF38B504460D4600F1D1
:101B2000190301221621FFF7A1FF627E22F00702AE
:101B30002A4320461621BDE83840FFF779BF00BF91
:101B400038B504460D4600F1190301221721FFF7AD
:101B50008DFF627E22F0040242EA85022046D2B264
:101B60001721BDE83840FFF763BF00BF38B5044612
:101B70000D4600F1190301221721FFF777FF627E5E
:101B800022F001022A4320461721BDE83840FFF722
:101B90004FBF00BF10B5044600F1190301221A21FE
:101BA000FFF764FF607E00F0010010BDF8B5044649
:101BB0000F4616461D46062200F119031D21FFF7A8
:101BC00055FF627EA37E43EA02233B60E27E237FD1
:101BD00043EA02233360627FA37F43EA02232B6040
:101BE000F8BD00BF38B504460D4600F119030122C7
:101BF0003E21FFF73BFF627E22F007022A43204688
:101C00003E21BDE83840FFF713BF00BF2DE9F84380
:101C10009946044601769DF820809DF824709DF831
:101C200028609DF82C501521FFF702FF49462046F9
:101C3000FFF75CFF41462046FFF76EFF394620461E
:101C4000FFF7D0FF31462046FFF77AFF20462946AE
:101C5000FFF78CFF4620BDE8F84300F04FBB00BF04
:101C600000B585B001230022039302938DE80C0098
:101C70000323FFF7CBFF05B05DF804FBF0B572B6A8
:101C800099B902688AB103790F2B0ED8274C2188A5
:101C900041FA03F5ED070AD503F1007303F59063EC
:101CA000B2EB431F03D162B6F0BD204C2188002364
:101CB00041FA03F212F0010207D00133102BF7D1E1
:101CC00062B6002203710260F0BD01259D402943E8
:101CD000218062B6164E174D174FDFF864E0D9B277
:101CE0000171346844F0020434602C6844F002044A
:101CF0002C60A6F580268224A5F5802503F10073CB
:101D00003C6003F59063223E243D0C4C8EF800109D
:101D10005B0131702970217003601A605A609A600B
:101D2000DA601A615A619A61DA61F0BD8697FF1F25
:101D3000408004403C800440008000401F80004000
:101D40001A80004003790F2B11D8094A10B4137080
:101D500072B6084904790A880123A34022EA0303E2
:101D60000B8062B61022002310BC02710360704722
:101D70001A8000408697FF1F00B5064A0368128844
:101D80005B6883B001A9ADF804200222984703B034
:101D90005DF804FBA0470000F0B507468BB0002AB1
:101DA00033D0012A08BF0A2251B3212400E0F4B243
:101DB000B1FBF2F502FB1511C8B2092900F130019F
:101DC00098BFC8B20AA988BF3730214488BFC0B2C3
:101DD00001F8240C661E2946002DE8D133B1013CE0
:101DE000E4B20AAB23442D2203F8242C3B6801AA59
:101DF00011195B683846C4F1220298470BB0F0BD58
:101E000030228DF825202124E8E70368C9B21B6839
:101E100098470BB0F0BD00BF0029BABF49422D233F
:101E200000230A22FFF7B8BF08B5FEF71FFBFEF735
:101E300051FB01F097FBFAE7844641EA000313F0F7
:101E400003036DD1403A41D351F8043B40F8043BC1
:101E500051F8043B40F8043B51F8043B40F8043B84
:101E600051F8043B40F8043B51F8043B40F8043B74
:101E700051F8043B40F8043B51F8043B40F8043B64
:101E800051F8043B40F8043B51F8043B40F8043B54
:101E900051F8043B40F8043B51F8043B40F8043B44
:101EA00051F8043B40F8043B51F8043B40F8043B34
:101EB00051F8043B40F8043B51F8043B40F8043B24
:101EC00051F8043B40F8043B403ABDD2303211D3C4
:101ED00051F8043B40F8043B51F8043B40F8043B04
:101EE00051F8043B40F8043B51F8043B40F8043BF4
:101EF000103AEDD20C3205D351F8043B40F8043BC4
:101F0000043AF9D2043208D0D2071CBF11F8013BC1
:101F100000F8013B01D30B8803806046704700BF87
:101F2000082A13D38B078DD010F003038AD0C3F196
:101F30000403D21ADB071CBF11F8013B00F8013B78
:101F400080D331F8023B20F8023B7BE7043AD9D337
:101F5000013A11F8013B00F8013BF9D20B7803700C
:101F60004B7843708B7883706046704708B5104C8F
:101F700008E0236859050DD423681A050FD4236897
:101F8000DB0411D423685803F3D500F051FB236818
:101F90005905F1D501F0B2FC23681A05EFD501F01F
:101FA00043FD2368DB04EDD501F0D4FDEAE700BF73
:101FB0003480044008B5FFF7D9FF00BF014B102261
:101FC0001A80704700200540704700BF094908B5D6
:101FD0000B6830B16A461844A2F58052904202D292
:101FE0000860184608BD01F06FFE0C2303604FF037
:101FF000FF3008BD388DFF1FEFF3138070B9EFF38A
:1020000010836BB9EFF305825AB94FF48070EFF388
:1020100011832BB1984228BF184670474FF0FF300C
:1020200070470F2A01D81846F1E7014BD05CEEE764
:10203000F0E300E001F076BE01F07CBEF0B44D1E8E
:102040002E46002400E00134B0FBF2F302FB130043
:10205000092800F130078ABF3730F8B2C0B206F85D
:10206000010F1846002BEED10A1953704CB11078AD
:1020700015F8016F28700133E01A834202F80169F4
:10208000F5DB0846F0BC7047704700BF1C4A02EB06
:10209000C00301295B6811D004291BD052F830001D
:1020A000002280F8802229B1022920D0032922D0E1
:1020B0001A6070474FF480721A60704752F830000F
:1020C0004FF4A27280F880121A601A6822F020027F
:1020D0001A60704752F830104FF4A272012081F854
:1020E00080021A601A6842F020021A60704740F2BB
:1020F00003121A6070474FF481721A60704700BF74
:10210000A4470000212848D8F8B5042A44D8DFE8BD
:1021100002F0484B4E0345004FF410262B4B03EBC7
:10212000C0030D465C68216811F4E06148D0284B7B
:10213000284A2949C3F89C2104F140422748C3F8A2
:10214000A411A2F59221264FC3F8A0017C292548AD
:10215000C3F8A871C3F8AC012CD9A2F594237C2B49
:102160002AD9A2F596237C2B28D9A2F598237C2B7B
:1021700029D9A2F59A227C2A27D81B4872B623684F
:1021800023F4702343F08072C4F384011643236068
:1021900040F82150266062B6F8BD70474FF43026F3
:1021A000BCE74FF40026B9E74FF44026B6E74FF4FA
:1021B0002026B3E70D48E1E70D48DFE70D48DDE7EE
:1021C000FFF764FFB3E70C48D8E7F8BDA447000069
:1021D0000082FF1FD187FF1F7987FF1FA587FF1F81
:1021E0004D87FF1F2187FF1F148EFF1F3C8DFF1F90
:1021F000748DFF1FC48DFF1FF48DFF1F1A4B03EB5F
:10220000C00010B4426802F14043A3F592217C293A
:1022100023D9A3F594217C290DD9A3F596217C29F6
:102220001FD9A3F598217C2919D9A3F59A237C2BD2
:1022300011D80E4C00E00E4C72B613680D4823F016
:102240008773C2F3840123F4803343F080731360F7
:1022500044F8210062B610BC7047074CECE7074C0D
:10226000EAE7074CE8E700BFA4470000148EFF1F11
:10227000748DFF1F892000003C8DFF1FF48DFF1F10
:10228000C48DFF1F30B4054B054D064C00221021B4
:102290001A602A602060196030BC704714D0034077
:1022A00004D0034000D00340212801D8FFF7EEBE40
:1022B000704700BF72B60D490D4B0E4A1B68086887
:1022C000126862B6520102D5322B88BF01300A492A
:1022D000C3F58C334FF47A7203F23F13A1FB03135F
:1022E00002FB00F000EB1310704700BF8897FF1F40
:1022F00018E000E004ED00E0398EE3382DE9F84302
:10230000054672B6214F224B224A1B683C68126870
:1023100062B6520102D5322B88BF0134A5B3C3F592
:102320008C331D4EDFF86890DFF8688003F23F13AE
:102330004FF47A72A6FB031302FB04F404EB1314AC
:1023400072B6D9F800103A68D8F800E062B6C1F564
:102350008C3303F23F13A6FB03031EF0806FC4EB24
:1023600013134FF47A7002D0322988BF013200FB78
:102370000233B3F57A7F04D3013D05D004F57A74B6
:10238000DEE701F0EFF8DBE7BDE8F8838897FF1F91
:1023900018E000E004ED00E0398EE338F8B52D4B8D
:1023A0002D49DFF8D0E0DFF8D0C02C4E2C4D2D4C5D
:1023B0002D4A2E4F4FF4000018604FF080701860C7
:1023C0004FF0007018604FF0806018604FF00060B0
:1023D000186000200860282348F6FF71CCF8001030
:1023E000CEF80030336013602B6023603B60B36233
:1023F0009362092245F8242CC4F8D80F05F57F65AF
:10240000C7F8D41F07F5FF2707F5FA67C6F8F83FA6
:102410002B6006F5FF26C4F8D42F05F5FD2504F53D
:10242000FF24386006F2F4761148316005F5FF6547
:1024300004F5FD642B602360026001F0DFF91920D0
:10244000FFF75CFF00F05CFE40F21310BDE8F840BF
:10245000FFF754BF08E100E004800340148003400C
:10246000248003402C8003401C80034034800340C0
:1024700000800B400C80034008800340431E032B68
:1024800014D872B60A4951F8230068B170B4094CE7
:10249000058834F81320466841F82360521B24F85D
:1024A000132062B670BC704762B670470020704758
:1024B000E497FF1F689AFF1F013803280BD872B6F4
:1024C000074B53F8203043B100205B680130002BEC
:1024D000FBD162B67047002070471846F9E700BF8D
:1024E0003898FF1F30B472B62B4A13781D0706D5F3
:1024F0002A4B196A002936D0996A002941D05378AD
:102500001C0706D5254B196C00293ED0996C002973
:1025100039D09378190705D5204B196E002936D08C
:10252000996E89B1D3781B0707D51C4BD3F880204F
:102530007AB3D3F8882011213AB162B6184B002241
:102540001A7030BC00F07EBE0D21154C154D22785E
:1025500043F8315003EBC1030830013A5860227050
:1025600062B630BC704704220D4C0F4D217843F801
:10257000325003EBC20308304A1E5860227062B624
:10258000EFE70521E1E70921DFE70822ECE70C226C
:10259000EAE71022E8E700BFDC4800000080FF1FE8
:1025A0006198FF1FC800400088004000431E032BB5
:1025B0001DD81B4A400140F0100030B4104472B6E0
:1025C000184CE25C032A1BD8DFE802F00212151750
:1025D00003220D88E25410F0080F14BFC82388238B
:1025E00043EA054308310360416062B630BC70477E
:1025F00008300222EDE70522EBE708300422E8E785
:10260000094A52F8230038B1084A52F823004160C1
:1026100042F8231062B6E9E742F82310034AF7E7CD
:102620000080FF1F7098FF1F3898FF1F4898FF1FFA
:102630002DE9F04FDFF80CB3DFF80CA387B044E0CE
:10264000AB4F4FEA930807EBC809013ED9F80420C5
:1026500003F00803F6B2A2F1080003F0FF04002B18
:1026600040F0028157F838301B0C99B222F8081C50
:10267000002B00F0F0809F4B22F8064C42F8044CEF
:1026800053F82620002A00F0C5829B4D55F82630CD
:1026900058609A4C45F8260034F81630194424F84E
:1026A000161000F0AFFD002800F0AD82944A954B63
:1026B00019F0080F00F1080018BF1346C9F804000C
:1026C00047F8383008238BF800309BF80040E4B21C
:1026D00061071AD58C4B1B78A3B18C490A7802F09C
:1026E000FF0322B1013BDBB20B7003B900BE884986
:1026F0000A7802F0FF032AB1013BDBB20B70002B1A
:1027000000F0578204238BF8003004F0080303F034
:10271000FF02002B00F0CC809AF80030DBB21E09DB
:102720008ED19C08DFF8C89159F8342009EBC40118
:10273000C2F38302013A49680C2A00F28880DFE87C
:1027400002F07C7C8686868686864786868607009B
:102750000868704D4A68704F704E286081B240F230
:102760008160674B6A604FF0010E0022814249F898
:1027700034303A60C9F81020C9F8182086F800E013
:102780005B4C00F2E380B1F5D06F80F04683B1F589
:10279000817F00F0FC8200F28D82802900F0778337
:1027A000822940F0FA82A98801F07F01042900F211
:1027B000F4825B485B4C89000844227062700278A6
:1027C000930740F1588484F800E04FF0020E42E392
:1027D000514F3A6832B3544B504E544918883478AC
:1027E0000D784028864645F0020828BF4FF0400E7D
:1027F000002C84F001043470CEEB00000CBF882460
:10280000C82409EBC80680B285F0010544EA0E44ED
:102810007260188049F8384072440D70002800F04A
:1028200045813A603B4B1A88B2F5A06F0FD1002169
:102830009A7859703E4B1A7009E0364A108842F275
:102840002102904200F037812D4A49F83420394A5C
:102850000123137036E72A4A2A4B19F0080F18BFD4
:10286000134647F838302DE700F0ECFC324A334984
:1028700052F82630002B00F0D18158688C5D42F868
:10288000260003F10802C9F80420032C05D8DFE86C
:1028900004F02C02292602228A551A8819F0080F02
:1028A0000CBF8823C82343EA024347F8383009E7BE
:1028B000E00700F18181210600F1F281A20706D52F
:1028C0001F4A204913780220DBB213700870E30618
:1028D00002D51C4B10221A7007B0BDE8F08F0422FD
:1028E0008A55DAE705228A55D7E703228A55D4E7C5
:1028F0000080FF1FE497FF1F9097FF1F689AFF1F3C
:10290000C8004000880040006C98FF1FF597FF1F2B
:102910007498FF1F5898FF1F8C97FF1FF497FF1F95
:10292000C02007406498FF1FA097FF1F6098FF1FFB
:1029300098200740942007403898FF1F7098FF1F89
:1029400088200740802007409020074042F2210065
:10295000814200F02A8100F2D880B1F5086F00F0C2
:102960007682B1F5106F40F01882226AB349A878D8
:102970000870120600F13A83D9F82820B0491306EE
:1029800000F10C83D9F83020AD49150600F1018320
:10299000D9F83820AA49140600F1F682D9F8402067
:1029A000A749100600F14A83D9F84820A449120625
:1029B00000F13F83D9F85020A149130600F1348378
:1029C000D9F858209E49150600F12983D9F86020CE
:1029D0009B49140600F11E83D9F868209849100617
:1029E00000F11383D9F870209549120600F108838D
:1029F000D9F878209249130600F1FD82D9F8802099
:102A00008F49150600F13183D9F888208C491406C6
:102A100000F12583D9F890208949100600F1198327
:102A2000D9F898208649120600F10D838548864A18
:102A3000864901908648874D874C04970023059668
:102A4000029580460F4616461D460394306828B10D
:102A5000446800F0F7FB2046002CF9D100233360D6
:102A6000029B38681A46002342F8253028B1446892
:102A700000F0E8FB2046002CF9D100223A60019AD0
:102A800098F800301146002241F8042B039A019176
:102A9000023B4FF0000122F81510032B00F22B81AE
:102AA000DFE813F07001250170012501BEF1400F30
:102AB00018BF0022B5E6694A0D7848781570507045
:102AC0008D78C8789570D07010680D79157186284A
:102AD0004D7989795571917100F09B816049614E02
:102AE0000A78307882F00105002842F002020D7069
:102AF0000CBF8821C82149F8321009EBC20280F0CE
:102B000001000021307051609EE642F22120814296
:102B100040F0CB81544B554C5549A8781D68256031
:102B2000CDF804E0087000200290804684460446F8
:102B30004B490D7845F0020E09EBCE030393019B40
:102B4000002B039B5C600CBF8824C82444EA080364
:102B500085F0010449F83E3032700C70DFF8E0E097
:102B6000404BDFF8FC80002840F01E81BCF1400F94
:102B70001BD144F0020C09EBCC03029CDFF8C0E04F
:102B80005C60002A40F02681020442F088029DF831
:102B900004304EF83C20044433700D702346402826
:102BA00003D10020334A3B601080334A0123137065
:102BB0004DE600F0B3FCA5E5214B2F4828491A61EA
:102BC0004FF0020E80F800E02C4F0A702C4919607B
:102BD00099602C4E2C4D2D4C9A610D213970FF219E
:102BE0003170DFF8B8E029702270294D294A8EF83B
:102BF00000109F27012406F8047C5D600470DA60F1
:102C000007B0BDE8F08F244A47F838001378013345
:102C1000137057E543F826000E4D3AE58B5D032B04
:102C200000F2F08001A252F823F000BFC526000098
:102C3000C5260000E92C0000E32C00006C98FF1F63
:102C40000080FF1F4898FF1FE497FF1F3898FF1F61
:102C50007098FF1F9097FF1F689AFF1F709AFF1FC1
:102C60006098FF1FF497FF1F8897FF1F789AFF1F38
:102C70008498FF1FA097FF1F94200740C0200740A3
:102C800088004000882007408020074098200740A7
:102C9000A497FF1FF897FF1F6198FF1F8C20074024
:102CA000C149C24B80220D2008701A70A2077FF51F
:102CB0000EAE05E640F20232914240F0EE80A98865
:102CC00001F07F01042968D86A88002A65D1B648D6
:102CD000CDF804E089000844017841F00201017058
:102CE00021E701238B55EDE400238B55EAE44FF0F7
:102CF000010388F800300135042D06F1040607F1C0
:102D0000040708F101087FF4A1AEA94CA94B227871
:102D1000A94D049F059E002129701A70130700F128
:102D200005816278A549DFF8A0820A7010074FF08C
:102D30000001C9F83010C9F8381000F1E080A0494E
:102D4000A2780A700021C9F85010C9F8581011076C
:102D5000DFF8748200F10181E2789A499A4C0A7096
:102D600000211207C9F87010C9F8781000F1B0807E
:102D700033780193002183F00102C9F89010C9F85B
:102D80009810D0E64FF0000388F80030B3E7A98828
:102D900001F07F01042940F28D80834A0F231370D4
:102DA0008A4A0123137052E540287FF6E2AE44F0D0
:102DB00002040EEBC401029E4E60BAB19DF80410ED
:102DC000834A19703346403888F8005040334EF833
:102DD0003420E7E69DF8043033700204029B0D7046
:102DE00042F0C80203444EF83C20D8E69DF8041097
:102DF0001970029B774A88F80050403840334EF8EB
:102E00003420CFE619F0080F0CBF022303238B55A3
:102E100058E4714A0F21117060E6704A5468002C22
:102E2000BBD06888B5F804E003E00C325468002C8D
:102E3000B3D013888342F8D153887345F5D1000A83
:102E400003280CBF94F800E0B2F808E003E0644AFD
:102E5000644C12782270E888704580F03F816249A6
:102E60000D784028844645F0020E28BF4FF0400CF4
:102E700004EB0C0309EBCE02029301235460CCEB6C
:102E800000004FEA0C4800220193C8245EE6554C2E
:102E90004FF0020E22706270DDE7B1F5A06F7FF493
:102EA0007CAF0123002201933DE642F221329142A0
:102EB000F7D072E76A88002A7FF46FAF3A48CDF8FE
:102EC00004E089000844017821F0020101702AE63B
:102ED00000F098F9002800F0EF8008303D4AC4F86F
:102EE0008400C4F8802000F08DF9002800F0DE8016
:102EF0000830374AC9F88C00C9F8882038E700F054
:102F000081F9002800F0C0800830324AC8F8440037
:102F1000C8F8402000F076F9002800F0AF800830B3
:102F20002B4AC9F84C00C9F8482008E700F06AF9B4
:102F3000002800F0CD800830264AC9F82400C9F8DE
:102F4000202000F05FF9002800F0BC800830204A03
:102F5000C9F82C00C9F82820E3E600F053F900284E
:102F600000F09E8008301B4AC8F86400C8F8602052
:102F700000F048F9002800F08D800830144AC9F8A4
:102F80006C00C9F86820E7E6C86B083800F05AF909
:102F900004E5486B083800F055F9F9E4C86A0838C8
:102FA00000F050F9EEE400BFC02007408020074049
:102FB000DC480000C42007406198FF1FC82007407C
:102FC000CC200740D02007400080FF1F94200740FE
:102FD000C800400088004000F597FF1FE04800004F
:102FE0006C98FF1F6498FF1F6098FF1F606A083885
:102FF00000F028F9C0E4C86F083800F023F9FDE4B8
:10300000486F083800F01EF9F2E4C86E083800F086
:1030100019F9E7E4486E083800F014F9DCE4C86DEB
:10302000083800F00FF9D1E4486D083800F00AF9CB
:10303000C6E4C86C083800F005F9BBE4486C0838F1
:1030400000F000F9B0E4D1F89C00083800F0FAF87C
:10305000ECE4D1F89400083800F0F4F8E0E4D1F89A
:103060008C00083800F0EEF8D4E4D1F88400083879
:1030700000F0E8F8C8E44FF0020EECE62A78C9F850
:10308000480001322A705AE62A78C8F84000013216
:103090002A703FE72A78C9F8680001322A705BE697
:1030A0002A78C8F8600001322A7061E72A78C9F8E6
:1030B000880001322A705BE62A78C4F88000013269
:1030C0002A7010E72A78C9F8280001322A7028E609
:1030D0002A78C9F8200001322A7032E7BEF1400F89
:1030E000F44628BF4FF0400C04EB0C03029301237D
:1030F000CCEB0E004FEA0C480022019318E500BF0C
:10310000F8B500F093FD294B29482A4C2A4F2B4D46
:10311000DFF8BCC0DFF8BCE0294E00221A605A601C
:103120009A60DA601A615A619A61DA611A625A62C7
:103130009A62DA621A635A639A63DA631A645A64A7
:103140009A64DA641A655A659A65DA651A665A6687
:103150009A66DA661A675A679A67DA67C3F8802050
:103160000168C3F8842041F480210160C3F3072182
:103170002170C3F30740134938701B0E2B70FF23D7
:103180008CF80030104D8EF8003010480B70012381
:10319000337084F8642070264FF40074102207F80E
:1031A0002C3C2E70046081F8F820F8BD0080FF1FD1
:1031B000348004409C200740B0200740B4200740E2
:1031C000942007401020074049E400E008E100E0B7
:1031D000802007408820074000F0A4B800F07CB8A9
:1031E00000F056B800F090B800F06CB900F046B9A5
:1031F0000846114600F0B2B8084600F033B900BFE7
:10320000704700BF72B60D480268B2FA82F30B2B0A
:1032100010DC4FF00041D94022EA0102026062B6A0
:10322000074803EBC303DB00C2180021C15010465E
:103230005160704762B60020704700BF2C8EFF1FA0
:10324000BC83FF1F0D4B0E4AC31AA2FB03231B09AD
:103250000B2B0CD80B4A127852B972B60A484FF0B1
:103260000041026821FA03F31A43026062B6704714
:10327000064A1278002AF0D0FFF734B9BC83FF1F4A
:10328000398EE3386198FF1F2C8EFF1F6C98FF1F4B
:1032900038B50F4D286878B143880288C1180133CA
:1032A00093420C7A02D24380204638BDFFF7CAFF12
:1032B000002320462B6038BD064B1B782BB1032022
:1032C000FFF7DCF828600028E6D14FF0FF3038BD6A
:1032D0008098FF1F6C98FF1F10B5094C206818B12B
:1032E00043881844007A10BD064B1B782BB103208D
:1032F000FFF7C4F820600028F2D14FF0FF3010BD76
:103300008098FF1F6C98FF1F044B054A1B6890882C
:103310001BB11A885B88D31A184470478098FF1F26
:10332000689AFF1F0B4B1B789BB110B50A4C2068A5
:1033300048B1FFF787FF002303202360FFF79EF8C3
:1033400030B1FFF77FFF0320FFF798F80028F8D18E
:1033500010BD70476C98FF1F8098FF1F2DE9F04F3C
:10336000DFF8F89083B0012289F80020019169B359
:10337000DFF8EC80364F019E8346D8F80000B0B3EA
:10338000344D4488C4F14001B14228BF314604EBBA
:10339000010E00221FFA8EFE2A70761AA0F802E0B3
:1033A00000F1080251B1013C224459441BF8014B81
:1033B00002F8014F8B45F9D1B0F802E0BEF13F0FA2
:1033C0000BD8254A05211170002ED6D10198002373
:1033D00089F8003003B0BDE8F08F4022028001463A
:1033E0000420FFF7E3F80022C8F80020E9E73A7864
:1033F0002AB3184D48F601444FF0010A07E0013C9A
:1034000016D02A78A2B900F0ADF83A78BAB1042003
:10341000FFF752F80728F2D889F800A0FFF7F2FE6C
:10342000C8F800000028ACD10C4B013C1870E8D162
:1034300001234FF0FF302B7003B0BDE8F08F002365
:103440004FF0FF3089F8003003B0BDE8F08F00BFC7
:103450006C98FF1F7C98FF1F7498FF1F7598FF1FC3
:103460007898FF1F00B583B002AB012103F8010D6E
:103470001846FFF773FF03B05DF804FB38B50E4D37
:103480000E4C28680123237028B140880023237044
:10349000C0F1400038BD0A4B1B7813B900202070E2
:1034A00038BD0420FFF708F80728F7D8FFF7AAFE71
:1034B00028600028E9D1F1E77898FF1F7598FF1F71
:1034C0006C98FF1FF8B5114B1B788BB1104E114D46
:1034D000346801272F7064B10F4A63880027177082
:1034E000214623800420FFF761F8376000232B700A
:1034F000F8BDFFF787FE084B28B1014604201C7079
:10350000FFF754F8F2E71F70F0E700BF6C98FF1F59
:103510007898FF1F7598FF1F7498FF1F38B50E4BE2
:103520001B7873B90D4C216861B103F0FF054B881E
:103530000B800420FFF73AF8256038BD084B0122C4
:103540001A7038BDFFF75EFE0028F7D00146BDE8CF
:1035500038400420FFF72AB87598FF1F7898FF1F9E
:103560007498FF1F38B5224C237803B138BD01236E
:103570002370FFF7C9FE70BB00F0B0F940BB00F04C
:1035800043FA10BB00F0D6FAE0B900232370EFF342
:103590000583002BEAD1EFF3108172B6154B186842
:1035A000E0B1154C2278CAB945691D60012323702A
:1035B000C5B1AA6101B962B600254577836898470D
:1035C0002570D3E700F018F9DFE700F013F9D9E729
:1035D00000F00EF9D3E7FFF713FECDE70029C5D1C0
:1035E00062B638BD054B1D600029E5D1E3E700BF99
:1035F0008598FF1F9898FF1F9C98FF1F9498FF1FA6
:1036000010B4EFF3108272B6437F33B9017F012902
:1036100007D003290FD00123437702B962B610BC4B
:103620007047124C2168A1B1114943610B68836155
:1036300008605861EFE70F4C216881B10E49436182
:103640000B688361086058610C4B4FF08051196022
:10365000E1E7074B4161816120601860DBE7064BC1
:103660004161816120601860EEE700BF9898FF1FFC
:103670009498FF1F8898FF1F8C98FF1F04ED00E0AF
:1036800010B4047F4160022CC26002D010BCFFF76E
:10369000B7BF836810BC184770B5EFF3108272B6DD
:1036A0000C4C206880B10C4E00254369236073B137
:1036B0009D6102B962B6457783689847EFF310823F
:1036C00072B620680028F0D102B962B670BD3360CE
:1036D000EFE700BF8898FF1F8C98FF1FFFF7DCBF44
:1036E000184A30B41468002C27D0036821688B4234
:1036F0000ED2CB1A00218460C1602360E0601060AC
:103700000223037530BC704711688B42144608D3FE
:10371000A2685B1A0360002AF6D18260C460A060D0
:10372000EEE7D268C2608460E060C568CB1A02220E
:10373000A8602360027530BC70478460C46010606C
:10374000DEE700BF9098FF1FF8B5224E34682CB317
:103750002368002B3AD1204F1D4604E03468ECB1B9
:103760002368002B32D1A36803B1DD602069336088
:10377000036825751B68BB4221D1037F4560022B7E
:10378000C46020D0FFF73CFF6368002BE6D02360C5
:103790002046FFF7A5FF3468002CE1D1EFF310833A
:1037A00072B60E4A00211068116003B962B628B1E2
:1037B0008468FFF795FF20460028F9D1F8BD22461E
:1037C00000219847E0E783689847DDE7013B2360E5
:1037D000E4E700BF9098FF1F81360000A098FF1F0C
:1037E000024A136801331360FFF7AEBF8897FF1FCB
:1037F000704700BF704700BF704700BF30B4294812
:10380000294A2A4B2A4D6024E121047011701B784B
:10381000284C082B30D00A2B2748284937D00C2BAE
:103820000CBF15223D2212232A60236002600B6028
:10383000234B24491B78244ABBB101230B6013603E
:10384000224B23491B78234A012B26D9042B0FD95D
:10385000082B1ED9102B94BF862387230B6013607F
:103860001D4B01221A7030BC70470B601360E7E7F4
:1038700084230B601360F3E700F58E200F490830B6
:10388000012213232A60236002600B60D0E7192213
:10389000F7E785230B601360E2E780230B6013607A
:1038A000DEE700BF0040074001400740308EFF1FA9
:1038B00008B003400CB0034008B00B400CB00B4004
:1038C000A598FF1F20B0034020B00B40318EFF1F92
:1038D00024B0034024B00B40A498FF1F054A064BB8
:1038E00010781B78C0B2DBB2984238BF4030C01AA3
:1038F000704700BFAC98FF1FAD98FF1FF0B4384B66
:103900001A7912F0300F2CD072B6997D01F0FF02B7
:1039100000293DD062B6334F334938780D78334EA5
:103920001C46C0B2EDB2431C402BE17928BF0023F6
:10393000AB4202F1FF32C9B21CBFF154184612F07B
:10394000FF02F0D12A4B1B68C2B23A704BB1A842B9
:1039500036BFC5F14005401B40192728C4BF0122CE
:103960001A701F49CA78D2B2150616D452060DD560
:103970001B4B1B795B0609D51E4B1F491B68002298
:103980000A7003B11A70164B3C22DA70F0BC704713
:103990004022D9795A7462B6E3E70B791C06E5D563
:1039A000164B174E1C783378E4B2DBB29C420ED033
:1039B000144D01E0A3420AD00133402B28BF00235D
:1039C0000879E85CC0B2C871087D0728F2D9DBB27B
:1039D000034933700B79180644BF7C23CB70C5E7CD
:1039E00000A00640AC98FF1FAD98FF1FF098FF1F86
:1039F000A898FF1F3499FF1F3099FF1F3899FF1FA8
:103A00003199FF1FB098FF1F054A064B10781B78AD
:103A1000C0B2DBB2984238BF4030C01A704700BF16
:103A2000AC99FF1F4199FF1FF0B4384B1A7912F07F
:103A3000300F2CD072B6997D01F0FF0200293DD0E5
:103A400062B6334F334938780D78334E1C46C0B2D6
:103A5000EDB2431C402BE17928BF0023AB4202F1B9
:103A6000FF32C9B21CBFF154184612F0FF02F0D168
:103A70002A4B1B68C2B23A704BB1A84236BFC5F19F
:103A80004005401B40192728C4BF01221A701F4956
:103A9000CA78D2B2150616D452060DD51B4B1B7927
:103AA0005B0609D51E4B1F491B6800220A7003B133
:103AB0001A70164B3C22DA70F0BC70474022D9795C
:103AC0005A7462B6E3E70B791C06E5D5164B174E20
:103AD0001C783378E4B2DBB29C420ED0144D01E086
:103AE000A3420AD00133282B28BF00230879E85CC1
:103AF000C0B2C871087D0728F2D9DBB20349337020
:103B00000B79180644BF7C23CB70C5E700B0064094
:103B1000AC99FF1F4199FF1F6C99FF1F3C99FF1F34
:103B2000B099FF1F4099FF1FB499FF1FAD99FF1F68
:103B30004499FF1F054A064B10781B78C0B2DBB2D0
:103B4000984238BF4030C01A704700BFBC99FF1F71
:103B5000BD99FF1F30B42B4B1A7994061FD52A4804
:103B6000DA790378294901333F2B0978C8BF00234C
:103B70008B42D2B203D0264CD9B2E2540170254A0E
:103B8000116861B1244A1278D2B2934236BFC2F1B1
:103B900040029B1A9B18272BC4BF01230B70194AA4
:103BA000D378DBB2180611D45A060DD5154B1B7904
:103BB0005B0609D5194B1A491B6800220A7003B12C
:103BC0001A70104B2C22DA7030BC7047117909063C
:103BD000EAD5144910480C780178C9B28C420DD04E
:103BE0004A1C272A84BF00210A460F4D054C98BF66
:103BF000D1B2AA5CD2B2E2710170D5E76C21D1706A
:103C0000D2E700BF00C00640BC99FF1FBD99FF1F4F
:103C1000E899FF1FB899FF1F299AFF1F2C9AFF1FD1
:103C2000289AFF1F309AFF1FC099FF1F70B584B0FC
:103C300072B6194B194D1A48702241260F24802163
:103C40001A702E701A460470197013781B06FCD572
:103C5000144B186862B6144B144C984298BF00EB92
:103C6000800001A998BF40000A22FEF7E7F901A9E8
:103C70002046002311F8012B01333AB10A2B20F81A
:103C8000022FF7D11623237004B070BD5B00DBB2A6
:103C9000237004B070BD00BF000002400700024066
:103CA00006000240080002407F969800C08EFF1F69
:103CB0000B460146184600F001B800BF13460A46FD
:103CC0000146022000F00CBB014B1868704700BF92
:103CD0000093FF1F70B50F4E0F4D761BB61018BF27
:103CE000002405D0013455F8043B9847A642F9D189
:103CF0000A4E0B4D761B00F01FFEB61018BF0024B5
:103D000006D0013455F8043B9847A642F9D170BD5E
:103D100070BD00BF44490000444900005449000000
:103D200044490000024B0146186800F00BB800BF80
:103D30000093FF1F024B0146186800F095BB00BFBF
:103D40000093FF1F2DE9F04F01F10B05162D83B0F5
:103D5000064640F29F8035F0070500F1BF80A9427A
:103D600000F2BC8000F0A6FAB5F5FC7FC0F09C82A2
:103D70006B0A00F0BA80042B00F28381A80900F1DD
:103D8000390E4FEA4E033830C44F07EB8303A3F1DB
:103D900008015C68A14207D1ACE0002A80F2AC8047
:103DA000E468A14200F0A680636823F003035A1B75
:103DB0000F2AF2DDB9493C6901F1080E744500F0A3
:103DC000B381636823F003035A1B0F2A00F3998120
:103DD000002AC1F814E0C1F810E080F29E80B3F52B
:103DE000007F80F06781DB0803F1010C01229B104A
:103DF00002FA03F34A6851F83C80C4F8088001EBEA
:103E0000CC091A43A9F10803E3604A6041F83C4039
:103E1000C8F80C40831001249C40944200F28A8030
:103E2000144206D120F003006400144200F10400A3
:103E3000FAD007EBC009CC468046DCF80C108C4564
:103E400007D173E1002A80F28181C9688C4500F0B6
:103E50006D814B6823F003035A1B0F2AF2DD0C46D9
:103E6000D1F80CC054F8088F4B1945F001054D608E
:103E700042F00101C8F80CC03046CCF808807B61E4
:103E80003B61C3F80CE0C3F808E059609A5000F0B9
:103E900013FA1FE0102921D800F00CFA1025062390
:103EA00002207E4F07EB8303A3F108025C68944273
:103EB00000F045816368E168A56823F003032344AB
:103EC00030465A68E96042F001028D605A6000F0A5
:103ED000F3F90834204603B0BDE8F08F00240C232A
:103EE0002046336003B0BDE8F08F80234FF0400ED2
:103EF0003F2049E770465DE72344E1685A68A568BA
:103F000042F00102E96030468D605A6000F0D4F959
:103F10000834204603B0BDE8F08F234430465A6889
:103F200042F001025A6000F0C7F90834204603B09D
:103F3000BDE8F08FBC68636823F00308A84504D38C
:103F4000C5EB08030F2B00F38C80554BDFF8609115
:103F50001A68D9F8003001332A4404EB080A00F04B
:103F6000608102F580520F3222F47F6222F00F024C
:103F700011463046019200F0A1F9B0F1FF3F8346AF
:103F8000019A00F05881824500F2FC80454B196887
:103F9000DA451144196000F05381D9F80000DFF8C8
:103FA00010E101301BBFCAEB0B0A5144CEF800B040
:103FB00019601BF0070100F01781C1F10800C1F57D
:103FC0008051834408315A44C2F30B02C2EB010909
:103FD00049463046019300F071F9431C019B00F003
:103FE0003F81CBEB00024A4442F001021968C7F856
:103FF00008B04944BC42CBF804201960DFF8A49013
:1040000016D0B8F10F0F40F2FD806268A8F10C03E2
:1040100023F00703E01802F001024FF0050E1A43E7
:104020000F2B6260C0F804E0C0F808E000F21C81C9
:104030001D4BBC681A68914288BF19601B4B1A68F7
:104040009142626888BF196022F003029542A2EB98
:10405000050301D80F2B04DC304600F02DF90024B5
:1040600038E7621943F0010345F001056560304609
:10407000BA60536000F020F90834204603B0BDE870
:10408000F08F142B71D9542B00F2A480280B00F16F
:104090006F0E4FEA4E036E3076E600BF0493FF1FAB
:1040A0003C9AFF1F409AFF1F389AFF1F349AFF1F48
:1040B0001097FF1F5A0A042A5ED9142A00F2B3800F
:1040C00002F15C0149005B3207EB810C57F82110CB
:1040D000DFF8DC81ACF1080C8C4500F088804A6880
:1040E00022F00302934202D289688C45F7D1D1F8BD
:1040F0000CC07A68C4F80CC0A160CCF80840CC6051
:1041000088E6631942F0010745F001056560304615
:104110004B610B61C3F80CE0C3F808E05F609A5094
:10412000083400F0C9F8D5E64A6873E608F10108DA
:1041300018F0030F0CF1080C7FF47FAE30E0DC6860
:10414000A34208BF02303FF435AEB3E60B440C4641
:104150005A68C96854F8085F42F001025A60304654
:10416000E9608D6000F0A8F8B4E603F15C0E03F19D
:104170005B004FEA4E0307E69A0902F13901490054
:104180003832A1E7BC424A4B3FF400AF9C686268FA
:1041900022F003025AE759F80839994540F0828025
:1041A00010F0030F00F1FF30F5D17B6823EA040320
:1041B0007B6064009C423FF6BDAE002C3FF4BAAE7B
:1041C0001C4240467FF435AE64001C4200F10400FE
:1041D000FAD02EE6B3F5AA7F18D8E80B00F1780ED6
:1041E0004FEA4E037730CFE54FF48051EBE60121E3
:1041F000D8F80430921001FA02F21A43C8F80420E9
:10420000614677E70123CBF8043025E740F25452AA
:10421000934220D8A80C00F17D0E4FEA4E037C306B
:10422000B2E51032A4E6542A26D81A0B02F16F0127
:1042300049006E3248E7BC68626822F0030205E775
:10424000CAF30B0000287FF4A8AE4244BB6842F0DA
:1042500001025A60ECE6FE234FF07F0E7E2093E5CC
:1042600001224FF00009C1E604F10801304600F0D8
:10427000FBF8D9F80010DBE6B2F5AA7F05D8DA0B17
:1042800002F17801490077321EE740F254518A4228
:1042900005D89A0C02F17D0149007C3214E7FE2119
:1042A0007E2211E77B6884E7E808431C5B00F8E5A1
:1042B0000493FF1F704700BF704700BF38B5074C1D
:1042C0000023054608462360FDF780FE431C00D00E
:1042D00038BD2368002BFBD02B6038BD7C9AFF1FB4
:1042E0002DE9F047254C2568D5F848410646884613
:1042F00092469946C4B360681F2817DC431C76B108
:1043000004EB80050122C5F888A0D4F8881182400A
:104310001143022EC4F88811C5F808911ED002304E
:10432000636044F820800020BDE8F087144B03B39D
:104330004FF4C870FFF7F6FC0446D0B1D5F8483109
:10434000002780E88800C5F8484138460123C4F8B2
:104350008871C4F88C71002EE1D0D1E7D4F88C11AB
:104360000A43C4F88C21DAE705F5A674C5F848417C
:10437000C1E74FF0FF30BDE8F08700BF34490000CF
:10438000253D0000024B13B1024800F005B870470C
:1043900000000000A5430000002301461A4618460D
:1043A000FFF79EBF38B5074D074C2C1BA41005D056
:1043B000013C55F8043D9847002CF9D1BDE8384040
:1043C00000F0C8BA0000000000000000F8B5234F5C
:1043D0000C460646FFF76EFFBB685D6825F00305D7
:1043E000291B01F6EF7121F47F6121F00F01A1F586
:1043F0008054B4F5805F07DB00213046FFF75EFF95
:10440000BB682B44984204D03046FFF755FF00208C
:10441000F8BD61423046FFF751FF01300DD0104B1F
:10442000BA6819682D1B45F001053046091B556017
:104430001960FFF741FF0120F8BD00213046FFF76A
:104440003DFFBA68831A0F2BDEDD064C0449246851
:1044500043F00103001B53600860D5E70493FF1F7E
:10446000409AFF1F1097FF1F002945D02DE9F0410A
:104470000D468046FFF71EFF55F8047C6A4927F079
:104480000103A5F10804E2188E685068B24220F0DA
:10449000030062D0FE0750600BD455F8087CE41B83
:1044A00001F1080EA56875453B446FD0E768EF60E1
:1044B000BD6015186D68ED0742D543F001026260DA
:1044C000E350B3F5007F18D2DB085A1C4D6851F851
:1044D0003270A76001209B1000FA03F301EBC200C9
:1044E0001D430838E0604D6041F83240FC604046B2
:1044F000BDE8F041FFF7E0BE70475A0A042A53D8DE
:104500009A0902F139077F0002F1380501EB8700B3
:1045100051F827204449083890424DD0516821F085
:1045200003018B4202D292689042F7D1D068E060DA
:10453000A2608460D4604046BDE8F041FFF7BCBE95
:1045400095683A4FBD4203443FD0D068E86043F0DD
:10455000010285606260E350B3E7FF07034407D4BC
:1045600055F8082CA41A1344A068E268C260906051
:104570002F4A126843F00100934260608C60B6D30A
:104580002C4B40461968FFF721FFB0E71118496826
:10459000C90744D49168D268CA60034443F001005B
:1045A00091606060E350A2E7142A17D802F15C071B
:1045B0007F0002F15B05A9E7AA104B68012505FA07
:1045C00002F213434B600246B1E743F001024C6133
:1045D0000C61E560A5606260E35088E7542A06D864
:1045E0001A0B02F16F077F0002F16E058EE7B2F53C
:1045F000AA7F06D8DA0B02F178077F0002F177056F
:1046000084E740F25450824206D89A0C02F17D07AA
:104610007F0002F17C0579E7FE277E2576E743F0EF
:1046200001026260E35062E70493FF1F0C93FF1FD7
:104630000C97FF1F3C9AFF1F7A65726F43616C698C
:1046400062726174696E672E2E2E0000646F6E6553
:104650002E00000058313A002020593A0000000096
:1046600020205A3A00000000000000000000000076
:10467000C10500002106000061050000BD05000025
:1046800065050000750500009D0500001400000090
:1046900016000000180000001A0000001C000000B6
:1046A0001E00000020000000220000002400000086
:1046B000280000002C000000300000003400000042
:1046C000380000003C0000004000000044000000F2
:1046D000480000005000000058000000600000008A
:1046E00068000000700000008000000088000000EA
:1046F00090000000A0000000B0000000C00000001A
:10470000E0000000F00000000001000020010000B7
:10471000400100006001000080010000C0010000B5
:10472000E0010000000200004002000080020000E2
:104730000003000080030000C0030000000400002C
:104740008004000000050000000600008007000053
:10475000000700000008000000090000000A000037
:10476000000C0000000F0000000102030405090610
:104770000A070C0D430E45120F13141519161A17BC
:104780004F1C1D551E221F23242595262A272B2C1E
:104790002D2E322F33343536373A3B3C3D3E3FFFEA
:1047A0000D0AFFFF4008FE4340A004404408FE43BA
:1047B00044A004400018FE4300C004403000FE4303
:1047C000309004403400FE43349004401C18FE43F3
:1047D0001CC004401018FE4310C004400818FE43DB
:1047E00008C004400C18FE430CC004400C10FE43EB
:1047F0000CB004401010FE4310B004401810FE43EB
:1048000018B004401C10FE431CB004401410FE43BA
:1048100014B004400418FE4304C004400010FE43DA
:1048200000B004400008FE4300A004400408FE431A
:1048300004A004400C08FE430CA004400808FE43FA
:1048400008A004401418FE4314C004401818FE4386
:1048500018C004400410FE4304B004400810FE4396
:1048600008B004401400FE43149004404C08FE437A
:104870004CA004400420FE4304D004402410FE4316
:1048800024B004402010FE4320B004402810FE4312
:1048900028B004402C10FE432CB004400020FE43FE
:1048A00000D004404808FE4348A004401000FE43E6
:1048B000109004400000000000000000F9310000EA
:1048C000F1310000ED310000E9310000E531000078
:1048D000E1310000DD310000D9310000001519156B
:1048E00000010000348EFF1F1200000000020000D3
:1048F000608EFF1F4300000000030000BC8EFF1FFE
:104900000000000001030904488EFF1F00000000A2
:1049100002030904A48EFF1F000000000303090422
:10492000C08EFF1F0000000000000000000000001B
:1049300000000000D88EFF1FF8B500BFF8BC08BC0F
:104940009E46704785430000350400005505000071
:04495000AD1900009D
:04495400F8B500BFF3
:0849580058F3FF7F010000008D
:1049600038B5084B1C681C6054B1074D94FAA4F389
:10497000B3FA83F355F823309847631E1C40F5D1F2
:1049800038BD00BFA0D00440148EFF1F38B5084BBF
:104990001C681C6054B1074D94FAA4F3B3FA83F376
:1049A00055F823309847631E1C40F5D138BD00BF31
:1049B000A0C00440F48DFF1F38B5084B1C681C6074
:1049C00054B1074D94FAA4F3B3FA83F355F82330A6
:1049D0009847631E1C40F5D138BD00BFA0B004400D
:1049E000C48DFF1F38B5084B1C681C6054B1074DBF
:1049F00094FAA4F3B3FA83F355F823309847631E6F
:104A00001C40F5D138BD00BFA0A00440748DFF1F2D
:104A100038B5084B1C681C6054B1074D94FAA4F3D8
:104A2000B3FA83F355F823309847631E1C40F5D141
:104A300038BD00BFA09004403C8DFF1F0000000067
:104A400000600640016006400260064003600640C8
:104A500004600640056006400660064007600640A8
:104A600008600640096006400A6006400B60064088
:104A70000000000000000000000000000000000036
:104A80000000000000000000000000000000000026
:104A90000000000000000000000000000000000016
:104AA0000000000000000000000000000000000006
:104C800000000000000000000100131200000000FE
:104C9000A0860100010000000000000000000000EC
:104CA0000000000000000000000000000000000004
:104CB00000000000000000000000000000000000F4
:104CC00000000000000000000000000000000000E4
:104CD000000000000000000000000000007006401E
:104CE00001700640027006400370064004700640E2
:104CF00005700640067006400770064008700640C2
:104D0000097006400A7006400B7006400000000063
:104D10000000000000000000000000000000000093
:104D20000000000000000000000000000000000083
:104D30000000000000000000000000000000000073
:104D40000000000000000000000000000000000063
:104F20000000000001001D1E00000000A08601001E
:104F30000100000000000000000000000000000070
:104F40000000000000000000000000000000000061
:104F50000000000000000000000000000000000051
:104F60000000000000000000000000000000000041
:104F70000000000000000000809AFF1F8920000050
:104F8000892000008920000089200000892000007D
:104F9000892000008920000089200000892000006D
:104FA000892000008920000089200000892000005D
:104FB000892000008920000089200000892000004D
:104FC000892000008920000089200000892000003D
:104FD000892000008920000089200000892000002D
:104FE000892000008920000089200000892000001D
:104FF000892000008920000089200000892000000D
:1050000089200000892000008920000089200000FC
:1050100089200000892000008920000089200000EC
:1050200089200000892000008920000089200000DC
:1050300089200000892000008920000089200000CC
:1050400089200000892000008920000089200000BC
:10505000892000008920000089200000BC48000051
:1050600000000000E803000000000000FFFFFFFF59
:105070000A0400001201100102000040C01683045F
:105080007502010203010000180354006500650069
:105090006E00730079006400750069006E006F0097
:1050A00009024300020100C03209040000010202AB
:1050B0000100052400100105240101010424020659
:1050C00005240600010705820310004009040100C1
:1050D000020A0000000705030240000007058402E1
:1050E000400000001603550053004200200053000A
:1050F00065007200690061006C000000040309048F
:105100000C03000000000000000000000000000090
:10511000000000000000000000000000C491FF1F1C
:105120002C92FF1F9492FF1F00000000000000005F
:10513000000000000000000000000000000000006F
:10514000000000000000000000000000000000005F
:10515000000000000000000000000000000000004F
:10516000000000000000000000000000000000003F
:10517000000000000000000000000000000000002F
:10518000000000000000000000000000000000001F
:10519000000000000000000000000000000000000F
:1051A00000000000000000000000000000000000FF
:1051B00000000000000000000000000000000000EF
:1051C00001000000000000000E33CDAB34126DE68C
:1051D000ECDE05000B0000000000000000000000F5
:1051E00000000000000000000000000000000000BF
:1051F00000000000000000000000000000000000AF
:10520000000000000000000000000000000000009E
:10521000000000000000000000000000000000008E
:10554000D88EFF1F00000000000000000493FF1F22
:105550000493FF1F0C93FF1F0C93FF1F1493FF1F57
:105560001493FF1F1C93FF1F1C93FF1F2493FF1F07
:105570002493FF1F2C93FF1F2C93FF1F3493FF1FB7
:105580003493FF1F3C93FF1F3C93FF1F4493FF1F67
:105590004493FF1F4C93FF1F4C93FF1F5493FF1F17
:1055A0005493FF1F5C93FF1F5C93FF1F6493FF1FC7
:1055B0006493FF1F6C93FF1F6C93FF1F7493FF1F77
:1055C0007493FF1F7C93FF1F7C93FF1F8493FF1F27
:1055D0008493FF1F8C93FF1F8C93FF1F9493FF1FD7
:1055E0009493FF1F9C93FF1F9C93FF1FA493FF1F87
:1055F000A493FF1FAC93FF1FAC93FF1FB493FF1F37
:10560000B493FF1FBC93FF1FBC93FF1FC493FF1FE6
:10561000C493FF1FCC93FF1FCC93FF1FD493FF1F96
:10562000D493FF1FDC93FF1FDC93FF1FE493FF1F46
:10563000E493FF1FEC93FF1FEC93FF1FF493FF1FF6
:10564000F493FF1FFC93FF1FFC93FF1F0494FF1FA5
:105650000494FF1F0C94FF1F0C94FF1F1494FF1F52
:105660001494FF1F1C94FF1F1C94FF1F2494FF1F02
:105670002494FF1F2C94FF1F2C94FF1F3494FF1FB2
:105680003494FF1F3C94FF1F3C94FF1F4494FF1F62
:105690004494FF1F4C94FF1F4C94FF1F5494FF1F12
:1056A0005494FF1F5C94FF1F5C94FF1F6494FF1FC2
:1056B0006494FF1F6C94FF1F6C94FF1F7494FF1F72
:1056C0007494FF1F7C94FF1F7C94FF1F8494FF1F22
:1056D0008494FF1F8C94FF1F8C94FF1F9494FF1FD2
:1056E0009494FF1F9C94FF1F9C94FF1FA494FF1F82
:1056F000A494FF1FAC94FF1FAC94FF1FB494FF1F32
:10570000B494FF1FBC94FF1FBC94FF1FC494FF1FE1
:10571000C494FF1FCC94FF1FCC94FF1FD494FF1F91
:10572000D494FF1FDC94FF1FDC94FF1FE494FF1F41
:10573000E494FF1FEC94FF1FEC94FF1FF494FF1FF1
:10574000F494FF1FFC94FF1FFC94FF1F0495FF1FA0
:105750000495FF1F0C95FF1F0C95FF1F1495FF1F4D
:105760001495FF1F1C95FF1F1C95FF1F2495FF1FFD
:105770002495FF1F2C95FF1F2C95FF1F3495FF1FAD
:105780003495FF1F3C95FF1F3C95FF1F4495FF1F5D
:105790004495FF1F4C95FF1F4C95FF1F5495FF1F0D
:1057A0005495FF1F5C95FF1F5C95FF1F6495FF1FBD
:1057B0006495FF1F6C95FF1F6C95FF1F7495FF1F6D
:1057C0007495FF1F7C95FF1F7C95FF1F8495FF1F1D
:1057D0008495FF1F8C95FF1F8C95FF1F9495FF1FCD
:1057E0009495FF1F9C95FF1F9C95FF1FA495FF1F7D
:1057F000A495FF1FAC95FF1FAC95FF1FB495FF1F2D
:10580000B495FF1FBC95FF1FBC95FF1FC495FF1FDC
:10581000C495FF1FCC95FF1FCC95FF1FD495FF1F8C
:10582000D495FF1FDC95FF1FDC95FF1FE495FF1F3C
:10583000E495FF1FEC95FF1FEC95FF1FF495FF1FEC
:10584000F495FF1FFC95FF1FFC95FF1F0496FF1F9B
:105850000496FF1F0C96FF1F0C96FF1F1496FF1F48
:105860001496FF1F1C96FF1F1C96FF1F2496FF1FF8
:105870002496FF1F2C96FF1F2C96FF1F3496FF1FA8
:105880003496FF1F3C96FF1F3C96FF1F4496FF1F58
:105890004496FF1F4C96FF1F4C96FF1F5496FF1F08
:1058A0005496FF1F5C96FF1F5C96FF1F6496FF1FB8
:1058B0006496FF1F6C96FF1F6C96FF1F7496FF1F68
:1058C0007496FF1F7C96FF1F7C96FF1F8496FF1F18
:1058D0008496FF1F8C96FF1F8C96FF1F9496FF1FC8
:1058E0009496FF1F9C96FF1F9C96FF1FA496FF1F78
:1058F000A496FF1FAC96FF1FAC96FF1FB496FF1F28
:10590000B496FF1FBC96FF1FBC96FF1FC496FF1FD7
:10591000C496FF1FCC96FF1FCC96FF1FD496FF1F87
:10592000D496FF1FDC96FF1FDC96FF1FE496FF1F37
:10593000E496FF1FEC96FF1FEC96FF1FF496FF1FE7
:10594000F496FF1FFC96FF1FFC96FF1F000002004D
:04595000FFFFFFFF57
:00000001FF
